{
	"contracts/3_Ballot.sol": {
		"Ballot": {
			"abi": [
				{
					"inputs": [],
					"stateMutability": "nonpayable",
					"type": "constructor"
				},
				{
					"inputs": [],
					"name": "chairperson",
					"outputs": [
						{
							"internalType": "address",
							"name": "",
							"type": "address"
						}
					],
					"stateMutability": "view",
					"type": "function"
				},
				{
					"inputs": [
						{
							"internalType": "bytes32",
							"name": "name",
							"type": "bytes32"
						},
						{
							"components": [
								{
									"internalType": "bytes32",
									"name": "name",
									"type": "bytes32"
								},
								{
									"internalType": "uint256",
									"name": "voteCount",
									"type": "uint256"
								}
							],
							"internalType": "struct Ballot.Proposal[]",
							"name": "proposals",
							"type": "tuple[]"
						},
						{
							"internalType": "uint256",
							"name": "modules",
							"type": "uint256"
						},
						{
							"internalType": "uint256",
							"name": "exponent",
							"type": "uint256"
						}
					],
					"name": "createElection",
					"outputs": [],
					"stateMutability": "nonpayable",
					"type": "function"
				},
				{
					"inputs": [
						{
							"internalType": "bytes32",
							"name": "",
							"type": "bytes32"
						}
					],
					"name": "elections",
					"outputs": [
						{
							"internalType": "bytes32",
							"name": "name",
							"type": "bytes32"
						},
						{
							"components": [
								{
									"internalType": "uint256",
									"name": "modulus",
									"type": "uint256"
								},
								{
									"internalType": "uint256",
									"name": "exponent",
									"type": "uint256"
								}
							],
							"internalType": "struct Ballot.RSAPublicKey",
							"name": "publicKey",
							"type": "tuple"
						},
						{
							"internalType": "bool",
							"name": "created",
							"type": "bool"
						}
					],
					"stateMutability": "view",
					"type": "function"
				},
				{
					"inputs": [
						{
							"internalType": "bytes32",
							"name": "electionName",
							"type": "bytes32"
						}
					],
					"name": "getPKey",
					"outputs": [
						{
							"internalType": "uint256",
							"name": "",
							"type": "uint256"
						},
						{
							"internalType": "uint256",
							"name": "",
							"type": "uint256"
						}
					],
					"stateMutability": "view",
					"type": "function"
				},
				{
					"inputs": [
						{
							"internalType": "string",
							"name": "signedBallot",
							"type": "string"
						}
					],
					"name": "vote",
					"outputs": [],
					"stateMutability": "nonpayable",
					"type": "function"
				}
			],
			"devdoc": {
				"details": "Implements voting process along with vote delegation",
				"kind": "dev",
				"methods": {
					"getPKey(bytes32)": {
						"details": "returns modulus and exponent of RSAPublicKey",
						"params": {
							"electionName": "is the name of election"
						}
					},
					"vote(string)": {
						"details": "validate and store vote",
						"params": {
							"signedBallot": "base64 encoded json representation of signed ballot"
						}
					}
				},
				"title": "Ballot",
				"version": 1
			},
			"evm": {
				"assembly": "    /* \"contracts/3_Ballot.sol\":190:1900  contract Ballot {... */\n  mstore(0x40, 0x80)\n    /* \"contracts/3_Ballot.sol\":586:641  constructor() {... */\n  callvalue\n  dup1\n  iszero\n  tag_1\n  jumpi\n  0x00\n  dup1\n  revert\ntag_1:\n  pop\n    /* \"contracts/3_Ballot.sol\":624:634  msg.sender */\n  caller\n    /* \"contracts/3_Ballot.sol\":610:621  chairperson */\n  0x00\n  dup1\n    /* \"contracts/3_Ballot.sol\":610:634  chairperson = msg.sender */\n  0x0100\n  exp\n  dup2\n  sload\n  dup2\n  0xffffffffffffffffffffffffffffffffffffffff\n  mul\n  not\n  and\n  swap1\n  dup4\n  0xffffffffffffffffffffffffffffffffffffffff\n  and\n  mul\n  or\n  swap1\n  sstore\n  pop\n    /* \"contracts/3_Ballot.sol\":190:1900  contract Ballot {... */\n  dataSize(sub_0)\n  dup1\n  dataOffset(sub_0)\n  0x00\n  codecopy\n  0x00\n  return\nstop\n\nsub_0: assembly {\n        /* \"contracts/3_Ballot.sol\":190:1900  contract Ballot {... */\n      mstore(0x40, 0x80)\n      callvalue\n      dup1\n      iszero\n      tag_1\n      jumpi\n      0x00\n      dup1\n      revert\n    tag_1:\n      pop\n      jumpi(tag_2, lt(calldatasize, 0x04))\n      shr(0xe0, calldataload(0x00))\n      dup1\n      0x05ab39b7\n      eq\n      tag_3\n      jumpi\n      dup1\n      0x2e4176cf\n      eq\n      tag_4\n      jumpi\n      dup1\n      0xa57c072a\n      eq\n      tag_5\n      jumpi\n      dup1\n      0xdf3dcb52\n      eq\n      tag_6\n      jumpi\n      dup1\n      0xfc36e15b\n      eq\n      tag_7\n      jumpi\n    tag_2:\n      0x00\n      dup1\n      revert\n        /* \"contracts/3_Ballot.sol\":534:579  mapping(bytes32 => Election) public elections */\n    tag_3:\n      tag_8\n      0x04\n      dup1\n      calldatasize\n      sub\n      dup2\n      add\n      swap1\n      tag_9\n      swap2\n      swap1\n      tag_10\n      jump\t// in\n    tag_9:\n      tag_11\n      jump\t// in\n    tag_8:\n      mload(0x40)\n      tag_12\n      swap4\n      swap3\n      swap2\n      swap1\n      tag_13\n      jump\t// in\n    tag_12:\n      mload(0x40)\n      dup1\n      swap2\n      sub\n      swap1\n      return\n        /* \"contracts/3_Ballot.sol\":501:527  address public chairperson */\n    tag_4:\n      tag_14\n      tag_15\n      jump\t// in\n    tag_14:\n      mload(0x40)\n      tag_16\n      swap2\n      swap1\n      tag_17\n      jump\t// in\n    tag_16:\n      mload(0x40)\n      dup1\n      swap2\n      sub\n      swap1\n      return\n        /* \"contracts/3_Ballot.sol\":647:1233  function createElection(bytes32 name, Proposal[] calldata proposals, uint modules, uint exponent) public {... */\n    tag_5:\n      tag_18\n      0x04\n      dup1\n      calldatasize\n      sub\n      dup2\n      add\n      swap1\n      tag_19\n      swap2\n      swap1\n      tag_20\n      jump\t// in\n    tag_19:\n      tag_21\n      jump\t// in\n    tag_18:\n      stop\n        /* \"contracts/3_Ballot.sol\":1649:1897  function getPKey(bytes32 electionName) view public returns(uint, uint) {... */\n    tag_6:\n      tag_22\n      0x04\n      dup1\n      calldatasize\n      sub\n      dup2\n      add\n      swap1\n      tag_23\n      swap2\n      swap1\n      tag_10\n      jump\t// in\n    tag_23:\n      tag_24\n      jump\t// in\n    tag_22:\n      mload(0x40)\n      tag_25\n      swap3\n      swap2\n      swap1\n      tag_26\n      jump\t// in\n    tag_25:\n      mload(0x40)\n      dup1\n      swap2\n      sub\n      swap1\n      return\n        /* \"contracts/3_Ballot.sol\":1370:1519  function vote(string calldata signedBallot) public {... */\n    tag_7:\n      tag_27\n      0x04\n      dup1\n      calldatasize\n      sub\n      dup2\n      add\n      swap1\n      tag_28\n      swap2\n      swap1\n      tag_29\n      jump\t// in\n    tag_28:\n      tag_30\n      jump\t// in\n    tag_27:\n      stop\n        /* \"contracts/3_Ballot.sol\":534:579  mapping(bytes32 => Election) public elections */\n    tag_11:\n      mstore(0x20, 0x01)\n      dup1\n      0x00\n      mstore\n      keccak256(0x00, 0x40)\n      0x00\n      swap2\n      pop\n      swap1\n      pop\n      dup1\n      0x00\n      add\n      sload\n      swap1\n      dup1\n      0x02\n      add\n      mload(0x40)\n      dup1\n      0x40\n      add\n      0x40\n      mstore\n      swap1\n      dup2\n      0x00\n      dup3\n      add\n      sload\n      dup2\n      mstore\n      0x20\n      add\n      0x01\n      dup3\n      add\n      sload\n      dup2\n      mstore\n      pop\n      pop\n      swap1\n      dup1\n      0x04\n      add\n      0x00\n      swap1\n      sload\n      swap1\n      0x0100\n      exp\n      swap1\n      div\n      0xff\n      and\n      swap1\n      pop\n      dup4\n      jump\t// out\n        /* \"contracts/3_Ballot.sol\":501:527  address public chairperson */\n    tag_15:\n      0x00\n      dup1\n      sload\n      swap1\n      0x0100\n      exp\n      swap1\n      div\n      0xffffffffffffffffffffffffffffffffffffffff\n      and\n      dup2\n      jump\t// out\n        /* \"contracts/3_Ballot.sol\":647:1233  function createElection(bytes32 name, Proposal[] calldata proposals, uint modules, uint exponent) public {... */\n    tag_21:\n        /* \"contracts/3_Ballot.sol\":784:795  chairperson */\n      0x00\n      dup1\n      sload\n      swap1\n      0x0100\n      exp\n      swap1\n      div\n      0xffffffffffffffffffffffffffffffffffffffff\n      and\n        /* \"contracts/3_Ballot.sol\":770:795  msg.sender == chairperson */\n      0xffffffffffffffffffffffffffffffffffffffff\n      and\n        /* \"contracts/3_Ballot.sol\":770:780  msg.sender */\n      caller\n        /* \"contracts/3_Ballot.sol\":770:795  msg.sender == chairperson */\n      0xffffffffffffffffffffffffffffffffffffffff\n      and\n      eq\n        /* \"contracts/3_Ballot.sol\":762:831  require(msg.sender == chairperson, \"Has no right to create election\") */\n      tag_32\n      jumpi\n      mload(0x40)\n      0x08c379a000000000000000000000000000000000000000000000000000000000\n      dup2\n      mstore\n      0x04\n      add\n      tag_33\n      swap1\n      tag_34\n      jump\t// in\n    tag_33:\n      mload(0x40)\n      dup1\n      swap2\n      sub\n      swap1\n      revert\n    tag_32:\n        /* \"contracts/3_Ballot.sol\":849:859  name != \"\" */\n      0x00\n        /* \"contracts/3_Ballot.sol\":849:853  name */\n      dup6\n        /* \"contracts/3_Ballot.sol\":849:859  name != \"\" */\n      sub\n        /* \"contracts/3_Ballot.sol\":841:886  require(name != \"\", \"Name must be specified\") */\n      tag_35\n      jumpi\n      mload(0x40)\n      0x08c379a000000000000000000000000000000000000000000000000000000000\n      dup2\n      mstore\n      0x04\n      add\n      tag_36\n      swap1\n      tag_37\n      jump\t// in\n    tag_36:\n      mload(0x40)\n      dup1\n      swap2\n      sub\n      swap1\n      revert\n    tag_35:\n        /* \"contracts/3_Ballot.sol\":905:914  elections */\n      0x01\n        /* \"contracts/3_Ballot.sol\":905:920  elections[name] */\n      0x00\n        /* \"contracts/3_Ballot.sol\":915:919  name */\n      dup7\n        /* \"contracts/3_Ballot.sol\":905:920  elections[name] */\n      dup2\n      mstore\n      0x20\n      add\n      swap1\n      dup2\n      mstore\n      0x20\n      add\n      0x00\n      keccak256\n        /* \"contracts/3_Ballot.sol\":905:928  elections[name].created */\n      0x04\n      add\n      0x00\n      swap1\n      sload\n      swap1\n      0x0100\n      exp\n      swap1\n      div\n      0xff\n      and\n        /* \"contracts/3_Ballot.sol\":904:928  !elections[name].created */\n      iszero\n        /* \"contracts/3_Ballot.sol\":896:957  require(!elections[name].created, \"Election already created\") */\n      tag_38\n      jumpi\n      mload(0x40)\n      0x08c379a000000000000000000000000000000000000000000000000000000000\n      dup2\n      mstore\n      0x04\n      add\n      tag_39\n      swap1\n      tag_40\n      jump\t// in\n    tag_39:\n      mload(0x40)\n      dup1\n      swap2\n      sub\n      swap1\n      revert\n    tag_38:\n        /* \"contracts/3_Ballot.sol\":973:979  uint i */\n      0x00\n        /* \"contracts/3_Ballot.sol\":968:1081  for (uint i = 0; i < proposals.length; i++) {... */\n    tag_41:\n        /* \"contracts/3_Ballot.sol\":989:998  proposals */\n      dup5\n      dup5\n        /* \"contracts/3_Ballot.sol\":989:1005  proposals.length */\n      swap1\n      pop\n        /* \"contracts/3_Ballot.sol\":985:986  i */\n      dup2\n        /* \"contracts/3_Ballot.sol\":985:1005  i < proposals.length */\n      lt\n        /* \"contracts/3_Ballot.sol\":968:1081  for (uint i = 0; i < proposals.length; i++) {... */\n      iszero\n      tag_42\n      jumpi\n        /* \"contracts/3_Ballot.sol\":1026:1035  elections */\n      0x01\n        /* \"contracts/3_Ballot.sol\":1026:1041  elections[name] */\n      0x00\n        /* \"contracts/3_Ballot.sol\":1036:1040  name */\n      dup8\n        /* \"contracts/3_Ballot.sol\":1026:1041  elections[name] */\n      dup2\n      mstore\n      0x20\n      add\n      swap1\n      dup2\n      mstore\n      0x20\n      add\n      0x00\n      keccak256\n        /* \"contracts/3_Ballot.sol\":1026:1051  elections[name].proposals */\n      0x01\n      add\n        /* \"contracts/3_Ballot.sol\":1057:1066  proposals */\n      dup6\n      dup6\n        /* \"contracts/3_Ballot.sol\":1067:1068  i */\n      dup4\n        /* \"contracts/3_Ballot.sol\":1057:1069  proposals[i] */\n      dup2\n      dup2\n      lt\n      tag_44\n      jumpi\n      tag_45\n      tag_46\n      jump\t// in\n    tag_45:\n    tag_44:\n      swap1\n      pop\n      0x40\n      mul\n      add\n        /* \"contracts/3_Ballot.sol\":1026:1070  elections[name].proposals.push(proposals[i]) */\n      swap1\n      dup1\n      0x01\n      dup2\n      sload\n      add\n      dup1\n      dup3\n      sstore\n      dup1\n      swap2\n      pop\n      pop\n      0x01\n      swap1\n      sub\n      swap1\n      0x00\n      mstore\n      keccak256(0x00, 0x20)\n      swap1\n      0x02\n      mul\n      add\n      0x00\n      swap1\n      swap2\n      swap1\n      swap2\n      swap1\n      swap2\n      pop\n      dup2\n      dup2\n      tag_48\n      swap2\n      swap1\n      tag_49\n      jump\t// in\n    tag_48:\n      pop\n      pop\n        /* \"contracts/3_Ballot.sol\":1007:1010  i++ */\n      dup1\n      dup1\n      0x01\n      add\n      swap2\n      pop\n      pop\n        /* \"contracts/3_Ballot.sol\":968:1081  for (uint i = 0; i < proposals.length; i++) {... */\n      jump(tag_41)\n    tag_42:\n      pop\n        /* \"contracts/3_Ballot.sol\":1113:1117  name */\n      dup5\n        /* \"contracts/3_Ballot.sol\":1090:1099  elections */\n      0x01\n        /* \"contracts/3_Ballot.sol\":1090:1105  elections[name] */\n      0x00\n        /* \"contracts/3_Ballot.sol\":1100:1104  name */\n      dup8\n        /* \"contracts/3_Ballot.sol\":1090:1105  elections[name] */\n      dup2\n      mstore\n      0x20\n      add\n      swap1\n      dup2\n      mstore\n      0x20\n      add\n      0x00\n      keccak256\n        /* \"contracts/3_Ballot.sol\":1090:1110  elections[name].name */\n      0x00\n      add\n        /* \"contracts/3_Ballot.sol\":1090:1117  elections[name].name = name */\n      dup2\n      swap1\n      sstore\n      pop\n        /* \"contracts/3_Ballot.sol\":1155:1186  RSAPublicKey(modules, exponent) */\n      mload(0x40)\n      dup1\n      0x40\n      add\n      0x40\n      mstore\n      dup1\n        /* \"contracts/3_Ballot.sol\":1168:1175  modules */\n      dup4\n        /* \"contracts/3_Ballot.sol\":1155:1186  RSAPublicKey(modules, exponent) */\n      dup2\n      mstore\n      0x20\n      add\n        /* \"contracts/3_Ballot.sol\":1177:1185  exponent */\n      dup3\n        /* \"contracts/3_Ballot.sol\":1155:1186  RSAPublicKey(modules, exponent) */\n      dup2\n      mstore\n      pop\n        /* \"contracts/3_Ballot.sol\":1127:1136  elections */\n      0x01\n        /* \"contracts/3_Ballot.sol\":1127:1142  elections[name] */\n      0x00\n        /* \"contracts/3_Ballot.sol\":1137:1141  name */\n      dup8\n        /* \"contracts/3_Ballot.sol\":1127:1142  elections[name] */\n      dup2\n      mstore\n      0x20\n      add\n      swap1\n      dup2\n      mstore\n      0x20\n      add\n      0x00\n      keccak256\n        /* \"contracts/3_Ballot.sol\":1127:1152  elections[name].publicKey */\n      0x02\n      add\n        /* \"contracts/3_Ballot.sol\":1127:1186  elections[name].publicKey = RSAPublicKey(modules, exponent) */\n      0x00\n      dup3\n      add\n      mload\n      dup2\n      0x00\n      add\n      sstore\n      0x20\n      dup3\n      add\n      mload\n      dup2\n      0x01\n      add\n      sstore\n      swap1\n      pop\n      pop\n        /* \"contracts/3_Ballot.sol\":1222:1226  true */\n      0x01\n        /* \"contracts/3_Ballot.sol\":1196:1205  elections */\n      dup1\n        /* \"contracts/3_Ballot.sol\":1196:1211  elections[name] */\n      0x00\n        /* \"contracts/3_Ballot.sol\":1206:1210  name */\n      dup8\n        /* \"contracts/3_Ballot.sol\":1196:1211  elections[name] */\n      dup2\n      mstore\n      0x20\n      add\n      swap1\n      dup2\n      mstore\n      0x20\n      add\n      0x00\n      keccak256\n        /* \"contracts/3_Ballot.sol\":1196:1219  elections[name].created */\n      0x04\n      add\n      0x00\n        /* \"contracts/3_Ballot.sol\":1196:1226  elections[name].created = true */\n      0x0100\n      exp\n      dup2\n      sload\n      dup2\n      0xff\n      mul\n      not\n      and\n      swap1\n      dup4\n      iszero\n      iszero\n      mul\n      or\n      swap1\n      sstore\n      pop\n        /* \"contracts/3_Ballot.sol\":647:1233  function createElection(bytes32 name, Proposal[] calldata proposals, uint modules, uint exponent) public {... */\n      pop\n      pop\n      pop\n      pop\n      pop\n      jump\t// out\n        /* \"contracts/3_Ballot.sol\":1649:1897  function getPKey(bytes32 electionName) view public returns(uint, uint) {... */\n    tag_24:\n        /* \"contracts/3_Ballot.sol\":1708:1712  uint */\n      0x00\n        /* \"contracts/3_Ballot.sol\":1714:1718  uint */\n      dup1\n        /* \"contracts/3_Ballot.sol\":1730:1742  uint modulus */\n      0x00\n        /* \"contracts/3_Ballot.sol\":1745:1754  elections */\n      0x01\n        /* \"contracts/3_Ballot.sol\":1745:1768  elections[electionName] */\n      0x00\n        /* \"contracts/3_Ballot.sol\":1755:1767  electionName */\n      dup6\n        /* \"contracts/3_Ballot.sol\":1745:1768  elections[electionName] */\n      dup2\n      mstore\n      0x20\n      add\n      swap1\n      dup2\n      mstore\n      0x20\n      add\n      0x00\n      keccak256\n        /* \"contracts/3_Ballot.sol\":1745:1778  elections[electionName].publicKey */\n      0x02\n      add\n        /* \"contracts/3_Ballot.sol\":1745:1786  elections[electionName].publicKey.modulus */\n      0x00\n      add\n      sload\n        /* \"contracts/3_Ballot.sol\":1730:1786  uint modulus = elections[electionName].publicKey.modulus */\n      swap1\n      pop\n        /* \"contracts/3_Ballot.sol\":1796:1809  uint exponent */\n      0x00\n        /* \"contracts/3_Ballot.sol\":1812:1821  elections */\n      0x01\n        /* \"contracts/3_Ballot.sol\":1812:1835  elections[electionName] */\n      0x00\n        /* \"contracts/3_Ballot.sol\":1822:1834  electionName */\n      dup7\n        /* \"contracts/3_Ballot.sol\":1812:1835  elections[electionName] */\n      dup2\n      mstore\n      0x20\n      add\n      swap1\n      dup2\n      mstore\n      0x20\n      add\n      0x00\n      keccak256\n        /* \"contracts/3_Ballot.sol\":1812:1845  elections[electionName].publicKey */\n      0x02\n      add\n        /* \"contracts/3_Ballot.sol\":1812:1854  elections[electionName].publicKey.exponent */\n      0x01\n      add\n      sload\n        /* \"contracts/3_Ballot.sol\":1796:1854  uint exponent = elections[electionName].publicKey.exponent */\n      swap1\n      pop\n        /* \"contracts/3_Ballot.sol\":1872:1879  modulus */\n      dup2\n        /* \"contracts/3_Ballot.sol\":1881:1889  exponent */\n      dup2\n        /* \"contracts/3_Ballot.sol\":1864:1890  return (modulus, exponent) */\n      swap4\n      pop\n      swap4\n      pop\n      pop\n      pop\n        /* \"contracts/3_Ballot.sol\":1649:1897  function getPKey(bytes32 electionName) view public returns(uint, uint) {... */\n      swap2\n      pop\n      swap2\n      jump\t// out\n        /* \"contracts/3_Ballot.sol\":1370:1519  function vote(string calldata signedBallot) public {... */\n    tag_30:\n        /* \"contracts/3_Ballot.sol\":1454:1473  bytes memory decode */\n      0x00\n        /* \"contracts/3_Ballot.sol\":1476:1503  Base64.decode(signedBallot) */\n      tag_52\n        /* \"contracts/3_Ballot.sol\":1490:1502  signedBallot */\n      dup4\n      dup4\n        /* \"contracts/3_Ballot.sol\":1476:1503  Base64.decode(signedBallot) */\n      dup1\n      dup1\n      0x1f\n      add\n      0x20\n      dup1\n      swap2\n      div\n      mul\n      0x20\n      add\n      mload(0x40)\n      swap1\n      dup2\n      add\n      0x40\n      mstore\n      dup1\n      swap4\n      swap3\n      swap2\n      swap1\n      dup2\n      dup2\n      mstore\n      0x20\n      add\n      dup4\n      dup4\n      dup1\n      dup3\n      dup5\n      calldatacopy\n      0x00\n      dup2\n      dup5\n      add\n      mstore\n      not(0x1f)\n      0x1f\n      dup3\n      add\n      and\n      swap1\n      pop\n      dup1\n      dup4\n      add\n      swap3\n      pop\n      pop\n      pop\n      pop\n      pop\n      pop\n      pop\n        /* \"contracts/3_Ballot.sol\":1476:1489  Base64.decode */\n      tag_53\n        /* \"contracts/3_Ballot.sol\":1476:1503  Base64.decode(signedBallot) */\n      jump\t// in\n    tag_52:\n        /* \"contracts/3_Ballot.sol\":1454:1503  bytes memory decode = Base64.decode(signedBallot) */\n      swap1\n      pop\n        /* \"contracts/3_Ballot.sol\":1421:1519  {... */\n      pop\n        /* \"contracts/3_Ballot.sol\":1370:1519  function vote(string calldata signedBallot) public {... */\n      pop\n      pop\n      jump\t// out\n        /* \"base64-sol/base64.sol\":2644:4822  function decode(string memory _data) internal pure returns (bytes memory) {... */\n    tag_53:\n        /* \"base64-sol/base64.sol\":2704:2716  bytes memory */\n      0x60\n        /* \"base64-sol/base64.sol\":2728:2745  bytes memory data */\n      0x00\n        /* \"base64-sol/base64.sol\":2754:2759  _data */\n      dup3\n        /* \"base64-sol/base64.sol\":2728:2760  bytes memory data = bytes(_data) */\n      swap1\n      pop\n        /* \"base64-sol/base64.sol\":2790:2791  0 */\n      0x00\n        /* \"base64-sol/base64.sol\":2775:2779  data */\n      dup2\n        /* \"base64-sol/base64.sol\":2775:2786  data.length */\n      mload\n        /* \"base64-sol/base64.sol\":2775:2791  data.length == 0 */\n      sub\n        /* \"base64-sol/base64.sol\":2771:2812  if (data.length == 0) return new bytes(0) */\n      tag_55\n      jumpi\n        /* \"base64-sol/base64.sol\":2810:2811  0 */\n      0x00\n        /* \"base64-sol/base64.sol\":2800:2812  new bytes(0) */\n      0xffffffffffffffff\n      dup2\n      gt\n      iszero\n      tag_56\n      jumpi\n      tag_57\n      tag_58\n      jump\t// in\n    tag_57:\n    tag_56:\n      mload(0x40)\n      swap1\n      dup1\n      dup3\n      mstore\n      dup1\n      0x1f\n      add\n      not(0x1f)\n      and\n      0x20\n      add\n      dup3\n      add\n      0x40\n      mstore\n      dup1\n      iszero\n      tag_59\n      jumpi\n      dup2\n      0x20\n      add\n      0x01\n      dup3\n      mul\n      dup1\n      calldatasize\n      dup4\n      calldatacopy\n      dup1\n      dup3\n      add\n      swap2\n      pop\n      pop\n      swap1\n      pop\n    tag_59:\n      pop\n        /* \"base64-sol/base64.sol\":2793:2812  return new bytes(0) */\n      swap2\n      pop\n      pop\n      jump(tag_54)\n        /* \"base64-sol/base64.sol\":2771:2812  if (data.length == 0) return new bytes(0) */\n    tag_55:\n        /* \"base64-sol/base64.sol\":2849:2850  0 */\n      0x00\n        /* \"base64-sol/base64.sol\":2844:2845  4 */\n      0x04\n        /* \"base64-sol/base64.sol\":2830:2834  data */\n      dup3\n        /* \"base64-sol/base64.sol\":2830:2841  data.length */\n      mload\n        /* \"base64-sol/base64.sol\":2830:2845  data.length % 4 */\n      tag_60\n      swap2\n      swap1\n      tag_61\n      jump\t// in\n    tag_60:\n        /* \"base64-sol/base64.sol\":2830:2850  data.length % 4 == 0 */\n      eq\n        /* \"base64-sol/base64.sol\":2822:2883  require(data.length % 4 == 0, \"invalid base64 decoder input\") */\n      tag_62\n      jumpi\n      mload(0x40)\n      0x08c379a000000000000000000000000000000000000000000000000000000000\n      dup2\n      mstore\n      0x04\n      add\n      tag_63\n      swap1\n      tag_64\n      jump\t// in\n    tag_63:\n      mload(0x40)\n      dup1\n      swap2\n      sub\n      swap1\n      revert\n    tag_62:\n        /* \"base64-sol/base64.sol\":2932:2950  bytes memory table */\n      0x00\n        /* \"base64-sol/base64.sol\":2953:2965  TABLE_DECODE */\n      mload(0x40)\n      dup1\n      0xa0\n      add\n      0x40\n      mstore\n      dup1\n      0x80\n      dup2\n      mstore\n      0x20\n      add\n      data_cbed483d4f9f83dd52b06773fd58dd8723113252a85374752ef109e22dfa50f9\n      0x80\n      swap2\n      codecopy\n        /* \"base64-sol/base64.sol\":2932:2965  bytes memory table = TABLE_DECODE */\n      swap1\n      pop\n        /* \"base64-sol/base64.sol\":3024:3042  uint256 decodedLen */\n      0x00\n        /* \"base64-sol/base64.sol\":3065:3066  3 */\n      0x03\n        /* \"base64-sol/base64.sol\":3060:3061  4 */\n      0x04\n        /* \"base64-sol/base64.sol\":3046:3050  data */\n      dup5\n        /* \"base64-sol/base64.sol\":3046:3057  data.length */\n      mload\n        /* \"base64-sol/base64.sol\":3046:3061  data.length / 4 */\n      tag_65\n      swap2\n      swap1\n      tag_66\n      jump\t// in\n    tag_65:\n        /* \"base64-sol/base64.sol\":3045:3066  (data.length / 4) * 3 */\n      tag_67\n      swap2\n      swap1\n      tag_68\n      jump\t// in\n    tag_67:\n        /* \"base64-sol/base64.sol\":3024:3066  uint256 decodedLen = (data.length / 4) * 3 */\n      swap1\n      pop\n        /* \"base64-sol/base64.sol\":3146:3165  bytes memory result */\n      0x00\n        /* \"base64-sol/base64.sol\":3191:3193  32 */\n      0x20\n        /* \"base64-sol/base64.sol\":3178:3188  decodedLen */\n      dup3\n        /* \"base64-sol/base64.sol\":3178:3193  decodedLen + 32 */\n      tag_69\n      swap2\n      swap1\n      tag_70\n      jump\t// in\n    tag_69:\n        /* \"base64-sol/base64.sol\":3168:3194  new bytes(decodedLen + 32) */\n      0xffffffffffffffff\n      dup2\n      gt\n      iszero\n      tag_71\n      jumpi\n      tag_72\n      tag_58\n      jump\t// in\n    tag_72:\n    tag_71:\n      mload(0x40)\n      swap1\n      dup1\n      dup3\n      mstore\n      dup1\n      0x1f\n      add\n      not(0x1f)\n      and\n      0x20\n      add\n      dup3\n      add\n      0x40\n      mstore\n      dup1\n      iszero\n      tag_73\n      jumpi\n      dup2\n      0x20\n      add\n      0x01\n      dup3\n      mul\n      dup1\n      calldatasize\n      dup4\n      calldatacopy\n      dup1\n      dup3\n      add\n      swap2\n      pop\n      pop\n      swap1\n      pop\n    tag_73:\n      pop\n        /* \"base64-sol/base64.sol\":3146:3194  bytes memory result = new bytes(decodedLen + 32) */\n      swap1\n      pop\n        /* \"base64-sol/base64.sol\":3299:3303  data */\n      dup4\n        /* \"base64-sol/base64.sol\":3293:3304  mload(data) */\n      mload\n        /* \"base64-sol/base64.sol\":3287:3291  data */\n      dup5\n        /* \"base64-sol/base64.sol\":3283:3305  add(data, mload(data)) */\n      add\n        /* \"base64-sol/base64.sol\":3277:3306  mload(add(data, mload(data))) */\n      mload\n        /* \"base64-sol/base64.sol\":3347:3351  0x3d */\n      0x3d\n        /* \"base64-sol/base64.sol\":3340:3344  0xFF */\n      0xff\n        /* \"base64-sol/base64.sol\":3329:3338  lastBytes */\n      dup3\n        /* \"base64-sol/base64.sol\":3325:3345  and(lastBytes, 0xFF) */\n      and\n        /* \"base64-sol/base64.sol\":3322:3352  eq(and(lastBytes, 0xFF), 0x3d) */\n      sub\n        /* \"base64-sol/base64.sol\":3319:3544  if eq(and(lastBytes, 0xFF), 0x3d) {... */\n      tag_74\n      jumpi\n        /* \"base64-sol/base64.sol\":3401:3402  1 */\n      0x01\n        /* \"base64-sol/base64.sol\":3389:3399  decodedLen */\n      dup4\n        /* \"base64-sol/base64.sol\":3385:3403  sub(decodedLen, 1) */\n      sub\n        /* \"base64-sol/base64.sol\":3371:3403  decodedLen := sub(decodedLen, 1) */\n      swap3\n      pop\n        /* \"base64-sol/base64.sol\":3450:3456  0x3d3d */\n      0x3d3d\n        /* \"base64-sol/base64.sol\":3441:3447  0xFFFF */\n      0xffff\n        /* \"base64-sol/base64.sol\":3430:3439  lastBytes */\n      dup3\n        /* \"base64-sol/base64.sol\":3426:3448  and(lastBytes, 0xFFFF) */\n      and\n        /* \"base64-sol/base64.sol\":3423:3457  eq(and(lastBytes, 0xFFFF), 0x3d3d) */\n      sub\n        /* \"base64-sol/base64.sol\":3420:3530  if eq(and(lastBytes, 0xFFFF), 0x3d3d) {... */\n      tag_75\n      jumpi\n        /* \"base64-sol/base64.sol\":3510:3511  1 */\n      0x01\n        /* \"base64-sol/base64.sol\":3498:3508  decodedLen */\n      dup4\n        /* \"base64-sol/base64.sol\":3494:3512  sub(decodedLen, 1) */\n      sub\n        /* \"base64-sol/base64.sol\":3480:3512  decodedLen := sub(decodedLen, 1) */\n      swap3\n      pop\n        /* \"base64-sol/base64.sol\":3420:3530  if eq(and(lastBytes, 0xFFFF), 0x3d3d) {... */\n    tag_75:\n        /* \"base64-sol/base64.sol\":3319:3544  if eq(and(lastBytes, 0xFF), 0x3d) {... */\n    tag_74:\n        /* \"base64-sol/base64.sol\":3617:3627  decodedLen */\n      dup3\n        /* \"base64-sol/base64.sol\":3609:3615  result */\n      dup3\n        /* \"base64-sol/base64.sol\":3602:3628  mstore(result, decodedLen) */\n      mstore\n        /* \"base64-sol/base64.sol\":3709:3710  1 */\n      0x01\n        /* \"base64-sol/base64.sol\":3702:3707  table */\n      dup5\n        /* \"base64-sol/base64.sol\":3698:3711  add(table, 1) */\n      add\n        /* \"base64-sol/base64.sol\":3765:3769  data */\n      dup6\n        /* \"base64-sol/base64.sol\":3815:3819  data */\n      dup7\n        /* \"base64-sol/base64.sol\":3809:3820  mload(data) */\n      mload\n        /* \"base64-sol/base64.sol\":3800:3807  dataPtr */\n      dup2\n        /* \"base64-sol/base64.sol\":3796:3821  add(dataPtr, mload(data)) */\n      add\n        /* \"base64-sol/base64.sol\":3908:3910  32 */\n      0x20\n        /* \"base64-sol/base64.sol\":3900:3906  result */\n      dup6\n        /* \"base64-sol/base64.sol\":3896:3911  add(result, 32) */\n      add\n        /* \"base64-sol/base64.sol\":3983:4782  for {} lt(dataPtr, endPtr) {}... */\n    tag_76:\n        /* \"base64-sol/base64.sol\":4002:4008  endPtr */\n      dup2\n        /* \"base64-sol/base64.sol\":3993:4000  dataPtr */\n      dup4\n        /* \"base64-sol/base64.sol\":3990:4009  lt(dataPtr, endPtr) */\n      lt\n        /* \"base64-sol/base64.sol\":3983:4782  for {} lt(dataPtr, endPtr) {}... */\n      iszero\n      tag_78\n      jumpi\n        /* \"base64-sol/base64.sol\":4102:4103  4 */\n      0x04\n        /* \"base64-sol/base64.sol\":4093:4100  dataPtr */\n      dup4\n        /* \"base64-sol/base64.sol\":4089:4104  add(dataPtr, 4) */\n      add\n        /* \"base64-sol/base64.sol\":4078:4104  dataPtr := add(dataPtr, 4) */\n      swap3\n      pop\n        /* \"base64-sol/base64.sol\":4139:4146  dataPtr */\n      dup3\n        /* \"base64-sol/base64.sol\":4133:4147  mload(dataPtr) */\n      mload\n        /* \"base64-sol/base64.sol\":4624:4628  0xFF */\n      0xff\n        /* \"base64-sol/base64.sol\":4615:4619  0xFF */\n      dup1\n        /* \"base64-sol/base64.sol\":4607:4612  input */\n      dup3\n        /* \"base64-sol/base64.sol\":4595:4620  and(        input , 0xFF) */\n      and\n        /* \"base64-sol/base64.sol\":4585:4593  tablePtr */\n      dup7\n        /* \"base64-sol/base64.sol\":4581:4621  add(tablePtr, and(        input , 0xFF)) */\n      add\n        /* \"base64-sol/base64.sol\":4575:4622  mload(add(tablePtr, and(        input , 0xFF))) */\n      mload\n        /* \"base64-sol/base64.sol\":4571:4629  and(mload(add(tablePtr, and(        input , 0xFF))), 0xFF) */\n      and\n        /* \"base64-sol/base64.sol\":4532:4536  0xFF */\n      0xff\n        /* \"base64-sol/base64.sol\":4523:4527  0xFF */\n      dup1\n        /* \"base64-sol/base64.sol\":4515:4520  input */\n      dup4\n        /* \"base64-sol/base64.sol\":4512:4513  8 */\n      0x08\n        /* \"base64-sol/base64.sol\":4507:4521  shr( 8, input) */\n      shr\n        /* \"base64-sol/base64.sol\":4503:4528  and(shr( 8, input), 0xFF) */\n      and\n        /* \"base64-sol/base64.sol\":4493:4501  tablePtr */\n      dup8\n        /* \"base64-sol/base64.sol\":4489:4529  add(tablePtr, and(shr( 8, input), 0xFF)) */\n      add\n        /* \"base64-sol/base64.sol\":4483:4530  mload(add(tablePtr, and(shr( 8, input), 0xFF))) */\n      mload\n        /* \"base64-sol/base64.sol\":4479:4537  and(mload(add(tablePtr, and(shr( 8, input), 0xFF))), 0xFF) */\n      and\n        /* \"base64-sol/base64.sol\":4476:4477  6 */\n      0x06\n        /* \"base64-sol/base64.sol\":4471:4538  shl( 6, and(mload(add(tablePtr, and(shr( 8, input), 0xFF))), 0xFF)) */\n      shl\n        /* \"base64-sol/base64.sol\":4443:4651  add(... */\n      add\n        /* \"base64-sol/base64.sol\":4415:4419  0xFF */\n      0xff\n        /* \"base64-sol/base64.sol\":4406:4410  0xFF */\n      dup1\n        /* \"base64-sol/base64.sol\":4398:4403  input */\n      dup4\n        /* \"base64-sol/base64.sol\":4394:4396  16 */\n      0x10\n        /* \"base64-sol/base64.sol\":4390:4404  shr(16, input) */\n      shr\n        /* \"base64-sol/base64.sol\":4386:4411  and(shr(16, input), 0xFF) */\n      and\n        /* \"base64-sol/base64.sol\":4376:4384  tablePtr */\n      dup8\n        /* \"base64-sol/base64.sol\":4372:4412  add(tablePtr, and(shr(16, input), 0xFF)) */\n      add\n        /* \"base64-sol/base64.sol\":4366:4413  mload(add(tablePtr, and(shr(16, input), 0xFF))) */\n      mload\n        /* \"base64-sol/base64.sol\":4362:4420  and(mload(add(tablePtr, and(shr(16, input), 0xFF))), 0xFF) */\n      and\n        /* \"base64-sol/base64.sol\":4358:4360  12 */\n      0x0c\n        /* \"base64-sol/base64.sol\":4354:4421  shl(12, and(mload(add(tablePtr, and(shr(16, input), 0xFF))), 0xFF)) */\n      shl\n        /* \"base64-sol/base64.sol\":4323:4327  0xFF */\n      0xff\n        /* \"base64-sol/base64.sol\":4314:4318  0xFF */\n      dup1\n        /* \"base64-sol/base64.sol\":4306:4311  input */\n      dup5\n        /* \"base64-sol/base64.sol\":4302:4304  24 */\n      0x18\n        /* \"base64-sol/base64.sol\":4298:4312  shr(24, input) */\n      shr\n        /* \"base64-sol/base64.sol\":4294:4319  and(shr(24, input), 0xFF) */\n      and\n        /* \"base64-sol/base64.sol\":4284:4292  tablePtr */\n      dup9\n        /* \"base64-sol/base64.sol\":4280:4320  add(tablePtr, and(shr(24, input), 0xFF)) */\n      add\n        /* \"base64-sol/base64.sol\":4274:4321  mload(add(tablePtr, and(shr(24, input), 0xFF))) */\n      mload\n        /* \"base64-sol/base64.sol\":4270:4328  and(mload(add(tablePtr, and(shr(24, input), 0xFF))), 0xFF) */\n      and\n        /* \"base64-sol/base64.sol\":4266:4268  18 */\n      0x12\n        /* \"base64-sol/base64.sol\":4262:4329  shl(18, and(mload(add(tablePtr, and(shr(24, input), 0xFF))), 0xFF)) */\n      shl\n        /* \"base64-sol/base64.sol\":4234:4422  add(... */\n      add\n        /* \"base64-sol/base64.sol\":4210:4669  add(... */\n      add\n        /* \"base64-sol/base64.sol\":4713:4719  output */\n      dup1\n        /* \"base64-sol/base64.sol\":4708:4711  232 */\n      0xe8\n        /* \"base64-sol/base64.sol\":4704:4720  shl(232, output) */\n      shl\n        /* \"base64-sol/base64.sol\":4693:4702  resultPtr */\n      dup4\n        /* \"base64-sol/base64.sol\":4686:4721  mstore(resultPtr, shl(232, output)) */\n      mstore\n        /* \"base64-sol/base64.sol\":4766:4767  3 */\n      0x03\n        /* \"base64-sol/base64.sol\":4755:4764  resultPtr */\n      dup4\n        /* \"base64-sol/base64.sol\":4751:4768  add(resultPtr, 3) */\n      add\n        /* \"base64-sol/base64.sol\":4738:4768  resultPtr := add(resultPtr, 3) */\n      swap3\n      pop\n        /* \"base64-sol/base64.sol\":4025:4782  {... */\n      pop\n      pop\n        /* \"base64-sol/base64.sol\":3983:4782  for {} lt(dataPtr, endPtr) {}... */\n      jump(tag_76)\n    tag_78:\n        /* \"base64-sol/base64.sol\":3214:4792  {... */\n      pop\n      pop\n      pop\n      pop\n      pop\n        /* \"base64-sol/base64.sol\":4809:4815  result */\n      dup1\n        /* \"base64-sol/base64.sol\":4802:4815  return result */\n      swap5\n      pop\n      pop\n      pop\n      pop\n      pop\n        /* \"base64-sol/base64.sol\":2644:4822  function decode(string memory _data) internal pure returns (bytes memory) {... */\n    tag_54:\n      swap2\n      swap1\n      pop\n      jump\t// out\n        /* \"#utility.yul\":88:205   */\n    tag_80:\n        /* \"#utility.yul\":197:198   */\n      0x00\n        /* \"#utility.yul\":194:195   */\n      dup1\n        /* \"#utility.yul\":187:199   */\n      revert\n        /* \"#utility.yul\":211:328   */\n    tag_81:\n        /* \"#utility.yul\":320:321   */\n      0x00\n        /* \"#utility.yul\":317:318   */\n      dup1\n        /* \"#utility.yul\":310:322   */\n      revert\n        /* \"#utility.yul\":334:411   */\n    tag_82:\n        /* \"#utility.yul\":371:378   */\n      0x00\n        /* \"#utility.yul\":400:405   */\n      dup2\n        /* \"#utility.yul\":389:405   */\n      swap1\n      pop\n        /* \"#utility.yul\":334:411   */\n      swap2\n      swap1\n      pop\n      jump\t// out\n        /* \"#utility.yul\":417:539   */\n    tag_83:\n        /* \"#utility.yul\":490:514   */\n      tag_133\n        /* \"#utility.yul\":508:513   */\n      dup2\n        /* \"#utility.yul\":490:514   */\n      tag_82\n      jump\t// in\n    tag_133:\n        /* \"#utility.yul\":483:488   */\n      dup2\n        /* \"#utility.yul\":480:515   */\n      eq\n        /* \"#utility.yul\":470:533   */\n      tag_134\n      jumpi\n        /* \"#utility.yul\":529:530   */\n      0x00\n        /* \"#utility.yul\":526:527   */\n      dup1\n        /* \"#utility.yul\":519:531   */\n      revert\n        /* \"#utility.yul\":470:533   */\n    tag_134:\n        /* \"#utility.yul\":417:539   */\n      pop\n      jump\t// out\n        /* \"#utility.yul\":545:684   */\n    tag_84:\n        /* \"#utility.yul\":591:596   */\n      0x00\n        /* \"#utility.yul\":629:635   */\n      dup2\n        /* \"#utility.yul\":616:636   */\n      calldataload\n        /* \"#utility.yul\":607:636   */\n      swap1\n      pop\n        /* \"#utility.yul\":645:678   */\n      tag_136\n        /* \"#utility.yul\":672:677   */\n      dup2\n        /* \"#utility.yul\":645:678   */\n      tag_83\n      jump\t// in\n    tag_136:\n        /* \"#utility.yul\":545:684   */\n      swap3\n      swap2\n      pop\n      pop\n      jump\t// out\n        /* \"#utility.yul\":690:1019   */\n    tag_10:\n        /* \"#utility.yul\":749:755   */\n      0x00\n        /* \"#utility.yul\":798:800   */\n      0x20\n        /* \"#utility.yul\":786:795   */\n      dup3\n        /* \"#utility.yul\":777:784   */\n      dup5\n        /* \"#utility.yul\":773:796   */\n      sub\n        /* \"#utility.yul\":769:801   */\n      slt\n        /* \"#utility.yul\":766:885   */\n      iszero\n      tag_138\n      jumpi\n        /* \"#utility.yul\":804:883   */\n      tag_139\n      tag_80\n      jump\t// in\n    tag_139:\n        /* \"#utility.yul\":766:885   */\n    tag_138:\n        /* \"#utility.yul\":924:925   */\n      0x00\n        /* \"#utility.yul\":949:1002   */\n      tag_140\n        /* \"#utility.yul\":994:1001   */\n      dup5\n        /* \"#utility.yul\":985:991   */\n      dup3\n        /* \"#utility.yul\":974:983   */\n      dup6\n        /* \"#utility.yul\":970:992   */\n      add\n        /* \"#utility.yul\":949:1002   */\n      tag_84\n      jump\t// in\n    tag_140:\n        /* \"#utility.yul\":939:1002   */\n      swap2\n      pop\n        /* \"#utility.yul\":895:1012   */\n      pop\n        /* \"#utility.yul\":690:1019   */\n      swap3\n      swap2\n      pop\n      pop\n      jump\t// out\n        /* \"#utility.yul\":1025:1143   */\n    tag_85:\n        /* \"#utility.yul\":1112:1136   */\n      tag_142\n        /* \"#utility.yul\":1130:1135   */\n      dup2\n        /* \"#utility.yul\":1112:1136   */\n      tag_82\n      jump\t// in\n    tag_142:\n        /* \"#utility.yul\":1107:1110   */\n      dup3\n        /* \"#utility.yul\":1100:1137   */\n      mstore\n        /* \"#utility.yul\":1025:1143   */\n      pop\n      pop\n      jump\t// out\n        /* \"#utility.yul\":1149:1226   */\n    tag_86:\n        /* \"#utility.yul\":1186:1193   */\n      0x00\n        /* \"#utility.yul\":1215:1220   */\n      dup2\n        /* \"#utility.yul\":1204:1220   */\n      swap1\n      pop\n        /* \"#utility.yul\":1149:1226   */\n      swap2\n      swap1\n      pop\n      jump\t// out\n        /* \"#utility.yul\":1232:1340   */\n    tag_87:\n        /* \"#utility.yul\":1309:1333   */\n      tag_145\n        /* \"#utility.yul\":1327:1332   */\n      dup2\n        /* \"#utility.yul\":1309:1333   */\n      tag_86\n      jump\t// in\n    tag_145:\n        /* \"#utility.yul\":1304:1307   */\n      dup3\n        /* \"#utility.yul\":1297:1334   */\n      mstore\n        /* \"#utility.yul\":1232:1340   */\n      pop\n      pop\n      jump\t// out\n        /* \"#utility.yul\":1410:1932   */\n    tag_88:\n        /* \"#utility.yul\":1565:1569   */\n      0x40\n        /* \"#utility.yul\":1560:1563   */\n      dup3\n        /* \"#utility.yul\":1556:1570   */\n      add\n        /* \"#utility.yul\":1655:1659   */\n      0x00\n        /* \"#utility.yul\":1648:1653   */\n      dup3\n        /* \"#utility.yul\":1644:1660   */\n      add\n        /* \"#utility.yul\":1638:1661   */\n      mload\n        /* \"#utility.yul\":1674:1737   */\n      tag_147\n        /* \"#utility.yul\":1731:1735   */\n      0x00\n        /* \"#utility.yul\":1726:1729   */\n      dup6\n        /* \"#utility.yul\":1722:1736   */\n      add\n        /* \"#utility.yul\":1708:1720   */\n      dup3\n        /* \"#utility.yul\":1674:1737   */\n      tag_87\n      jump\t// in\n    tag_147:\n        /* \"#utility.yul\":1580:1747   */\n      pop\n        /* \"#utility.yul\":1833:1837   */\n      0x20\n        /* \"#utility.yul\":1826:1831   */\n      dup3\n        /* \"#utility.yul\":1822:1838   */\n      add\n        /* \"#utility.yul\":1816:1839   */\n      mload\n        /* \"#utility.yul\":1852:1915   */\n      tag_148\n        /* \"#utility.yul\":1909:1913   */\n      0x20\n        /* \"#utility.yul\":1904:1907   */\n      dup6\n        /* \"#utility.yul\":1900:1914   */\n      add\n        /* \"#utility.yul\":1886:1898   */\n      dup3\n        /* \"#utility.yul\":1852:1915   */\n      tag_87\n      jump\t// in\n    tag_148:\n        /* \"#utility.yul\":1757:1925   */\n      pop\n        /* \"#utility.yul\":1534:1932   */\n      pop\n        /* \"#utility.yul\":1410:1932   */\n      pop\n      pop\n      jump\t// out\n        /* \"#utility.yul\":1938:2028   */\n    tag_89:\n        /* \"#utility.yul\":1972:1979   */\n      0x00\n        /* \"#utility.yul\":2015:2020   */\n      dup2\n        /* \"#utility.yul\":2008:2021   */\n      iszero\n        /* \"#utility.yul\":2001:2022   */\n      iszero\n        /* \"#utility.yul\":1990:2022   */\n      swap1\n      pop\n        /* \"#utility.yul\":1938:2028   */\n      swap2\n      swap1\n      pop\n      jump\t// out\n        /* \"#utility.yul\":2034:2143   */\n    tag_90:\n        /* \"#utility.yul\":2115:2136   */\n      tag_151\n        /* \"#utility.yul\":2130:2135   */\n      dup2\n        /* \"#utility.yul\":2115:2136   */\n      tag_89\n      jump\t// in\n    tag_151:\n        /* \"#utility.yul\":2110:2113   */\n      dup3\n        /* \"#utility.yul\":2103:2137   */\n      mstore\n        /* \"#utility.yul\":2034:2143   */\n      pop\n      pop\n      jump\t// out\n        /* \"#utility.yul\":2149:2696   */\n    tag_13:\n        /* \"#utility.yul\":2350:2354   */\n      0x00\n        /* \"#utility.yul\":2388:2391   */\n      0x80\n        /* \"#utility.yul\":2377:2386   */\n      dup3\n        /* \"#utility.yul\":2373:2392   */\n      add\n        /* \"#utility.yul\":2365:2392   */\n      swap1\n      pop\n        /* \"#utility.yul\":2402:2473   */\n      tag_153\n        /* \"#utility.yul\":2470:2471   */\n      0x00\n        /* \"#utility.yul\":2459:2468   */\n      dup4\n        /* \"#utility.yul\":2455:2472   */\n      add\n        /* \"#utility.yul\":2446:2452   */\n      dup7\n        /* \"#utility.yul\":2402:2473   */\n      tag_85\n      jump\t// in\n    tag_153:\n        /* \"#utility.yul\":2483:2613   */\n      tag_154\n        /* \"#utility.yul\":2609:2611   */\n      0x20\n        /* \"#utility.yul\":2598:2607   */\n      dup4\n        /* \"#utility.yul\":2594:2612   */\n      add\n        /* \"#utility.yul\":2585:2591   */\n      dup6\n        /* \"#utility.yul\":2483:2613   */\n      tag_88\n      jump\t// in\n    tag_154:\n        /* \"#utility.yul\":2623:2689   */\n      tag_155\n        /* \"#utility.yul\":2685:2687   */\n      0x60\n        /* \"#utility.yul\":2674:2683   */\n      dup4\n        /* \"#utility.yul\":2670:2688   */\n      add\n        /* \"#utility.yul\":2661:2667   */\n      dup5\n        /* \"#utility.yul\":2623:2689   */\n      tag_90\n      jump\t// in\n    tag_155:\n        /* \"#utility.yul\":2149:2696   */\n      swap5\n      swap4\n      pop\n      pop\n      pop\n      pop\n      jump\t// out\n        /* \"#utility.yul\":2702:2828   */\n    tag_91:\n        /* \"#utility.yul\":2739:2746   */\n      0x00\n        /* \"#utility.yul\":2779:2821   */\n      0xffffffffffffffffffffffffffffffffffffffff\n        /* \"#utility.yul\":2772:2777   */\n      dup3\n        /* \"#utility.yul\":2768:2822   */\n      and\n        /* \"#utility.yul\":2757:2822   */\n      swap1\n      pop\n        /* \"#utility.yul\":2702:2828   */\n      swap2\n      swap1\n      pop\n      jump\t// out\n        /* \"#utility.yul\":2834:2930   */\n    tag_92:\n        /* \"#utility.yul\":2871:2878   */\n      0x00\n        /* \"#utility.yul\":2900:2924   */\n      tag_158\n        /* \"#utility.yul\":2918:2923   */\n      dup3\n        /* \"#utility.yul\":2900:2924   */\n      tag_91\n      jump\t// in\n    tag_158:\n        /* \"#utility.yul\":2889:2924   */\n      swap1\n      pop\n        /* \"#utility.yul\":2834:2930   */\n      swap2\n      swap1\n      pop\n      jump\t// out\n        /* \"#utility.yul\":2936:3054   */\n    tag_93:\n        /* \"#utility.yul\":3023:3047   */\n      tag_160\n        /* \"#utility.yul\":3041:3046   */\n      dup2\n        /* \"#utility.yul\":3023:3047   */\n      tag_92\n      jump\t// in\n    tag_160:\n        /* \"#utility.yul\":3018:3021   */\n      dup3\n        /* \"#utility.yul\":3011:3048   */\n      mstore\n        /* \"#utility.yul\":2936:3054   */\n      pop\n      pop\n      jump\t// out\n        /* \"#utility.yul\":3060:3282   */\n    tag_17:\n        /* \"#utility.yul\":3153:3157   */\n      0x00\n        /* \"#utility.yul\":3191:3193   */\n      0x20\n        /* \"#utility.yul\":3180:3189   */\n      dup3\n        /* \"#utility.yul\":3176:3194   */\n      add\n        /* \"#utility.yul\":3168:3194   */\n      swap1\n      pop\n        /* \"#utility.yul\":3204:3275   */\n      tag_162\n        /* \"#utility.yul\":3272:3273   */\n      0x00\n        /* \"#utility.yul\":3261:3270   */\n      dup4\n        /* \"#utility.yul\":3257:3274   */\n      add\n        /* \"#utility.yul\":3248:3254   */\n      dup5\n        /* \"#utility.yul\":3204:3275   */\n      tag_93\n      jump\t// in\n    tag_162:\n        /* \"#utility.yul\":3060:3282   */\n      swap3\n      swap2\n      pop\n      pop\n      jump\t// out\n        /* \"#utility.yul\":3288:3405   */\n    tag_94:\n        /* \"#utility.yul\":3397:3398   */\n      0x00\n        /* \"#utility.yul\":3394:3395   */\n      dup1\n        /* \"#utility.yul\":3387:3399   */\n      revert\n        /* \"#utility.yul\":3411:3528   */\n    tag_95:\n        /* \"#utility.yul\":3520:3521   */\n      0x00\n        /* \"#utility.yul\":3517:3518   */\n      dup1\n        /* \"#utility.yul\":3510:3522   */\n      revert\n        /* \"#utility.yul\":3534:3651   */\n    tag_96:\n        /* \"#utility.yul\":3643:3644   */\n      0x00\n        /* \"#utility.yul\":3640:3641   */\n      dup1\n        /* \"#utility.yul\":3633:3645   */\n      revert\n        /* \"#utility.yul\":3689:4284   */\n    tag_97:\n        /* \"#utility.yul\":3789:3797   */\n      0x00\n        /* \"#utility.yul\":3799:3805   */\n      dup1\n        /* \"#utility.yul\":3849:3852   */\n      dup4\n        /* \"#utility.yul\":3842:3846   */\n      0x1f\n        /* \"#utility.yul\":3834:3840   */\n      dup5\n        /* \"#utility.yul\":3830:3847   */\n      add\n        /* \"#utility.yul\":3826:3853   */\n      slt\n        /* \"#utility.yul\":3816:3938   */\n      tag_167\n      jumpi\n        /* \"#utility.yul\":3857:3936   */\n      tag_168\n      tag_94\n      jump\t// in\n    tag_168:\n        /* \"#utility.yul\":3816:3938   */\n    tag_167:\n        /* \"#utility.yul\":3970:3976   */\n      dup3\n        /* \"#utility.yul\":3957:3977   */\n      calldataload\n        /* \"#utility.yul\":3947:3977   */\n      swap1\n      pop\n        /* \"#utility.yul\":4000:4018   */\n      0xffffffffffffffff\n        /* \"#utility.yul\":3992:3998   */\n      dup2\n        /* \"#utility.yul\":3989:4019   */\n      gt\n        /* \"#utility.yul\":3986:4103   */\n      iszero\n      tag_169\n      jumpi\n        /* \"#utility.yul\":4022:4101   */\n      tag_170\n      tag_95\n      jump\t// in\n    tag_170:\n        /* \"#utility.yul\":3986:4103   */\n    tag_169:\n        /* \"#utility.yul\":4136:4140   */\n      0x20\n        /* \"#utility.yul\":4128:4134   */\n      dup4\n        /* \"#utility.yul\":4124:4141   */\n      add\n        /* \"#utility.yul\":4112:4141   */\n      swap2\n      pop\n        /* \"#utility.yul\":4190:4193   */\n      dup4\n        /* \"#utility.yul\":4182:4186   */\n      0x40\n        /* \"#utility.yul\":4174:4180   */\n      dup3\n        /* \"#utility.yul\":4170:4187   */\n      mul\n        /* \"#utility.yul\":4160:4168   */\n      dup4\n        /* \"#utility.yul\":4156:4188   */\n      add\n        /* \"#utility.yul\":4153:4194   */\n      gt\n        /* \"#utility.yul\":4150:4278   */\n      iszero\n      tag_171\n      jumpi\n        /* \"#utility.yul\":4197:4276   */\n      tag_172\n      tag_96\n      jump\t// in\n    tag_172:\n        /* \"#utility.yul\":4150:4278   */\n    tag_171:\n        /* \"#utility.yul\":3689:4284   */\n      swap3\n      pop\n      swap3\n      swap1\n      pop\n      jump\t// out\n        /* \"#utility.yul\":4290:4412   */\n    tag_98:\n        /* \"#utility.yul\":4363:4387   */\n      tag_174\n        /* \"#utility.yul\":4381:4386   */\n      dup2\n        /* \"#utility.yul\":4363:4387   */\n      tag_86\n      jump\t// in\n    tag_174:\n        /* \"#utility.yul\":4356:4361   */\n      dup2\n        /* \"#utility.yul\":4353:4388   */\n      eq\n        /* \"#utility.yul\":4343:4406   */\n      tag_175\n      jumpi\n        /* \"#utility.yul\":4402:4403   */\n      0x00\n        /* \"#utility.yul\":4399:4400   */\n      dup1\n        /* \"#utility.yul\":4392:4404   */\n      revert\n        /* \"#utility.yul\":4343:4406   */\n    tag_175:\n        /* \"#utility.yul\":4290:4412   */\n      pop\n      jump\t// out\n        /* \"#utility.yul\":4418:4557   */\n    tag_99:\n        /* \"#utility.yul\":4464:4469   */\n      0x00\n        /* \"#utility.yul\":4502:4508   */\n      dup2\n        /* \"#utility.yul\":4489:4509   */\n      calldataload\n        /* \"#utility.yul\":4480:4509   */\n      swap1\n      pop\n        /* \"#utility.yul\":4518:4551   */\n      tag_177\n        /* \"#utility.yul\":4545:4550   */\n      dup2\n        /* \"#utility.yul\":4518:4551   */\n      tag_98\n      jump\t// in\n    tag_177:\n        /* \"#utility.yul\":4418:4557   */\n      swap3\n      swap2\n      pop\n      pop\n      jump\t// out\n        /* \"#utility.yul\":4563:5612   */\n    tag_20:\n        /* \"#utility.yul\":4703:4709   */\n      0x00\n        /* \"#utility.yul\":4711:4717   */\n      dup1\n        /* \"#utility.yul\":4719:4725   */\n      0x00\n        /* \"#utility.yul\":4727:4733   */\n      dup1\n        /* \"#utility.yul\":4735:4741   */\n      0x00\n        /* \"#utility.yul\":4784:4787   */\n      0x80\n        /* \"#utility.yul\":4772:4781   */\n      dup7\n        /* \"#utility.yul\":4763:4770   */\n      dup9\n        /* \"#utility.yul\":4759:4782   */\n      sub\n        /* \"#utility.yul\":4755:4788   */\n      slt\n        /* \"#utility.yul\":4752:4872   */\n      iszero\n      tag_179\n      jumpi\n        /* \"#utility.yul\":4791:4870   */\n      tag_180\n      tag_80\n      jump\t// in\n    tag_180:\n        /* \"#utility.yul\":4752:4872   */\n    tag_179:\n        /* \"#utility.yul\":4911:4912   */\n      0x00\n        /* \"#utility.yul\":4936:4989   */\n      tag_181\n        /* \"#utility.yul\":4981:4988   */\n      dup9\n        /* \"#utility.yul\":4972:4978   */\n      dup3\n        /* \"#utility.yul\":4961:4970   */\n      dup10\n        /* \"#utility.yul\":4957:4979   */\n      add\n        /* \"#utility.yul\":4936:4989   */\n      tag_84\n      jump\t// in\n    tag_181:\n        /* \"#utility.yul\":4926:4989   */\n      swap6\n      pop\n        /* \"#utility.yul\":4882:4999   */\n      pop\n        /* \"#utility.yul\":5066:5068   */\n      0x20\n        /* \"#utility.yul\":5055:5064   */\n      dup7\n        /* \"#utility.yul\":5051:5069   */\n      add\n        /* \"#utility.yul\":5038:5070   */\n      calldataload\n        /* \"#utility.yul\":5097:5115   */\n      0xffffffffffffffff\n        /* \"#utility.yul\":5089:5095   */\n      dup2\n        /* \"#utility.yul\":5086:5116   */\n      gt\n        /* \"#utility.yul\":5083:5200   */\n      iszero\n      tag_182\n      jumpi\n        /* \"#utility.yul\":5119:5198   */\n      tag_183\n      tag_81\n      jump\t// in\n    tag_183:\n        /* \"#utility.yul\":5083:5200   */\n    tag_182:\n        /* \"#utility.yul\":5232:5339   */\n      tag_184\n        /* \"#utility.yul\":5331:5338   */\n      dup9\n        /* \"#utility.yul\":5322:5328   */\n      dup3\n        /* \"#utility.yul\":5311:5320   */\n      dup10\n        /* \"#utility.yul\":5307:5329   */\n      add\n        /* \"#utility.yul\":5232:5339   */\n      tag_97\n      jump\t// in\n    tag_184:\n        /* \"#utility.yul\":5214:5339   */\n      swap5\n      pop\n      swap5\n      pop\n        /* \"#utility.yul\":5009:5349   */\n      pop\n        /* \"#utility.yul\":5388:5390   */\n      0x40\n        /* \"#utility.yul\":5414:5467   */\n      tag_185\n        /* \"#utility.yul\":5459:5466   */\n      dup9\n        /* \"#utility.yul\":5450:5456   */\n      dup3\n        /* \"#utility.yul\":5439:5448   */\n      dup10\n        /* \"#utility.yul\":5435:5457   */\n      add\n        /* \"#utility.yul\":5414:5467   */\n      tag_99\n      jump\t// in\n    tag_185:\n        /* \"#utility.yul\":5404:5467   */\n      swap3\n      pop\n        /* \"#utility.yul\":5359:5477   */\n      pop\n        /* \"#utility.yul\":5516:5518   */\n      0x60\n        /* \"#utility.yul\":5542:5595   */\n      tag_186\n        /* \"#utility.yul\":5587:5594   */\n      dup9\n        /* \"#utility.yul\":5578:5584   */\n      dup3\n        /* \"#utility.yul\":5567:5576   */\n      dup10\n        /* \"#utility.yul\":5563:5585   */\n      add\n        /* \"#utility.yul\":5542:5595   */\n      tag_99\n      jump\t// in\n    tag_186:\n        /* \"#utility.yul\":5532:5595   */\n      swap2\n      pop\n        /* \"#utility.yul\":5487:5605   */\n      pop\n        /* \"#utility.yul\":4563:5612   */\n      swap3\n      swap6\n      pop\n      swap3\n      swap6\n      swap1\n      swap4\n      pop\n      jump\t// out\n        /* \"#utility.yul\":5618:5736   */\n    tag_100:\n        /* \"#utility.yul\":5705:5729   */\n      tag_188\n        /* \"#utility.yul\":5723:5728   */\n      dup2\n        /* \"#utility.yul\":5705:5729   */\n      tag_86\n      jump\t// in\n    tag_188:\n        /* \"#utility.yul\":5700:5703   */\n      dup3\n        /* \"#utility.yul\":5693:5730   */\n      mstore\n        /* \"#utility.yul\":5618:5736   */\n      pop\n      pop\n      jump\t// out\n        /* \"#utility.yul\":5742:6074   */\n    tag_26:\n        /* \"#utility.yul\":5863:5867   */\n      0x00\n        /* \"#utility.yul\":5901:5903   */\n      0x40\n        /* \"#utility.yul\":5890:5899   */\n      dup3\n        /* \"#utility.yul\":5886:5904   */\n      add\n        /* \"#utility.yul\":5878:5904   */\n      swap1\n      pop\n        /* \"#utility.yul\":5914:5985   */\n      tag_190\n        /* \"#utility.yul\":5982:5983   */\n      0x00\n        /* \"#utility.yul\":5971:5980   */\n      dup4\n        /* \"#utility.yul\":5967:5984   */\n      add\n        /* \"#utility.yul\":5958:5964   */\n      dup6\n        /* \"#utility.yul\":5914:5985   */\n      tag_100\n      jump\t// in\n    tag_190:\n        /* \"#utility.yul\":5995:6067   */\n      tag_191\n        /* \"#utility.yul\":6063:6065   */\n      0x20\n        /* \"#utility.yul\":6052:6061   */\n      dup4\n        /* \"#utility.yul\":6048:6066   */\n      add\n        /* \"#utility.yul\":6039:6045   */\n      dup5\n        /* \"#utility.yul\":5995:6067   */\n      tag_100\n      jump\t// in\n    tag_191:\n        /* \"#utility.yul\":5742:6074   */\n      swap4\n      swap3\n      pop\n      pop\n      pop\n      jump\t// out\n        /* \"#utility.yul\":6094:6647   */\n    tag_101:\n        /* \"#utility.yul\":6152:6160   */\n      0x00\n        /* \"#utility.yul\":6162:6168   */\n      dup1\n        /* \"#utility.yul\":6212:6215   */\n      dup4\n        /* \"#utility.yul\":6205:6209   */\n      0x1f\n        /* \"#utility.yul\":6197:6203   */\n      dup5\n        /* \"#utility.yul\":6193:6210   */\n      add\n        /* \"#utility.yul\":6189:6216   */\n      slt\n        /* \"#utility.yul\":6179:6301   */\n      tag_193\n      jumpi\n        /* \"#utility.yul\":6220:6299   */\n      tag_194\n      tag_94\n      jump\t// in\n    tag_194:\n        /* \"#utility.yul\":6179:6301   */\n    tag_193:\n        /* \"#utility.yul\":6333:6339   */\n      dup3\n        /* \"#utility.yul\":6320:6340   */\n      calldataload\n        /* \"#utility.yul\":6310:6340   */\n      swap1\n      pop\n        /* \"#utility.yul\":6363:6381   */\n      0xffffffffffffffff\n        /* \"#utility.yul\":6355:6361   */\n      dup2\n        /* \"#utility.yul\":6352:6382   */\n      gt\n        /* \"#utility.yul\":6349:6466   */\n      iszero\n      tag_195\n      jumpi\n        /* \"#utility.yul\":6385:6464   */\n      tag_196\n      tag_95\n      jump\t// in\n    tag_196:\n        /* \"#utility.yul\":6349:6466   */\n    tag_195:\n        /* \"#utility.yul\":6499:6503   */\n      0x20\n        /* \"#utility.yul\":6491:6497   */\n      dup4\n        /* \"#utility.yul\":6487:6504   */\n      add\n        /* \"#utility.yul\":6475:6504   */\n      swap2\n      pop\n        /* \"#utility.yul\":6553:6556   */\n      dup4\n        /* \"#utility.yul\":6545:6549   */\n      0x01\n        /* \"#utility.yul\":6537:6543   */\n      dup3\n        /* \"#utility.yul\":6533:6550   */\n      mul\n        /* \"#utility.yul\":6523:6531   */\n      dup4\n        /* \"#utility.yul\":6519:6551   */\n      add\n        /* \"#utility.yul\":6516:6557   */\n      gt\n        /* \"#utility.yul\":6513:6641   */\n      iszero\n      tag_197\n      jumpi\n        /* \"#utility.yul\":6560:6639   */\n      tag_198\n      tag_96\n      jump\t// in\n    tag_198:\n        /* \"#utility.yul\":6513:6641   */\n    tag_197:\n        /* \"#utility.yul\":6094:6647   */\n      swap3\n      pop\n      swap3\n      swap1\n      pop\n      jump\t// out\n        /* \"#utility.yul\":6653:7182   */\n    tag_29:\n        /* \"#utility.yul\":6724:6730   */\n      0x00\n        /* \"#utility.yul\":6732:6738   */\n      dup1\n        /* \"#utility.yul\":6781:6783   */\n      0x20\n        /* \"#utility.yul\":6769:6778   */\n      dup4\n        /* \"#utility.yul\":6760:6767   */\n      dup6\n        /* \"#utility.yul\":6756:6779   */\n      sub\n        /* \"#utility.yul\":6752:6784   */\n      slt\n        /* \"#utility.yul\":6749:6868   */\n      iszero\n      tag_200\n      jumpi\n        /* \"#utility.yul\":6787:6866   */\n      tag_201\n      tag_80\n      jump\t// in\n    tag_201:\n        /* \"#utility.yul\":6749:6868   */\n    tag_200:\n        /* \"#utility.yul\":6935:6936   */\n      0x00\n        /* \"#utility.yul\":6924:6933   */\n      dup4\n        /* \"#utility.yul\":6920:6937   */\n      add\n        /* \"#utility.yul\":6907:6938   */\n      calldataload\n        /* \"#utility.yul\":6965:6983   */\n      0xffffffffffffffff\n        /* \"#utility.yul\":6957:6963   */\n      dup2\n        /* \"#utility.yul\":6954:6984   */\n      gt\n        /* \"#utility.yul\":6951:7068   */\n      iszero\n      tag_202\n      jumpi\n        /* \"#utility.yul\":6987:7066   */\n      tag_203\n      tag_81\n      jump\t// in\n    tag_203:\n        /* \"#utility.yul\":6951:7068   */\n    tag_202:\n        /* \"#utility.yul\":7100:7165   */\n      tag_204\n        /* \"#utility.yul\":7157:7164   */\n      dup6\n        /* \"#utility.yul\":7148:7154   */\n      dup3\n        /* \"#utility.yul\":7137:7146   */\n      dup7\n        /* \"#utility.yul\":7133:7155   */\n      add\n        /* \"#utility.yul\":7100:7165   */\n      tag_101\n      jump\t// in\n    tag_204:\n        /* \"#utility.yul\":7082:7165   */\n      swap3\n      pop\n      swap3\n      pop\n        /* \"#utility.yul\":6878:7175   */\n      pop\n        /* \"#utility.yul\":6653:7182   */\n      swap3\n      pop\n      swap3\n      swap1\n      pop\n      jump\t// out\n        /* \"#utility.yul\":7188:7357   */\n    tag_102:\n        /* \"#utility.yul\":7272:7283   */\n      0x00\n        /* \"#utility.yul\":7306:7312   */\n      dup3\n        /* \"#utility.yul\":7301:7304   */\n      dup3\n        /* \"#utility.yul\":7294:7313   */\n      mstore\n        /* \"#utility.yul\":7346:7350   */\n      0x20\n        /* \"#utility.yul\":7341:7344   */\n      dup3\n        /* \"#utility.yul\":7337:7351   */\n      add\n        /* \"#utility.yul\":7322:7351   */\n      swap1\n      pop\n        /* \"#utility.yul\":7188:7357   */\n      swap3\n      swap2\n      pop\n      pop\n      jump\t// out\n        /* \"#utility.yul\":7363:7544   */\n    tag_103:\n        /* \"#utility.yul\":7503:7536   */\n      0x486173206e6f20726967687420746f2063726561746520656c656374696f6e00\n        /* \"#utility.yul\":7499:7500   */\n      0x00\n        /* \"#utility.yul\":7491:7497   */\n      dup3\n        /* \"#utility.yul\":7487:7501   */\n      add\n        /* \"#utility.yul\":7480:7537   */\n      mstore\n        /* \"#utility.yul\":7363:7544   */\n      pop\n      jump\t// out\n        /* \"#utility.yul\":7550:7916   */\n    tag_104:\n        /* \"#utility.yul\":7692:7695   */\n      0x00\n        /* \"#utility.yul\":7713:7780   */\n      tag_208\n        /* \"#utility.yul\":7777:7779   */\n      0x1f\n        /* \"#utility.yul\":7772:7775   */\n      dup4\n        /* \"#utility.yul\":7713:7780   */\n      tag_102\n      jump\t// in\n    tag_208:\n        /* \"#utility.yul\":7706:7780   */\n      swap2\n      pop\n        /* \"#utility.yul\":7789:7882   */\n      tag_209\n        /* \"#utility.yul\":7878:7881   */\n      dup3\n        /* \"#utility.yul\":7789:7882   */\n      tag_103\n      jump\t// in\n    tag_209:\n        /* \"#utility.yul\":7907:7909   */\n      0x20\n        /* \"#utility.yul\":7902:7905   */\n      dup3\n        /* \"#utility.yul\":7898:7910   */\n      add\n        /* \"#utility.yul\":7891:7910   */\n      swap1\n      pop\n        /* \"#utility.yul\":7550:7916   */\n      swap2\n      swap1\n      pop\n      jump\t// out\n        /* \"#utility.yul\":7922:8341   */\n    tag_34:\n        /* \"#utility.yul\":8088:8092   */\n      0x00\n        /* \"#utility.yul\":8126:8128   */\n      0x20\n        /* \"#utility.yul\":8115:8124   */\n      dup3\n        /* \"#utility.yul\":8111:8129   */\n      add\n        /* \"#utility.yul\":8103:8129   */\n      swap1\n      pop\n        /* \"#utility.yul\":8175:8184   */\n      dup2\n        /* \"#utility.yul\":8169:8173   */\n      dup2\n        /* \"#utility.yul\":8165:8185   */\n      sub\n        /* \"#utility.yul\":8161:8162   */\n      0x00\n        /* \"#utility.yul\":8150:8159   */\n      dup4\n        /* \"#utility.yul\":8146:8163   */\n      add\n        /* \"#utility.yul\":8139:8186   */\n      mstore\n        /* \"#utility.yul\":8203:8334   */\n      tag_211\n        /* \"#utility.yul\":8329:8333   */\n      dup2\n        /* \"#utility.yul\":8203:8334   */\n      tag_104\n      jump\t// in\n    tag_211:\n        /* \"#utility.yul\":8195:8334   */\n      swap1\n      pop\n        /* \"#utility.yul\":7922:8341   */\n      swap2\n      swap1\n      pop\n      jump\t// out\n        /* \"#utility.yul\":8347:8519   */\n    tag_105:\n        /* \"#utility.yul\":8487:8511   */\n      0x4e616d65206d7573742062652073706563696669656400000000000000000000\n        /* \"#utility.yul\":8483:8484   */\n      0x00\n        /* \"#utility.yul\":8475:8481   */\n      dup3\n        /* \"#utility.yul\":8471:8485   */\n      add\n        /* \"#utility.yul\":8464:8512   */\n      mstore\n        /* \"#utility.yul\":8347:8519   */\n      pop\n      jump\t// out\n        /* \"#utility.yul\":8525:8891   */\n    tag_106:\n        /* \"#utility.yul\":8667:8670   */\n      0x00\n        /* \"#utility.yul\":8688:8755   */\n      tag_214\n        /* \"#utility.yul\":8752:8754   */\n      0x16\n        /* \"#utility.yul\":8747:8750   */\n      dup4\n        /* \"#utility.yul\":8688:8755   */\n      tag_102\n      jump\t// in\n    tag_214:\n        /* \"#utility.yul\":8681:8755   */\n      swap2\n      pop\n        /* \"#utility.yul\":8764:8857   */\n      tag_215\n        /* \"#utility.yul\":8853:8856   */\n      dup3\n        /* \"#utility.yul\":8764:8857   */\n      tag_105\n      jump\t// in\n    tag_215:\n        /* \"#utility.yul\":8882:8884   */\n      0x20\n        /* \"#utility.yul\":8877:8880   */\n      dup3\n        /* \"#utility.yul\":8873:8885   */\n      add\n        /* \"#utility.yul\":8866:8885   */\n      swap1\n      pop\n        /* \"#utility.yul\":8525:8891   */\n      swap2\n      swap1\n      pop\n      jump\t// out\n        /* \"#utility.yul\":8897:9316   */\n    tag_37:\n        /* \"#utility.yul\":9063:9067   */\n      0x00\n        /* \"#utility.yul\":9101:9103   */\n      0x20\n        /* \"#utility.yul\":9090:9099   */\n      dup3\n        /* \"#utility.yul\":9086:9104   */\n      add\n        /* \"#utility.yul\":9078:9104   */\n      swap1\n      pop\n        /* \"#utility.yul\":9150:9159   */\n      dup2\n        /* \"#utility.yul\":9144:9148   */\n      dup2\n        /* \"#utility.yul\":9140:9160   */\n      sub\n        /* \"#utility.yul\":9136:9137   */\n      0x00\n        /* \"#utility.yul\":9125:9134   */\n      dup4\n        /* \"#utility.yul\":9121:9138   */\n      add\n        /* \"#utility.yul\":9114:9161   */\n      mstore\n        /* \"#utility.yul\":9178:9309   */\n      tag_217\n        /* \"#utility.yul\":9304:9308   */\n      dup2\n        /* \"#utility.yul\":9178:9309   */\n      tag_106\n      jump\t// in\n    tag_217:\n        /* \"#utility.yul\":9170:9309   */\n      swap1\n      pop\n        /* \"#utility.yul\":8897:9316   */\n      swap2\n      swap1\n      pop\n      jump\t// out\n        /* \"#utility.yul\":9322:9496   */\n    tag_107:\n        /* \"#utility.yul\":9462:9488   */\n      0x456c656374696f6e20616c726561647920637265617465640000000000000000\n        /* \"#utility.yul\":9458:9459   */\n      0x00\n        /* \"#utility.yul\":9450:9456   */\n      dup3\n        /* \"#utility.yul\":9446:9460   */\n      add\n        /* \"#utility.yul\":9439:9489   */\n      mstore\n        /* \"#utility.yul\":9322:9496   */\n      pop\n      jump\t// out\n        /* \"#utility.yul\":9502:9868   */\n    tag_108:\n        /* \"#utility.yul\":9644:9647   */\n      0x00\n        /* \"#utility.yul\":9665:9732   */\n      tag_220\n        /* \"#utility.yul\":9729:9731   */\n      0x18\n        /* \"#utility.yul\":9724:9727   */\n      dup4\n        /* \"#utility.yul\":9665:9732   */\n      tag_102\n      jump\t// in\n    tag_220:\n        /* \"#utility.yul\":9658:9732   */\n      swap2\n      pop\n        /* \"#utility.yul\":9741:9834   */\n      tag_221\n        /* \"#utility.yul\":9830:9833   */\n      dup3\n        /* \"#utility.yul\":9741:9834   */\n      tag_107\n      jump\t// in\n    tag_221:\n        /* \"#utility.yul\":9859:9861   */\n      0x20\n        /* \"#utility.yul\":9854:9857   */\n      dup3\n        /* \"#utility.yul\":9850:9862   */\n      add\n        /* \"#utility.yul\":9843:9862   */\n      swap1\n      pop\n        /* \"#utility.yul\":9502:9868   */\n      swap2\n      swap1\n      pop\n      jump\t// out\n        /* \"#utility.yul\":9874:10293   */\n    tag_40:\n        /* \"#utility.yul\":10040:10044   */\n      0x00\n        /* \"#utility.yul\":10078:10080   */\n      0x20\n        /* \"#utility.yul\":10067:10076   */\n      dup3\n        /* \"#utility.yul\":10063:10081   */\n      add\n        /* \"#utility.yul\":10055:10081   */\n      swap1\n      pop\n        /* \"#utility.yul\":10127:10136   */\n      dup2\n        /* \"#utility.yul\":10121:10125   */\n      dup2\n        /* \"#utility.yul\":10117:10137   */\n      sub\n        /* \"#utility.yul\":10113:10114   */\n      0x00\n        /* \"#utility.yul\":10102:10111   */\n      dup4\n        /* \"#utility.yul\":10098:10115   */\n      add\n        /* \"#utility.yul\":10091:10138   */\n      mstore\n        /* \"#utility.yul\":10155:10286   */\n      tag_223\n        /* \"#utility.yul\":10281:10285   */\n      dup2\n        /* \"#utility.yul\":10155:10286   */\n      tag_108\n      jump\t// in\n    tag_223:\n        /* \"#utility.yul\":10147:10286   */\n      swap1\n      pop\n        /* \"#utility.yul\":9874:10293   */\n      swap2\n      swap1\n      pop\n      jump\t// out\n        /* \"#utility.yul\":10299:10479   */\n    tag_46:\n        /* \"#utility.yul\":10347:10424   */\n      0x4e487b7100000000000000000000000000000000000000000000000000000000\n        /* \"#utility.yul\":10344:10345   */\n      0x00\n        /* \"#utility.yul\":10337:10425   */\n      mstore\n        /* \"#utility.yul\":10444:10448   */\n      0x32\n        /* \"#utility.yul\":10441:10442   */\n      0x04\n        /* \"#utility.yul\":10434:10449   */\n      mstore\n        /* \"#utility.yul\":10468:10472   */\n      0x24\n        /* \"#utility.yul\":10465:10466   */\n      0x00\n        /* \"#utility.yul\":10458:10473   */\n      revert\n        /* \"#utility.yul\":10671:10857   */\n    tag_110:\n        /* \"#utility.yul\":10716:10727   */\n      0x00\n        /* \"#utility.yul\":10765:10768   */\n      dup2\n        /* \"#utility.yul\":10752:10769   */\n      calldataload\n        /* \"#utility.yul\":10778:10811   */\n      tag_227\n        /* \"#utility.yul\":10805:10810   */\n      dup2\n        /* \"#utility.yul\":10778:10811   */\n      tag_83\n      jump\t// in\n    tag_227:\n        /* \"#utility.yul\":10845:10850   */\n      dup1\n        /* \"#utility.yul\":10821:10850   */\n      swap2\n      pop\n        /* \"#utility.yul\":10728:10857   */\n      pop\n        /* \"#utility.yul\":10671:10857   */\n      swap2\n      swap1\n      pop\n      jump\t// out\n        /* \"#utility.yul\":10863:10955   */\n    tag_111:\n        /* \"#utility.yul\":10895:10903   */\n      0x00\n        /* \"#utility.yul\":10942:10947   */\n      dup2\n        /* \"#utility.yul\":10939:10940   */\n      0x00\n        /* \"#utility.yul\":10935:10948   */\n      shl\n        /* \"#utility.yul\":10914:10948   */\n      swap1\n      pop\n        /* \"#utility.yul\":10863:10955   */\n      swap2\n      swap1\n      pop\n      jump\t// out\n        /* \"#utility.yul\":10961:11251   */\n    tag_112:\n        /* \"#utility.yul\":11019:11025   */\n      0x00\n        /* \"#utility.yul\":11048:11114   */\n      0xffffffffffffffffffffffffffffffffffffffffffffffffffffffffffffffff\n        /* \"#utility.yul\":11135:11157   */\n      tag_230\n        /* \"#utility.yul\":11148:11156   */\n      dup5\n        /* \"#utility.yul\":11135:11157   */\n      tag_111\n      jump\t// in\n    tag_230:\n        /* \"#utility.yul\":11123:11157   */\n      swap4\n      pop\n        /* \"#utility.yul\":11190:11194   */\n      dup1\n        /* \"#utility.yul\":11186:11195   */\n      not\n        /* \"#utility.yul\":11179:11184   */\n      dup4\n        /* \"#utility.yul\":11175:11196   */\n      and\n        /* \"#utility.yul\":11166:11196   */\n      swap3\n      pop\n        /* \"#utility.yul\":11239:11243   */\n      dup1\n        /* \"#utility.yul\":11229:11237   */\n      dup5\n        /* \"#utility.yul\":11225:11244   */\n      and\n        /* \"#utility.yul\":11218:11223   */\n      dup4\n        /* \"#utility.yul\":11215:11245   */\n      or\n        /* \"#utility.yul\":11205:11245   */\n      swap2\n      pop\n        /* \"#utility.yul\":11026:11251   */\n      pop\n        /* \"#utility.yul\":10961:11251   */\n      swap3\n      swap2\n      pop\n      pop\n      jump\t// out\n        /* \"#utility.yul\":11257:11370   */\n    tag_113:\n        /* \"#utility.yul\":11307:11316   */\n      0x00\n        /* \"#utility.yul\":11340:11364   */\n      tag_232\n        /* \"#utility.yul\":11358:11363   */\n      dup3\n        /* \"#utility.yul\":11340:11364   */\n      tag_82\n      jump\t// in\n    tag_232:\n        /* \"#utility.yul\":11327:11364   */\n      swap1\n      pop\n        /* \"#utility.yul\":11257:11370   */\n      swap2\n      swap1\n      pop\n      jump\t// out\n        /* \"#utility.yul\":11376:11478   */\n    tag_114:\n        /* \"#utility.yul\":11418:11426   */\n      0x00\n        /* \"#utility.yul\":11465:11470   */\n      dup2\n        /* \"#utility.yul\":11462:11463   */\n      0x00\n        /* \"#utility.yul\":11458:11471   */\n      shr\n        /* \"#utility.yul\":11437:11471   */\n      swap1\n      pop\n        /* \"#utility.yul\":11376:11478   */\n      swap2\n      swap1\n      pop\n      jump\t// out\n        /* \"#utility.yul\":11484:11583   */\n    tag_115:\n        /* \"#utility.yul\":11527:11530   */\n      0x00\n        /* \"#utility.yul\":11548:11577   */\n      tag_235\n        /* \"#utility.yul\":11571:11576   */\n      dup3\n        /* \"#utility.yul\":11548:11577   */\n      tag_114\n      jump\t// in\n    tag_235:\n        /* \"#utility.yul\":11541:11577   */\n      swap1\n      pop\n        /* \"#utility.yul\":11484:11583   */\n      swap2\n      swap1\n      pop\n      jump\t// out\n        /* \"#utility.yul\":11589:11851   */\n    tag_116:\n        /* \"#utility.yul\":11699:11738   */\n      tag_237\n        /* \"#utility.yul\":11730:11737   */\n      dup3\n        /* \"#utility.yul\":11699:11738   */\n      tag_113\n      jump\t// in\n    tag_237:\n        /* \"#utility.yul\":11760:11844   */\n      tag_238\n        /* \"#utility.yul\":11802:11843   */\n      tag_239\n        /* \"#utility.yul\":11826:11842   */\n      dup3\n        /* \"#utility.yul\":11802:11843   */\n      tag_115\n      jump\t// in\n    tag_239:\n        /* \"#utility.yul\":11795:11799   */\n      dup4\n        /* \"#utility.yul\":11789:11800   */\n      sload\n        /* \"#utility.yul\":11760:11844   */\n      tag_112\n      jump\t// in\n    tag_238:\n        /* \"#utility.yul\":11754:11758   */\n      dup3\n        /* \"#utility.yul\":11747:11845   */\n      sstore\n        /* \"#utility.yul\":11665:11851   */\n      pop\n        /* \"#utility.yul\":11589:11851   */\n      pop\n      pop\n      jump\t// out\n        /* \"#utility.yul\":11857:12043   */\n    tag_117:\n        /* \"#utility.yul\":11902:11913   */\n      0x00\n        /* \"#utility.yul\":11951:11954   */\n      dup2\n        /* \"#utility.yul\":11938:11955   */\n      calldataload\n        /* \"#utility.yul\":11964:11997   */\n      tag_241\n        /* \"#utility.yul\":11991:11996   */\n      dup2\n        /* \"#utility.yul\":11964:11997   */\n      tag_98\n      jump\t// in\n    tag_241:\n        /* \"#utility.yul\":12031:12036   */\n      dup1\n        /* \"#utility.yul\":12007:12036   */\n      swap2\n      pop\n        /* \"#utility.yul\":11914:12043   */\n      pop\n        /* \"#utility.yul\":11857:12043   */\n      swap2\n      swap1\n      pop\n      jump\t// out\n        /* \"#utility.yul\":12049:12109   */\n    tag_118:\n        /* \"#utility.yul\":12077:12080   */\n      0x00\n        /* \"#utility.yul\":12098:12103   */\n      dup2\n        /* \"#utility.yul\":12091:12103   */\n      swap1\n      pop\n        /* \"#utility.yul\":12049:12109   */\n      swap2\n      swap1\n      pop\n      jump\t// out\n        /* \"#utility.yul\":12115:12257   */\n    tag_119:\n        /* \"#utility.yul\":12165:12174   */\n      0x00\n        /* \"#utility.yul\":12198:12251   */\n      tag_244\n        /* \"#utility.yul\":12216:12250   */\n      tag_245\n        /* \"#utility.yul\":12225:12249   */\n      tag_246\n        /* \"#utility.yul\":12243:12248   */\n      dup5\n        /* \"#utility.yul\":12225:12249   */\n      tag_86\n      jump\t// in\n    tag_246:\n        /* \"#utility.yul\":12216:12250   */\n      tag_118\n      jump\t// in\n    tag_245:\n        /* \"#utility.yul\":12198:12251   */\n      tag_86\n      jump\t// in\n    tag_244:\n        /* \"#utility.yul\":12185:12251   */\n      swap1\n      pop\n        /* \"#utility.yul\":12115:12257   */\n      swap2\n      swap1\n      pop\n      jump\t// out\n        /* \"#utility.yul\":12263:12338   */\n    tag_120:\n        /* \"#utility.yul\":12306:12309   */\n      0x00\n        /* \"#utility.yul\":12327:12332   */\n      dup2\n        /* \"#utility.yul\":12320:12332   */\n      swap1\n      pop\n        /* \"#utility.yul\":12263:12338   */\n      swap2\n      swap1\n      pop\n      jump\t// out\n        /* \"#utility.yul\":12344:12606   */\n    tag_121:\n        /* \"#utility.yul\":12454:12493   */\n      tag_249\n        /* \"#utility.yul\":12485:12492   */\n      dup3\n        /* \"#utility.yul\":12454:12493   */\n      tag_119\n      jump\t// in\n    tag_249:\n        /* \"#utility.yul\":12515:12599   */\n      tag_250\n        /* \"#utility.yul\":12557:12598   */\n      tag_251\n        /* \"#utility.yul\":12581:12597   */\n      dup3\n        /* \"#utility.yul\":12557:12598   */\n      tag_120\n      jump\t// in\n    tag_251:\n        /* \"#utility.yul\":12550:12554   */\n      dup4\n        /* \"#utility.yul\":12544:12555   */\n      sload\n        /* \"#utility.yul\":12515:12599   */\n      tag_112\n      jump\t// in\n    tag_250:\n        /* \"#utility.yul\":12509:12513   */\n      dup3\n        /* \"#utility.yul\":12502:12600   */\n      sstore\n        /* \"#utility.yul\":12420:12606   */\n      pop\n        /* \"#utility.yul\":12344:12606   */\n      pop\n      pop\n      jump\t// out\n        /* \"#utility.yul\":12612:13417   */\n    tag_122:\n        /* \"#utility.yul\":12788:12789   */\n      0x00\n        /* \"#utility.yul\":12782:12786   */\n      dup2\n        /* \"#utility.yul\":12778:12790   */\n      add\n        /* \"#utility.yul\":12834:12835   */\n      0x00\n        /* \"#utility.yul\":12827:12832   */\n      dup4\n        /* \"#utility.yul\":12823:12836   */\n      add\n        /* \"#utility.yul\":12884:12896   */\n      dup1\n        /* \"#utility.yul\":12927:12969   */\n      tag_253\n        /* \"#utility.yul\":12955:12968   */\n      dup2\n        /* \"#utility.yul\":12927:12969   */\n      tag_110\n      jump\t// in\n    tag_253:\n        /* \"#utility.yul\":12910:12969   */\n      swap1\n      pop\n        /* \"#utility.yul\":12983:13061   */\n      tag_254\n        /* \"#utility.yul\":13047:13060   */\n      dup2\n        /* \"#utility.yul\":13035:13045   */\n      dup5\n        /* \"#utility.yul\":12983:13061   */\n      tag_116\n      jump\t// in\n    tag_254:\n        /* \"#utility.yul\":12745:13072   */\n      pop\n      pop\n      pop\n        /* \"#utility.yul\":13125:13126   */\n      0x01\n        /* \"#utility.yul\":13119:13123   */\n      dup2\n        /* \"#utility.yul\":13115:13127   */\n      add\n        /* \"#utility.yul\":13171:13173   */\n      0x20\n        /* \"#utility.yul\":13164:13169   */\n      dup4\n        /* \"#utility.yul\":13160:13174   */\n      add\n        /* \"#utility.yul\":13222:13234   */\n      dup1\n        /* \"#utility.yul\":13265:13307   */\n      tag_255\n        /* \"#utility.yul\":13293:13306   */\n      dup2\n        /* \"#utility.yul\":13265:13307   */\n      tag_117\n      jump\t// in\n    tag_255:\n        /* \"#utility.yul\":13248:13307   */\n      swap1\n      pop\n        /* \"#utility.yul\":13321:13399   */\n      tag_256\n        /* \"#utility.yul\":13385:13398   */\n      dup2\n        /* \"#utility.yul\":13373:13383   */\n      dup5\n        /* \"#utility.yul\":13321:13399   */\n      tag_121\n      jump\t// in\n    tag_256:\n        /* \"#utility.yul\":13082:13410   */\n      pop\n      pop\n      pop\n        /* \"#utility.yul\":12612:13417   */\n      pop\n      pop\n      jump\t// out\n        /* \"#utility.yul\":13423:13679   */\n    tag_49:\n        /* \"#utility.yul\":13559:13673   */\n      tag_258\n        /* \"#utility.yul\":13665:13672   */\n      dup3\n        /* \"#utility.yul\":13659:13663   */\n      dup3\n        /* \"#utility.yul\":13559:13673   */\n      tag_122\n      jump\t// in\n    tag_258:\n        /* \"#utility.yul\":13423:13679   */\n      pop\n      pop\n      jump\t// out\n        /* \"#utility.yul\":13685:13865   */\n    tag_58:\n        /* \"#utility.yul\":13733:13810   */\n      0x4e487b7100000000000000000000000000000000000000000000000000000000\n        /* \"#utility.yul\":13730:13731   */\n      0x00\n        /* \"#utility.yul\":13723:13811   */\n      mstore\n        /* \"#utility.yul\":13830:13834   */\n      0x41\n        /* \"#utility.yul\":13827:13828   */\n      0x04\n        /* \"#utility.yul\":13820:13835   */\n      mstore\n        /* \"#utility.yul\":13854:13858   */\n      0x24\n        /* \"#utility.yul\":13851:13852   */\n      0x00\n        /* \"#utility.yul\":13844:13859   */\n      revert\n        /* \"#utility.yul\":13871:14051   */\n    tag_123:\n        /* \"#utility.yul\":13919:13996   */\n      0x4e487b7100000000000000000000000000000000000000000000000000000000\n        /* \"#utility.yul\":13916:13917   */\n      0x00\n        /* \"#utility.yul\":13909:13997   */\n      mstore\n        /* \"#utility.yul\":14016:14020   */\n      0x12\n        /* \"#utility.yul\":14013:14014   */\n      0x04\n        /* \"#utility.yul\":14006:14021   */\n      mstore\n        /* \"#utility.yul\":14040:14044   */\n      0x24\n        /* \"#utility.yul\":14037:14038   */\n      0x00\n        /* \"#utility.yul\":14030:14045   */\n      revert\n        /* \"#utility.yul\":14057:14233   */\n    tag_61:\n        /* \"#utility.yul\":14089:14090   */\n      0x00\n        /* \"#utility.yul\":14106:14126   */\n      tag_262\n        /* \"#utility.yul\":14124:14125   */\n      dup3\n        /* \"#utility.yul\":14106:14126   */\n      tag_86\n      jump\t// in\n    tag_262:\n        /* \"#utility.yul\":14101:14126   */\n      swap2\n      pop\n        /* \"#utility.yul\":14140:14160   */\n      tag_263\n        /* \"#utility.yul\":14158:14159   */\n      dup4\n        /* \"#utility.yul\":14140:14160   */\n      tag_86\n      jump\t// in\n    tag_263:\n        /* \"#utility.yul\":14135:14160   */\n      swap3\n      pop\n        /* \"#utility.yul\":14179:14180   */\n      dup3\n        /* \"#utility.yul\":14169:14204   */\n      tag_264\n      jumpi\n        /* \"#utility.yul\":14184:14202   */\n      tag_265\n      tag_123\n      jump\t// in\n    tag_265:\n        /* \"#utility.yul\":14169:14204   */\n    tag_264:\n        /* \"#utility.yul\":14225:14226   */\n      dup3\n        /* \"#utility.yul\":14222:14223   */\n      dup3\n        /* \"#utility.yul\":14218:14227   */\n      mod\n        /* \"#utility.yul\":14213:14227   */\n      swap1\n      pop\n        /* \"#utility.yul\":14057:14233   */\n      swap3\n      swap2\n      pop\n      pop\n      jump\t// out\n        /* \"#utility.yul\":14239:14417   */\n    tag_124:\n        /* \"#utility.yul\":14379:14409   */\n      0x696e76616c696420626173653634206465636f64657220696e70757400000000\n        /* \"#utility.yul\":14375:14376   */\n      0x00\n        /* \"#utility.yul\":14367:14373   */\n      dup3\n        /* \"#utility.yul\":14363:14377   */\n      add\n        /* \"#utility.yul\":14356:14410   */\n      mstore\n        /* \"#utility.yul\":14239:14417   */\n      pop\n      jump\t// out\n        /* \"#utility.yul\":14423:14789   */\n    tag_125:\n        /* \"#utility.yul\":14565:14568   */\n      0x00\n        /* \"#utility.yul\":14586:14653   */\n      tag_268\n        /* \"#utility.yul\":14650:14652   */\n      0x1c\n        /* \"#utility.yul\":14645:14648   */\n      dup4\n        /* \"#utility.yul\":14586:14653   */\n      tag_102\n      jump\t// in\n    tag_268:\n        /* \"#utility.yul\":14579:14653   */\n      swap2\n      pop\n        /* \"#utility.yul\":14662:14755   */\n      tag_269\n        /* \"#utility.yul\":14751:14754   */\n      dup3\n        /* \"#utility.yul\":14662:14755   */\n      tag_124\n      jump\t// in\n    tag_269:\n        /* \"#utility.yul\":14780:14782   */\n      0x20\n        /* \"#utility.yul\":14775:14778   */\n      dup3\n        /* \"#utility.yul\":14771:14783   */\n      add\n        /* \"#utility.yul\":14764:14783   */\n      swap1\n      pop\n        /* \"#utility.yul\":14423:14789   */\n      swap2\n      swap1\n      pop\n      jump\t// out\n        /* \"#utility.yul\":14795:15214   */\n    tag_64:\n        /* \"#utility.yul\":14961:14965   */\n      0x00\n        /* \"#utility.yul\":14999:15001   */\n      0x20\n        /* \"#utility.yul\":14988:14997   */\n      dup3\n        /* \"#utility.yul\":14984:15002   */\n      add\n        /* \"#utility.yul\":14976:15002   */\n      swap1\n      pop\n        /* \"#utility.yul\":15048:15057   */\n      dup2\n        /* \"#utility.yul\":15042:15046   */\n      dup2\n        /* \"#utility.yul\":15038:15058   */\n      sub\n        /* \"#utility.yul\":15034:15035   */\n      0x00\n        /* \"#utility.yul\":15023:15032   */\n      dup4\n        /* \"#utility.yul\":15019:15036   */\n      add\n        /* \"#utility.yul\":15012:15059   */\n      mstore\n        /* \"#utility.yul\":15076:15207   */\n      tag_271\n        /* \"#utility.yul\":15202:15206   */\n      dup2\n        /* \"#utility.yul\":15076:15207   */\n      tag_125\n      jump\t// in\n    tag_271:\n        /* \"#utility.yul\":15068:15207   */\n      swap1\n      pop\n        /* \"#utility.yul\":14795:15214   */\n      swap2\n      swap1\n      pop\n      jump\t// out\n        /* \"#utility.yul\":15220:15400   */\n    tag_126:\n        /* \"#utility.yul\":15268:15345   */\n      0x4e487b7100000000000000000000000000000000000000000000000000000000\n        /* \"#utility.yul\":15265:15266   */\n      0x00\n        /* \"#utility.yul\":15258:15346   */\n      mstore\n        /* \"#utility.yul\":15365:15369   */\n      0x11\n        /* \"#utility.yul\":15362:15363   */\n      0x04\n        /* \"#utility.yul\":15355:15370   */\n      mstore\n        /* \"#utility.yul\":15389:15393   */\n      0x24\n        /* \"#utility.yul\":15386:15387   */\n      0x00\n        /* \"#utility.yul\":15379:15394   */\n      revert\n        /* \"#utility.yul\":15406:15591   */\n    tag_66:\n        /* \"#utility.yul\":15446:15447   */\n      0x00\n        /* \"#utility.yul\":15463:15483   */\n      tag_274\n        /* \"#utility.yul\":15481:15482   */\n      dup3\n        /* \"#utility.yul\":15463:15483   */\n      tag_86\n      jump\t// in\n    tag_274:\n        /* \"#utility.yul\":15458:15483   */\n      swap2\n      pop\n        /* \"#utility.yul\":15497:15517   */\n      tag_275\n        /* \"#utility.yul\":15515:15516   */\n      dup4\n        /* \"#utility.yul\":15497:15517   */\n      tag_86\n      jump\t// in\n    tag_275:\n        /* \"#utility.yul\":15492:15517   */\n      swap3\n      pop\n        /* \"#utility.yul\":15536:15537   */\n      dup3\n        /* \"#utility.yul\":15526:15561   */\n      tag_276\n      jumpi\n        /* \"#utility.yul\":15541:15559   */\n      tag_277\n      tag_123\n      jump\t// in\n    tag_277:\n        /* \"#utility.yul\":15526:15561   */\n    tag_276:\n        /* \"#utility.yul\":15583:15584   */\n      dup3\n        /* \"#utility.yul\":15580:15581   */\n      dup3\n        /* \"#utility.yul\":15576:15585   */\n      div\n        /* \"#utility.yul\":15571:15585   */\n      swap1\n      pop\n        /* \"#utility.yul\":15406:15591   */\n      swap3\n      swap2\n      pop\n      pop\n      jump\t// out\n        /* \"#utility.yul\":15597:16007   */\n    tag_68:\n        /* \"#utility.yul\":15637:15644   */\n      0x00\n        /* \"#utility.yul\":15660:15680   */\n      tag_279\n        /* \"#utility.yul\":15678:15679   */\n      dup3\n        /* \"#utility.yul\":15660:15680   */\n      tag_86\n      jump\t// in\n    tag_279:\n        /* \"#utility.yul\":15655:15680   */\n      swap2\n      pop\n        /* \"#utility.yul\":15694:15714   */\n      tag_280\n        /* \"#utility.yul\":15712:15713   */\n      dup4\n        /* \"#utility.yul\":15694:15714   */\n      tag_86\n      jump\t// in\n    tag_280:\n        /* \"#utility.yul\":15689:15714   */\n      swap3\n      pop\n        /* \"#utility.yul\":15749:15750   */\n      dup3\n        /* \"#utility.yul\":15746:15747   */\n      dup3\n        /* \"#utility.yul\":15742:15751   */\n      mul\n        /* \"#utility.yul\":15771:15801   */\n      tag_281\n        /* \"#utility.yul\":15789:15800   */\n      dup2\n        /* \"#utility.yul\":15771:15801   */\n      tag_86\n      jump\t// in\n    tag_281:\n        /* \"#utility.yul\":15760:15801   */\n      swap2\n      pop\n        /* \"#utility.yul\":15950:15951   */\n      dup3\n        /* \"#utility.yul\":15941:15948   */\n      dup3\n        /* \"#utility.yul\":15937:15952   */\n      div\n        /* \"#utility.yul\":15934:15935   */\n      dup5\n        /* \"#utility.yul\":15931:15953   */\n      eq\n        /* \"#utility.yul\":15911:15912   */\n      dup4\n        /* \"#utility.yul\":15904:15913   */\n      iszero\n        /* \"#utility.yul\":15884:15967   */\n      or\n        /* \"#utility.yul\":15861:16000   */\n      tag_282\n      jumpi\n        /* \"#utility.yul\":15980:15998   */\n      tag_283\n      tag_126\n      jump\t// in\n    tag_283:\n        /* \"#utility.yul\":15861:16000   */\n    tag_282:\n        /* \"#utility.yul\":15645:16007   */\n      pop\n        /* \"#utility.yul\":15597:16007   */\n      swap3\n      swap2\n      pop\n      pop\n      jump\t// out\n        /* \"#utility.yul\":16013:16204   */\n    tag_70:\n        /* \"#utility.yul\":16053:16056   */\n      0x00\n        /* \"#utility.yul\":16072:16092   */\n      tag_285\n        /* \"#utility.yul\":16090:16091   */\n      dup3\n        /* \"#utility.yul\":16072:16092   */\n      tag_86\n      jump\t// in\n    tag_285:\n        /* \"#utility.yul\":16067:16092   */\n      swap2\n      pop\n        /* \"#utility.yul\":16106:16126   */\n      tag_286\n        /* \"#utility.yul\":16124:16125   */\n      dup4\n        /* \"#utility.yul\":16106:16126   */\n      tag_86\n      jump\t// in\n    tag_286:\n        /* \"#utility.yul\":16101:16126   */\n      swap3\n      pop\n        /* \"#utility.yul\":16149:16150   */\n      dup3\n        /* \"#utility.yul\":16146:16147   */\n      dup3\n        /* \"#utility.yul\":16142:16151   */\n      add\n        /* \"#utility.yul\":16135:16151   */\n      swap1\n      pop\n        /* \"#utility.yul\":16170:16173   */\n      dup1\n        /* \"#utility.yul\":16167:16168   */\n      dup3\n        /* \"#utility.yul\":16164:16174   */\n      gt\n        /* \"#utility.yul\":16161:16197   */\n      iszero\n      tag_287\n      jumpi\n        /* \"#utility.yul\":16177:16195   */\n      tag_288\n      tag_126\n      jump\t// in\n    tag_288:\n        /* \"#utility.yul\":16161:16197   */\n    tag_287:\n        /* \"#utility.yul\":16013:16204   */\n      swap3\n      swap2\n      pop\n      pop\n      jump\t// out\n    stop\n    data_cbed483d4f9f83dd52b06773fd58dd8723113252a85374752ef109e22dfa50f9 000000000000000000000000000000000000000000000000000000000000000000000000000000000000003e0000003f3435363738393a3b3c3d00000000000000000102030405060708090a0b0c0d0e0f101112131415161718190000000000001a1b1c1d1e1f202122232425262728292a2b2c2d2e2f303132330000000000\n\n    auxdata: 0xa2646970667358221220afef3672bc53d98cffc378466259a8c09a3c5f02e523063126c4b58b73510f0064736f6c63430008190033\n}\n",
				"bytecode": {
					"linkReferences": {},
					"object": "6080604052348015600e575f80fd5b50335f806101000a81548173ffffffffffffffffffffffffffffffffffffffff021916908373ffffffffffffffffffffffffffffffffffffffff160217905550610ee38061005b5f395ff3fe608060405234801561000f575f80fd5b5060043610610055575f3560e01c806305ab39b7146100595780632e4176cf1461008b578063a57c072a146100a9578063df3dcb52146100c5578063fc36e15b146100f6575b5f80fd5b610073600480360381019061006e919061067c565b610112565b60405161008293929190610715565b60405180910390f35b610093610161565b6040516100a09190610789565b60405180910390f35b6100c360048036038101906100be919061082d565b610184565b005b6100df60048036038101906100da919061067c565b6103b8565b6040516100ed9291906108c0565b60405180910390f35b610110600480360381019061010b919061093c565b6103fc565b005b6001602052805f5260405f205f91509050805f015490806002016040518060400160405290815f820154815260200160018201548152505090806004015f9054906101000a900460ff16905083565b5f8054906101000a900473ffffffffffffffffffffffffffffffffffffffff1681565b5f8054906101000a900473ffffffffffffffffffffffffffffffffffffffff1673ffffffffffffffffffffffffffffffffffffffff163373ffffffffffffffffffffffffffffffffffffffff1614610211576040517f08c379a0000000000000000000000000000000000000000000000000000000008152600401610208906109e1565b60405180910390fd5b5f8503610253576040517f08c379a000000000000000000000000000000000000000000000000000000000815260040161024a90610a49565b60405180910390fd5b60015f8681526020019081526020015f206004015f9054906101000a900460ff16156102b4576040517f08c379a00000000000000000000000000000000000000000000000000000000081526004016102ab90610ab1565b60405180910390fd5b5f5b8484905081101561032f5760015f8781526020019081526020015f206001018585838181106102e8576102e7610acf565b5b905060400201908060018154018082558091505060019003905f5260205f2090600202015f9091909190915081816103209190610c5c565b505080806001019150506102b6565b508460015f8781526020019081526020015f205f018190555060405180604001604052808381526020018281525060015f8781526020019081526020015f206002015f820151815f0155602082015181600101559050506001805f8781526020019081526020015f206004015f6101000a81548160ff0219169083151502179055505050505050565b5f805f60015f8581526020019081526020015f206002015f015490505f60015f8681526020019081526020015f206002016001015490508181935093505050915091565b5f61044983838080601f0160208091040260200160405190810160405280939291908181526020018383808284375f81840152601f19601f82011690508083019250505050505050610450565b9050505050565b60605f8290505f8151036104b3575f67ffffffffffffffff81111561047857610477610c6a565b5b6040519080825280601f01601f1916602001820160405280156104aa5781602001600182028036833780820191505090505b5091505061063c565b5f600482516104c29190610cc4565b14610502576040517f08c379a00000000000000000000000000000000000000000000000000000000081526004016104f990610d3e565b60405180910390fd5b5f6040518060a0016040528060808152602001610e2e6080913990505f60036004845161052f9190610d89565b6105399190610db9565b90505f6020826105499190610dfa565b67ffffffffffffffff81111561056257610561610c6a565b5b6040519080825280601f01601f1916602001820160405280156105945781602001600182028036833780820191505090505b5090508351840151603d60ff8216036105c257600183039250613d3d61ffff8216036105c1576001830392505b5b828252600184018586518101602085015b8183101561062f57600483019250825160ff8082168601511660ff808360081c168701511660061b0160ff808360101c1687015116600c1b60ff808460181c168801511660121b01018060e81b835260038301925050506105d3565b5050505050809450505050505b919050565b5f80fd5b5f80fd5b5f819050919050565b61065b81610649565b8114610665575f80fd5b50565b5f8135905061067681610652565b92915050565b5f6020828403121561069157610690610641565b5b5f61069e84828501610668565b91505092915050565b6106b081610649565b82525050565b5f819050919050565b6106c8816106b6565b82525050565b604082015f8201516106e25f8501826106bf565b5060208201516106f560208501826106bf565b50505050565b5f8115159050919050565b61070f816106fb565b82525050565b5f6080820190506107285f8301866106a7565b61073560208301856106ce565b6107426060830184610706565b949350505050565b5f73ffffffffffffffffffffffffffffffffffffffff82169050919050565b5f6107738261074a565b9050919050565b61078381610769565b82525050565b5f60208201905061079c5f83018461077a565b92915050565b5f80fd5b5f80fd5b5f80fd5b5f8083601f8401126107c3576107c26107a2565b5b8235905067ffffffffffffffff8111156107e0576107df6107a6565b5b6020830191508360408202830111156107fc576107fb6107aa565b5b9250929050565b61080c816106b6565b8114610816575f80fd5b50565b5f8135905061082781610803565b92915050565b5f805f805f6080868803121561084657610845610641565b5b5f61085388828901610668565b955050602086013567ffffffffffffffff81111561087457610873610645565b5b610880888289016107ae565b9450945050604061089388828901610819565b92505060606108a488828901610819565b9150509295509295909350565b6108ba816106b6565b82525050565b5f6040820190506108d35f8301856108b1565b6108e060208301846108b1565b9392505050565b5f8083601f8401126108fc576108fb6107a2565b5b8235905067ffffffffffffffff811115610919576109186107a6565b5b602083019150836001820283011115610935576109346107aa565b5b9250929050565b5f806020838503121561095257610951610641565b5b5f83013567ffffffffffffffff81111561096f5761096e610645565b5b61097b858286016108e7565b92509250509250929050565b5f82825260208201905092915050565b7f486173206e6f20726967687420746f2063726561746520656c656374696f6e005f82015250565b5f6109cb601f83610987565b91506109d682610997565b602082019050919050565b5f6020820190508181035f8301526109f8816109bf565b9050919050565b7f4e616d65206d75737420626520737065636966696564000000000000000000005f82015250565b5f610a33601683610987565b9150610a3e826109ff565b602082019050919050565b5f6020820190508181035f830152610a6081610a27565b9050919050565b7f456c656374696f6e20616c7265616479206372656174656400000000000000005f82015250565b5f610a9b601883610987565b9150610aa682610a67565b602082019050919050565b5f6020820190508181035f830152610ac881610a8f565b9050919050565b7f4e487b71000000000000000000000000000000000000000000000000000000005f52603260045260245ffd5b5f8135610b0881610652565b80915050919050565b5f815f1b9050919050565b5f7fffffffffffffffffffffffffffffffffffffffffffffffffffffffffffffffff610b4784610b11565b9350801983169250808416831791505092915050565b5f610b6782610649565b9050919050565b5f815f1c9050919050565b5f610b8382610b6e565b9050919050565b610b9382610b5d565b610ba6610b9f82610b79565b8354610b1c565b8255505050565b5f8135610bb981610803565b80915050919050565b5f819050919050565b5f610be5610be0610bdb846106b6565b610bc2565b6106b6565b9050919050565b5f819050919050565b610bfe82610bcb565b610c11610c0a82610bec565b8354610b1c565b8255505050565b5f81015f830180610c2881610afc565b9050610c348184610b8a565b505050600181016020830180610c4981610bad565b9050610c558184610bf5565b5050505050565b610c668282610c18565b5050565b7f4e487b71000000000000000000000000000000000000000000000000000000005f52604160045260245ffd5b7f4e487b71000000000000000000000000000000000000000000000000000000005f52601260045260245ffd5b5f610cce826106b6565b9150610cd9836106b6565b925082610ce957610ce8610c97565b5b828206905092915050565b7f696e76616c696420626173653634206465636f64657220696e707574000000005f82015250565b5f610d28601c83610987565b9150610d3382610cf4565b602082019050919050565b5f6020820190508181035f830152610d5581610d1c565b9050919050565b7f4e487b71000000000000000000000000000000000000000000000000000000005f52601160045260245ffd5b5f610d93826106b6565b9150610d9e836106b6565b925082610dae57610dad610c97565b5b828204905092915050565b5f610dc3826106b6565b9150610dce836106b6565b9250828202610ddc816106b6565b91508282048414831517610df357610df2610d5c565b5b5092915050565b5f610e04826106b6565b9150610e0f836106b6565b9250828201905080821115610e2757610e26610d5c565b5b9291505056fe000000000000000000000000000000000000000000000000000000000000000000000000000000000000003e0000003f3435363738393a3b3c3d00000000000000000102030405060708090a0b0c0d0e0f101112131415161718190000000000001a1b1c1d1e1f202122232425262728292a2b2c2d2e2f303132330000000000a2646970667358221220afef3672bc53d98cffc378466259a8c09a3c5f02e523063126c4b58b73510f0064736f6c63430008190033",
					"opcodes": "PUSH1 0x80 PUSH1 0x40 MSTORE CALLVALUE DUP1 ISZERO PUSH1 0xE JUMPI PUSH0 DUP1 REVERT JUMPDEST POP CALLER PUSH0 DUP1 PUSH2 0x100 EXP DUP2 SLOAD DUP2 PUSH20 0xFFFFFFFFFFFFFFFFFFFFFFFFFFFFFFFFFFFFFFFF MUL NOT AND SWAP1 DUP4 PUSH20 0xFFFFFFFFFFFFFFFFFFFFFFFFFFFFFFFFFFFFFFFF AND MUL OR SWAP1 SSTORE POP PUSH2 0xEE3 DUP1 PUSH2 0x5B PUSH0 CODECOPY PUSH0 RETURN INVALID PUSH1 0x80 PUSH1 0x40 MSTORE CALLVALUE DUP1 ISZERO PUSH2 0xF JUMPI PUSH0 DUP1 REVERT JUMPDEST POP PUSH1 0x4 CALLDATASIZE LT PUSH2 0x55 JUMPI PUSH0 CALLDATALOAD PUSH1 0xE0 SHR DUP1 PUSH4 0x5AB39B7 EQ PUSH2 0x59 JUMPI DUP1 PUSH4 0x2E4176CF EQ PUSH2 0x8B JUMPI DUP1 PUSH4 0xA57C072A EQ PUSH2 0xA9 JUMPI DUP1 PUSH4 0xDF3DCB52 EQ PUSH2 0xC5 JUMPI DUP1 PUSH4 0xFC36E15B EQ PUSH2 0xF6 JUMPI JUMPDEST PUSH0 DUP1 REVERT JUMPDEST PUSH2 0x73 PUSH1 0x4 DUP1 CALLDATASIZE SUB DUP2 ADD SWAP1 PUSH2 0x6E SWAP2 SWAP1 PUSH2 0x67C JUMP JUMPDEST PUSH2 0x112 JUMP JUMPDEST PUSH1 0x40 MLOAD PUSH2 0x82 SWAP4 SWAP3 SWAP2 SWAP1 PUSH2 0x715 JUMP JUMPDEST PUSH1 0x40 MLOAD DUP1 SWAP2 SUB SWAP1 RETURN JUMPDEST PUSH2 0x93 PUSH2 0x161 JUMP JUMPDEST PUSH1 0x40 MLOAD PUSH2 0xA0 SWAP2 SWAP1 PUSH2 0x789 JUMP JUMPDEST PUSH1 0x40 MLOAD DUP1 SWAP2 SUB SWAP1 RETURN JUMPDEST PUSH2 0xC3 PUSH1 0x4 DUP1 CALLDATASIZE SUB DUP2 ADD SWAP1 PUSH2 0xBE SWAP2 SWAP1 PUSH2 0x82D JUMP JUMPDEST PUSH2 0x184 JUMP JUMPDEST STOP JUMPDEST PUSH2 0xDF PUSH1 0x4 DUP1 CALLDATASIZE SUB DUP2 ADD SWAP1 PUSH2 0xDA SWAP2 SWAP1 PUSH2 0x67C JUMP JUMPDEST PUSH2 0x3B8 JUMP JUMPDEST PUSH1 0x40 MLOAD PUSH2 0xED SWAP3 SWAP2 SWAP1 PUSH2 0x8C0 JUMP JUMPDEST PUSH1 0x40 MLOAD DUP1 SWAP2 SUB SWAP1 RETURN JUMPDEST PUSH2 0x110 PUSH1 0x4 DUP1 CALLDATASIZE SUB DUP2 ADD SWAP1 PUSH2 0x10B SWAP2 SWAP1 PUSH2 0x93C JUMP JUMPDEST PUSH2 0x3FC JUMP JUMPDEST STOP JUMPDEST PUSH1 0x1 PUSH1 0x20 MSTORE DUP1 PUSH0 MSTORE PUSH1 0x40 PUSH0 KECCAK256 PUSH0 SWAP2 POP SWAP1 POP DUP1 PUSH0 ADD SLOAD SWAP1 DUP1 PUSH1 0x2 ADD PUSH1 0x40 MLOAD DUP1 PUSH1 0x40 ADD PUSH1 0x40 MSTORE SWAP1 DUP2 PUSH0 DUP3 ADD SLOAD DUP2 MSTORE PUSH1 0x20 ADD PUSH1 0x1 DUP3 ADD SLOAD DUP2 MSTORE POP POP SWAP1 DUP1 PUSH1 0x4 ADD PUSH0 SWAP1 SLOAD SWAP1 PUSH2 0x100 EXP SWAP1 DIV PUSH1 0xFF AND SWAP1 POP DUP4 JUMP JUMPDEST PUSH0 DUP1 SLOAD SWAP1 PUSH2 0x100 EXP SWAP1 DIV PUSH20 0xFFFFFFFFFFFFFFFFFFFFFFFFFFFFFFFFFFFFFFFF AND DUP2 JUMP JUMPDEST PUSH0 DUP1 SLOAD SWAP1 PUSH2 0x100 EXP SWAP1 DIV PUSH20 0xFFFFFFFFFFFFFFFFFFFFFFFFFFFFFFFFFFFFFFFF AND PUSH20 0xFFFFFFFFFFFFFFFFFFFFFFFFFFFFFFFFFFFFFFFF AND CALLER PUSH20 0xFFFFFFFFFFFFFFFFFFFFFFFFFFFFFFFFFFFFFFFF AND EQ PUSH2 0x211 JUMPI PUSH1 0x40 MLOAD PUSH32 0x8C379A000000000000000000000000000000000000000000000000000000000 DUP2 MSTORE PUSH1 0x4 ADD PUSH2 0x208 SWAP1 PUSH2 0x9E1 JUMP JUMPDEST PUSH1 0x40 MLOAD DUP1 SWAP2 SUB SWAP1 REVERT JUMPDEST PUSH0 DUP6 SUB PUSH2 0x253 JUMPI PUSH1 0x40 MLOAD PUSH32 0x8C379A000000000000000000000000000000000000000000000000000000000 DUP2 MSTORE PUSH1 0x4 ADD PUSH2 0x24A SWAP1 PUSH2 0xA49 JUMP JUMPDEST PUSH1 0x40 MLOAD DUP1 SWAP2 SUB SWAP1 REVERT JUMPDEST PUSH1 0x1 PUSH0 DUP7 DUP2 MSTORE PUSH1 0x20 ADD SWAP1 DUP2 MSTORE PUSH1 0x20 ADD PUSH0 KECCAK256 PUSH1 0x4 ADD PUSH0 SWAP1 SLOAD SWAP1 PUSH2 0x100 EXP SWAP1 DIV PUSH1 0xFF AND ISZERO PUSH2 0x2B4 JUMPI PUSH1 0x40 MLOAD PUSH32 0x8C379A000000000000000000000000000000000000000000000000000000000 DUP2 MSTORE PUSH1 0x4 ADD PUSH2 0x2AB SWAP1 PUSH2 0xAB1 JUMP JUMPDEST PUSH1 0x40 MLOAD DUP1 SWAP2 SUB SWAP1 REVERT JUMPDEST PUSH0 JUMPDEST DUP5 DUP5 SWAP1 POP DUP2 LT ISZERO PUSH2 0x32F JUMPI PUSH1 0x1 PUSH0 DUP8 DUP2 MSTORE PUSH1 0x20 ADD SWAP1 DUP2 MSTORE PUSH1 0x20 ADD PUSH0 KECCAK256 PUSH1 0x1 ADD DUP6 DUP6 DUP4 DUP2 DUP2 LT PUSH2 0x2E8 JUMPI PUSH2 0x2E7 PUSH2 0xACF JUMP JUMPDEST JUMPDEST SWAP1 POP PUSH1 0x40 MUL ADD SWAP1 DUP1 PUSH1 0x1 DUP2 SLOAD ADD DUP1 DUP3 SSTORE DUP1 SWAP2 POP POP PUSH1 0x1 SWAP1 SUB SWAP1 PUSH0 MSTORE PUSH1 0x20 PUSH0 KECCAK256 SWAP1 PUSH1 0x2 MUL ADD PUSH0 SWAP1 SWAP2 SWAP1 SWAP2 SWAP1 SWAP2 POP DUP2 DUP2 PUSH2 0x320 SWAP2 SWAP1 PUSH2 0xC5C JUMP JUMPDEST POP POP DUP1 DUP1 PUSH1 0x1 ADD SWAP2 POP POP PUSH2 0x2B6 JUMP JUMPDEST POP DUP5 PUSH1 0x1 PUSH0 DUP8 DUP2 MSTORE PUSH1 0x20 ADD SWAP1 DUP2 MSTORE PUSH1 0x20 ADD PUSH0 KECCAK256 PUSH0 ADD DUP2 SWAP1 SSTORE POP PUSH1 0x40 MLOAD DUP1 PUSH1 0x40 ADD PUSH1 0x40 MSTORE DUP1 DUP4 DUP2 MSTORE PUSH1 0x20 ADD DUP3 DUP2 MSTORE POP PUSH1 0x1 PUSH0 DUP8 DUP2 MSTORE PUSH1 0x20 ADD SWAP1 DUP2 MSTORE PUSH1 0x20 ADD PUSH0 KECCAK256 PUSH1 0x2 ADD PUSH0 DUP3 ADD MLOAD DUP2 PUSH0 ADD SSTORE PUSH1 0x20 DUP3 ADD MLOAD DUP2 PUSH1 0x1 ADD SSTORE SWAP1 POP POP PUSH1 0x1 DUP1 PUSH0 DUP8 DUP2 MSTORE PUSH1 0x20 ADD SWAP1 DUP2 MSTORE PUSH1 0x20 ADD PUSH0 KECCAK256 PUSH1 0x4 ADD PUSH0 PUSH2 0x100 EXP DUP2 SLOAD DUP2 PUSH1 0xFF MUL NOT AND SWAP1 DUP4 ISZERO ISZERO MUL OR SWAP1 SSTORE POP POP POP POP POP POP JUMP JUMPDEST PUSH0 DUP1 PUSH0 PUSH1 0x1 PUSH0 DUP6 DUP2 MSTORE PUSH1 0x20 ADD SWAP1 DUP2 MSTORE PUSH1 0x20 ADD PUSH0 KECCAK256 PUSH1 0x2 ADD PUSH0 ADD SLOAD SWAP1 POP PUSH0 PUSH1 0x1 PUSH0 DUP7 DUP2 MSTORE PUSH1 0x20 ADD SWAP1 DUP2 MSTORE PUSH1 0x20 ADD PUSH0 KECCAK256 PUSH1 0x2 ADD PUSH1 0x1 ADD SLOAD SWAP1 POP DUP2 DUP2 SWAP4 POP SWAP4 POP POP POP SWAP2 POP SWAP2 JUMP JUMPDEST PUSH0 PUSH2 0x449 DUP4 DUP4 DUP1 DUP1 PUSH1 0x1F ADD PUSH1 0x20 DUP1 SWAP2 DIV MUL PUSH1 0x20 ADD PUSH1 0x40 MLOAD SWAP1 DUP2 ADD PUSH1 0x40 MSTORE DUP1 SWAP4 SWAP3 SWAP2 SWAP1 DUP2 DUP2 MSTORE PUSH1 0x20 ADD DUP4 DUP4 DUP1 DUP3 DUP5 CALLDATACOPY PUSH0 DUP2 DUP5 ADD MSTORE PUSH1 0x1F NOT PUSH1 0x1F DUP3 ADD AND SWAP1 POP DUP1 DUP4 ADD SWAP3 POP POP POP POP POP POP POP PUSH2 0x450 JUMP JUMPDEST SWAP1 POP POP POP POP JUMP JUMPDEST PUSH1 0x60 PUSH0 DUP3 SWAP1 POP PUSH0 DUP2 MLOAD SUB PUSH2 0x4B3 JUMPI PUSH0 PUSH8 0xFFFFFFFFFFFFFFFF DUP2 GT ISZERO PUSH2 0x478 JUMPI PUSH2 0x477 PUSH2 0xC6A JUMP JUMPDEST JUMPDEST PUSH1 0x40 MLOAD SWAP1 DUP1 DUP3 MSTORE DUP1 PUSH1 0x1F ADD PUSH1 0x1F NOT AND PUSH1 0x20 ADD DUP3 ADD PUSH1 0x40 MSTORE DUP1 ISZERO PUSH2 0x4AA JUMPI DUP2 PUSH1 0x20 ADD PUSH1 0x1 DUP3 MUL DUP1 CALLDATASIZE DUP4 CALLDATACOPY DUP1 DUP3 ADD SWAP2 POP POP SWAP1 POP JUMPDEST POP SWAP2 POP POP PUSH2 0x63C JUMP JUMPDEST PUSH0 PUSH1 0x4 DUP3 MLOAD PUSH2 0x4C2 SWAP2 SWAP1 PUSH2 0xCC4 JUMP JUMPDEST EQ PUSH2 0x502 JUMPI PUSH1 0x40 MLOAD PUSH32 0x8C379A000000000000000000000000000000000000000000000000000000000 DUP2 MSTORE PUSH1 0x4 ADD PUSH2 0x4F9 SWAP1 PUSH2 0xD3E JUMP JUMPDEST PUSH1 0x40 MLOAD DUP1 SWAP2 SUB SWAP1 REVERT JUMPDEST PUSH0 PUSH1 0x40 MLOAD DUP1 PUSH1 0xA0 ADD PUSH1 0x40 MSTORE DUP1 PUSH1 0x80 DUP2 MSTORE PUSH1 0x20 ADD PUSH2 0xE2E PUSH1 0x80 SWAP2 CODECOPY SWAP1 POP PUSH0 PUSH1 0x3 PUSH1 0x4 DUP5 MLOAD PUSH2 0x52F SWAP2 SWAP1 PUSH2 0xD89 JUMP JUMPDEST PUSH2 0x539 SWAP2 SWAP1 PUSH2 0xDB9 JUMP JUMPDEST SWAP1 POP PUSH0 PUSH1 0x20 DUP3 PUSH2 0x549 SWAP2 SWAP1 PUSH2 0xDFA JUMP JUMPDEST PUSH8 0xFFFFFFFFFFFFFFFF DUP2 GT ISZERO PUSH2 0x562 JUMPI PUSH2 0x561 PUSH2 0xC6A JUMP JUMPDEST JUMPDEST PUSH1 0x40 MLOAD SWAP1 DUP1 DUP3 MSTORE DUP1 PUSH1 0x1F ADD PUSH1 0x1F NOT AND PUSH1 0x20 ADD DUP3 ADD PUSH1 0x40 MSTORE DUP1 ISZERO PUSH2 0x594 JUMPI DUP2 PUSH1 0x20 ADD PUSH1 0x1 DUP3 MUL DUP1 CALLDATASIZE DUP4 CALLDATACOPY DUP1 DUP3 ADD SWAP2 POP POP SWAP1 POP JUMPDEST POP SWAP1 POP DUP4 MLOAD DUP5 ADD MLOAD PUSH1 0x3D PUSH1 0xFF DUP3 AND SUB PUSH2 0x5C2 JUMPI PUSH1 0x1 DUP4 SUB SWAP3 POP PUSH2 0x3D3D PUSH2 0xFFFF DUP3 AND SUB PUSH2 0x5C1 JUMPI PUSH1 0x1 DUP4 SUB SWAP3 POP JUMPDEST JUMPDEST DUP3 DUP3 MSTORE PUSH1 0x1 DUP5 ADD DUP6 DUP7 MLOAD DUP2 ADD PUSH1 0x20 DUP6 ADD JUMPDEST DUP2 DUP4 LT ISZERO PUSH2 0x62F JUMPI PUSH1 0x4 DUP4 ADD SWAP3 POP DUP3 MLOAD PUSH1 0xFF DUP1 DUP3 AND DUP7 ADD MLOAD AND PUSH1 0xFF DUP1 DUP4 PUSH1 0x8 SHR AND DUP8 ADD MLOAD AND PUSH1 0x6 SHL ADD PUSH1 0xFF DUP1 DUP4 PUSH1 0x10 SHR AND DUP8 ADD MLOAD AND PUSH1 0xC SHL PUSH1 0xFF DUP1 DUP5 PUSH1 0x18 SHR AND DUP9 ADD MLOAD AND PUSH1 0x12 SHL ADD ADD DUP1 PUSH1 0xE8 SHL DUP4 MSTORE PUSH1 0x3 DUP4 ADD SWAP3 POP POP POP PUSH2 0x5D3 JUMP JUMPDEST POP POP POP POP POP DUP1 SWAP5 POP POP POP POP POP JUMPDEST SWAP2 SWAP1 POP JUMP JUMPDEST PUSH0 DUP1 REVERT JUMPDEST PUSH0 DUP1 REVERT JUMPDEST PUSH0 DUP2 SWAP1 POP SWAP2 SWAP1 POP JUMP JUMPDEST PUSH2 0x65B DUP2 PUSH2 0x649 JUMP JUMPDEST DUP2 EQ PUSH2 0x665 JUMPI PUSH0 DUP1 REVERT JUMPDEST POP JUMP JUMPDEST PUSH0 DUP2 CALLDATALOAD SWAP1 POP PUSH2 0x676 DUP2 PUSH2 0x652 JUMP JUMPDEST SWAP3 SWAP2 POP POP JUMP JUMPDEST PUSH0 PUSH1 0x20 DUP3 DUP5 SUB SLT ISZERO PUSH2 0x691 JUMPI PUSH2 0x690 PUSH2 0x641 JUMP JUMPDEST JUMPDEST PUSH0 PUSH2 0x69E DUP5 DUP3 DUP6 ADD PUSH2 0x668 JUMP JUMPDEST SWAP2 POP POP SWAP3 SWAP2 POP POP JUMP JUMPDEST PUSH2 0x6B0 DUP2 PUSH2 0x649 JUMP JUMPDEST DUP3 MSTORE POP POP JUMP JUMPDEST PUSH0 DUP2 SWAP1 POP SWAP2 SWAP1 POP JUMP JUMPDEST PUSH2 0x6C8 DUP2 PUSH2 0x6B6 JUMP JUMPDEST DUP3 MSTORE POP POP JUMP JUMPDEST PUSH1 0x40 DUP3 ADD PUSH0 DUP3 ADD MLOAD PUSH2 0x6E2 PUSH0 DUP6 ADD DUP3 PUSH2 0x6BF JUMP JUMPDEST POP PUSH1 0x20 DUP3 ADD MLOAD PUSH2 0x6F5 PUSH1 0x20 DUP6 ADD DUP3 PUSH2 0x6BF JUMP JUMPDEST POP POP POP POP JUMP JUMPDEST PUSH0 DUP2 ISZERO ISZERO SWAP1 POP SWAP2 SWAP1 POP JUMP JUMPDEST PUSH2 0x70F DUP2 PUSH2 0x6FB JUMP JUMPDEST DUP3 MSTORE POP POP JUMP JUMPDEST PUSH0 PUSH1 0x80 DUP3 ADD SWAP1 POP PUSH2 0x728 PUSH0 DUP4 ADD DUP7 PUSH2 0x6A7 JUMP JUMPDEST PUSH2 0x735 PUSH1 0x20 DUP4 ADD DUP6 PUSH2 0x6CE JUMP JUMPDEST PUSH2 0x742 PUSH1 0x60 DUP4 ADD DUP5 PUSH2 0x706 JUMP JUMPDEST SWAP5 SWAP4 POP POP POP POP JUMP JUMPDEST PUSH0 PUSH20 0xFFFFFFFFFFFFFFFFFFFFFFFFFFFFFFFFFFFFFFFF DUP3 AND SWAP1 POP SWAP2 SWAP1 POP JUMP JUMPDEST PUSH0 PUSH2 0x773 DUP3 PUSH2 0x74A JUMP JUMPDEST SWAP1 POP SWAP2 SWAP1 POP JUMP JUMPDEST PUSH2 0x783 DUP2 PUSH2 0x769 JUMP JUMPDEST DUP3 MSTORE POP POP JUMP JUMPDEST PUSH0 PUSH1 0x20 DUP3 ADD SWAP1 POP PUSH2 0x79C PUSH0 DUP4 ADD DUP5 PUSH2 0x77A JUMP JUMPDEST SWAP3 SWAP2 POP POP JUMP JUMPDEST PUSH0 DUP1 REVERT JUMPDEST PUSH0 DUP1 REVERT JUMPDEST PUSH0 DUP1 REVERT JUMPDEST PUSH0 DUP1 DUP4 PUSH1 0x1F DUP5 ADD SLT PUSH2 0x7C3 JUMPI PUSH2 0x7C2 PUSH2 0x7A2 JUMP JUMPDEST JUMPDEST DUP3 CALLDATALOAD SWAP1 POP PUSH8 0xFFFFFFFFFFFFFFFF DUP2 GT ISZERO PUSH2 0x7E0 JUMPI PUSH2 0x7DF PUSH2 0x7A6 JUMP JUMPDEST JUMPDEST PUSH1 0x20 DUP4 ADD SWAP2 POP DUP4 PUSH1 0x40 DUP3 MUL DUP4 ADD GT ISZERO PUSH2 0x7FC JUMPI PUSH2 0x7FB PUSH2 0x7AA JUMP JUMPDEST JUMPDEST SWAP3 POP SWAP3 SWAP1 POP JUMP JUMPDEST PUSH2 0x80C DUP2 PUSH2 0x6B6 JUMP JUMPDEST DUP2 EQ PUSH2 0x816 JUMPI PUSH0 DUP1 REVERT JUMPDEST POP JUMP JUMPDEST PUSH0 DUP2 CALLDATALOAD SWAP1 POP PUSH2 0x827 DUP2 PUSH2 0x803 JUMP JUMPDEST SWAP3 SWAP2 POP POP JUMP JUMPDEST PUSH0 DUP1 PUSH0 DUP1 PUSH0 PUSH1 0x80 DUP7 DUP9 SUB SLT ISZERO PUSH2 0x846 JUMPI PUSH2 0x845 PUSH2 0x641 JUMP JUMPDEST JUMPDEST PUSH0 PUSH2 0x853 DUP9 DUP3 DUP10 ADD PUSH2 0x668 JUMP JUMPDEST SWAP6 POP POP PUSH1 0x20 DUP7 ADD CALLDATALOAD PUSH8 0xFFFFFFFFFFFFFFFF DUP2 GT ISZERO PUSH2 0x874 JUMPI PUSH2 0x873 PUSH2 0x645 JUMP JUMPDEST JUMPDEST PUSH2 0x880 DUP9 DUP3 DUP10 ADD PUSH2 0x7AE JUMP JUMPDEST SWAP5 POP SWAP5 POP POP PUSH1 0x40 PUSH2 0x893 DUP9 DUP3 DUP10 ADD PUSH2 0x819 JUMP JUMPDEST SWAP3 POP POP PUSH1 0x60 PUSH2 0x8A4 DUP9 DUP3 DUP10 ADD PUSH2 0x819 JUMP JUMPDEST SWAP2 POP POP SWAP3 SWAP6 POP SWAP3 SWAP6 SWAP1 SWAP4 POP JUMP JUMPDEST PUSH2 0x8BA DUP2 PUSH2 0x6B6 JUMP JUMPDEST DUP3 MSTORE POP POP JUMP JUMPDEST PUSH0 PUSH1 0x40 DUP3 ADD SWAP1 POP PUSH2 0x8D3 PUSH0 DUP4 ADD DUP6 PUSH2 0x8B1 JUMP JUMPDEST PUSH2 0x8E0 PUSH1 0x20 DUP4 ADD DUP5 PUSH2 0x8B1 JUMP JUMPDEST SWAP4 SWAP3 POP POP POP JUMP JUMPDEST PUSH0 DUP1 DUP4 PUSH1 0x1F DUP5 ADD SLT PUSH2 0x8FC JUMPI PUSH2 0x8FB PUSH2 0x7A2 JUMP JUMPDEST JUMPDEST DUP3 CALLDATALOAD SWAP1 POP PUSH8 0xFFFFFFFFFFFFFFFF DUP2 GT ISZERO PUSH2 0x919 JUMPI PUSH2 0x918 PUSH2 0x7A6 JUMP JUMPDEST JUMPDEST PUSH1 0x20 DUP4 ADD SWAP2 POP DUP4 PUSH1 0x1 DUP3 MUL DUP4 ADD GT ISZERO PUSH2 0x935 JUMPI PUSH2 0x934 PUSH2 0x7AA JUMP JUMPDEST JUMPDEST SWAP3 POP SWAP3 SWAP1 POP JUMP JUMPDEST PUSH0 DUP1 PUSH1 0x20 DUP4 DUP6 SUB SLT ISZERO PUSH2 0x952 JUMPI PUSH2 0x951 PUSH2 0x641 JUMP JUMPDEST JUMPDEST PUSH0 DUP4 ADD CALLDATALOAD PUSH8 0xFFFFFFFFFFFFFFFF DUP2 GT ISZERO PUSH2 0x96F JUMPI PUSH2 0x96E PUSH2 0x645 JUMP JUMPDEST JUMPDEST PUSH2 0x97B DUP6 DUP3 DUP7 ADD PUSH2 0x8E7 JUMP JUMPDEST SWAP3 POP SWAP3 POP POP SWAP3 POP SWAP3 SWAP1 POP JUMP JUMPDEST PUSH0 DUP3 DUP3 MSTORE PUSH1 0x20 DUP3 ADD SWAP1 POP SWAP3 SWAP2 POP POP JUMP JUMPDEST PUSH32 0x486173206E6F20726967687420746F2063726561746520656C656374696F6E00 PUSH0 DUP3 ADD MSTORE POP JUMP JUMPDEST PUSH0 PUSH2 0x9CB PUSH1 0x1F DUP4 PUSH2 0x987 JUMP JUMPDEST SWAP2 POP PUSH2 0x9D6 DUP3 PUSH2 0x997 JUMP JUMPDEST PUSH1 0x20 DUP3 ADD SWAP1 POP SWAP2 SWAP1 POP JUMP JUMPDEST PUSH0 PUSH1 0x20 DUP3 ADD SWAP1 POP DUP2 DUP2 SUB PUSH0 DUP4 ADD MSTORE PUSH2 0x9F8 DUP2 PUSH2 0x9BF JUMP JUMPDEST SWAP1 POP SWAP2 SWAP1 POP JUMP JUMPDEST PUSH32 0x4E616D65206D7573742062652073706563696669656400000000000000000000 PUSH0 DUP3 ADD MSTORE POP JUMP JUMPDEST PUSH0 PUSH2 0xA33 PUSH1 0x16 DUP4 PUSH2 0x987 JUMP JUMPDEST SWAP2 POP PUSH2 0xA3E DUP3 PUSH2 0x9FF JUMP JUMPDEST PUSH1 0x20 DUP3 ADD SWAP1 POP SWAP2 SWAP1 POP JUMP JUMPDEST PUSH0 PUSH1 0x20 DUP3 ADD SWAP1 POP DUP2 DUP2 SUB PUSH0 DUP4 ADD MSTORE PUSH2 0xA60 DUP2 PUSH2 0xA27 JUMP JUMPDEST SWAP1 POP SWAP2 SWAP1 POP JUMP JUMPDEST PUSH32 0x456C656374696F6E20616C726561647920637265617465640000000000000000 PUSH0 DUP3 ADD MSTORE POP JUMP JUMPDEST PUSH0 PUSH2 0xA9B PUSH1 0x18 DUP4 PUSH2 0x987 JUMP JUMPDEST SWAP2 POP PUSH2 0xAA6 DUP3 PUSH2 0xA67 JUMP JUMPDEST PUSH1 0x20 DUP3 ADD SWAP1 POP SWAP2 SWAP1 POP JUMP JUMPDEST PUSH0 PUSH1 0x20 DUP3 ADD SWAP1 POP DUP2 DUP2 SUB PUSH0 DUP4 ADD MSTORE PUSH2 0xAC8 DUP2 PUSH2 0xA8F JUMP JUMPDEST SWAP1 POP SWAP2 SWAP1 POP JUMP JUMPDEST PUSH32 0x4E487B7100000000000000000000000000000000000000000000000000000000 PUSH0 MSTORE PUSH1 0x32 PUSH1 0x4 MSTORE PUSH1 0x24 PUSH0 REVERT JUMPDEST PUSH0 DUP2 CALLDATALOAD PUSH2 0xB08 DUP2 PUSH2 0x652 JUMP JUMPDEST DUP1 SWAP2 POP POP SWAP2 SWAP1 POP JUMP JUMPDEST PUSH0 DUP2 PUSH0 SHL SWAP1 POP SWAP2 SWAP1 POP JUMP JUMPDEST PUSH0 PUSH32 0xFFFFFFFFFFFFFFFFFFFFFFFFFFFFFFFFFFFFFFFFFFFFFFFFFFFFFFFFFFFFFFFF PUSH2 0xB47 DUP5 PUSH2 0xB11 JUMP JUMPDEST SWAP4 POP DUP1 NOT DUP4 AND SWAP3 POP DUP1 DUP5 AND DUP4 OR SWAP2 POP POP SWAP3 SWAP2 POP POP JUMP JUMPDEST PUSH0 PUSH2 0xB67 DUP3 PUSH2 0x649 JUMP JUMPDEST SWAP1 POP SWAP2 SWAP1 POP JUMP JUMPDEST PUSH0 DUP2 PUSH0 SHR SWAP1 POP SWAP2 SWAP1 POP JUMP JUMPDEST PUSH0 PUSH2 0xB83 DUP3 PUSH2 0xB6E JUMP JUMPDEST SWAP1 POP SWAP2 SWAP1 POP JUMP JUMPDEST PUSH2 0xB93 DUP3 PUSH2 0xB5D JUMP JUMPDEST PUSH2 0xBA6 PUSH2 0xB9F DUP3 PUSH2 0xB79 JUMP JUMPDEST DUP4 SLOAD PUSH2 0xB1C JUMP JUMPDEST DUP3 SSTORE POP POP POP JUMP JUMPDEST PUSH0 DUP2 CALLDATALOAD PUSH2 0xBB9 DUP2 PUSH2 0x803 JUMP JUMPDEST DUP1 SWAP2 POP POP SWAP2 SWAP1 POP JUMP JUMPDEST PUSH0 DUP2 SWAP1 POP SWAP2 SWAP1 POP JUMP JUMPDEST PUSH0 PUSH2 0xBE5 PUSH2 0xBE0 PUSH2 0xBDB DUP5 PUSH2 0x6B6 JUMP JUMPDEST PUSH2 0xBC2 JUMP JUMPDEST PUSH2 0x6B6 JUMP JUMPDEST SWAP1 POP SWAP2 SWAP1 POP JUMP JUMPDEST PUSH0 DUP2 SWAP1 POP SWAP2 SWAP1 POP JUMP JUMPDEST PUSH2 0xBFE DUP3 PUSH2 0xBCB JUMP JUMPDEST PUSH2 0xC11 PUSH2 0xC0A DUP3 PUSH2 0xBEC JUMP JUMPDEST DUP4 SLOAD PUSH2 0xB1C JUMP JUMPDEST DUP3 SSTORE POP POP POP JUMP JUMPDEST PUSH0 DUP2 ADD PUSH0 DUP4 ADD DUP1 PUSH2 0xC28 DUP2 PUSH2 0xAFC JUMP JUMPDEST SWAP1 POP PUSH2 0xC34 DUP2 DUP5 PUSH2 0xB8A JUMP JUMPDEST POP POP POP PUSH1 0x1 DUP2 ADD PUSH1 0x20 DUP4 ADD DUP1 PUSH2 0xC49 DUP2 PUSH2 0xBAD JUMP JUMPDEST SWAP1 POP PUSH2 0xC55 DUP2 DUP5 PUSH2 0xBF5 JUMP JUMPDEST POP POP POP POP POP JUMP JUMPDEST PUSH2 0xC66 DUP3 DUP3 PUSH2 0xC18 JUMP JUMPDEST POP POP JUMP JUMPDEST PUSH32 0x4E487B7100000000000000000000000000000000000000000000000000000000 PUSH0 MSTORE PUSH1 0x41 PUSH1 0x4 MSTORE PUSH1 0x24 PUSH0 REVERT JUMPDEST PUSH32 0x4E487B7100000000000000000000000000000000000000000000000000000000 PUSH0 MSTORE PUSH1 0x12 PUSH1 0x4 MSTORE PUSH1 0x24 PUSH0 REVERT JUMPDEST PUSH0 PUSH2 0xCCE DUP3 PUSH2 0x6B6 JUMP JUMPDEST SWAP2 POP PUSH2 0xCD9 DUP4 PUSH2 0x6B6 JUMP JUMPDEST SWAP3 POP DUP3 PUSH2 0xCE9 JUMPI PUSH2 0xCE8 PUSH2 0xC97 JUMP JUMPDEST JUMPDEST DUP3 DUP3 MOD SWAP1 POP SWAP3 SWAP2 POP POP JUMP JUMPDEST PUSH32 0x696E76616C696420626173653634206465636F64657220696E70757400000000 PUSH0 DUP3 ADD MSTORE POP JUMP JUMPDEST PUSH0 PUSH2 0xD28 PUSH1 0x1C DUP4 PUSH2 0x987 JUMP JUMPDEST SWAP2 POP PUSH2 0xD33 DUP3 PUSH2 0xCF4 JUMP JUMPDEST PUSH1 0x20 DUP3 ADD SWAP1 POP SWAP2 SWAP1 POP JUMP JUMPDEST PUSH0 PUSH1 0x20 DUP3 ADD SWAP1 POP DUP2 DUP2 SUB PUSH0 DUP4 ADD MSTORE PUSH2 0xD55 DUP2 PUSH2 0xD1C JUMP JUMPDEST SWAP1 POP SWAP2 SWAP1 POP JUMP JUMPDEST PUSH32 0x4E487B7100000000000000000000000000000000000000000000000000000000 PUSH0 MSTORE PUSH1 0x11 PUSH1 0x4 MSTORE PUSH1 0x24 PUSH0 REVERT JUMPDEST PUSH0 PUSH2 0xD93 DUP3 PUSH2 0x6B6 JUMP JUMPDEST SWAP2 POP PUSH2 0xD9E DUP4 PUSH2 0x6B6 JUMP JUMPDEST SWAP3 POP DUP3 PUSH2 0xDAE JUMPI PUSH2 0xDAD PUSH2 0xC97 JUMP JUMPDEST JUMPDEST DUP3 DUP3 DIV SWAP1 POP SWAP3 SWAP2 POP POP JUMP JUMPDEST PUSH0 PUSH2 0xDC3 DUP3 PUSH2 0x6B6 JUMP JUMPDEST SWAP2 POP PUSH2 0xDCE DUP4 PUSH2 0x6B6 JUMP JUMPDEST SWAP3 POP DUP3 DUP3 MUL PUSH2 0xDDC DUP2 PUSH2 0x6B6 JUMP JUMPDEST SWAP2 POP DUP3 DUP3 DIV DUP5 EQ DUP4 ISZERO OR PUSH2 0xDF3 JUMPI PUSH2 0xDF2 PUSH2 0xD5C JUMP JUMPDEST JUMPDEST POP SWAP3 SWAP2 POP POP JUMP JUMPDEST PUSH0 PUSH2 0xE04 DUP3 PUSH2 0x6B6 JUMP JUMPDEST SWAP2 POP PUSH2 0xE0F DUP4 PUSH2 0x6B6 JUMP JUMPDEST SWAP3 POP DUP3 DUP3 ADD SWAP1 POP DUP1 DUP3 GT ISZERO PUSH2 0xE27 JUMPI PUSH2 0xE26 PUSH2 0xD5C JUMP JUMPDEST JUMPDEST SWAP3 SWAP2 POP POP JUMP INVALID STOP STOP STOP STOP STOP STOP STOP STOP STOP STOP STOP STOP STOP STOP STOP STOP STOP STOP STOP STOP STOP STOP STOP STOP STOP STOP STOP STOP STOP STOP STOP STOP STOP STOP STOP STOP STOP STOP STOP STOP STOP STOP STOP RETURNDATACOPY STOP STOP STOP EXTCODEHASH CALLVALUE CALLDATALOAD CALLDATASIZE CALLDATACOPY CODESIZE CODECOPY GASPRICE EXTCODESIZE EXTCODECOPY RETURNDATASIZE STOP STOP STOP STOP STOP STOP STOP STOP ADD MUL SUB DIV SDIV MOD SMOD ADDMOD MULMOD EXP SIGNEXTEND 0xC 0xD 0xE 0xF LT GT SLT SGT EQ ISZERO AND OR XOR NOT STOP STOP STOP STOP STOP STOP BYTE SHL SHR SAR 0x1E 0x1F KECCAK256 0x21 0x22 0x23 0x24 0x25 0x26 0x27 0x28 0x29 0x2A 0x2B 0x2C 0x2D 0x2E 0x2F ADDRESS BALANCE ORIGIN CALLER STOP STOP STOP STOP STOP LOG2 PUSH5 0x6970667358 0x22 SLT KECCAK256 0xAF 0xEF CALLDATASIZE PUSH19 0xBC53D98CFFC378466259A8C09A3C5F02E52306 BALANCE 0x26 0xC4 0xB5 DUP12 PUSH20 0x510F0064736F6C63430008190033000000000000 "
				},
				"gasEstimates": {
					"creation": {
						"codeDepositCost": "762200",
						"executionCost": "25062",
						"totalCost": "787262"
					},
					"external": {
						"chairperson()": "2505",
						"createElection(bytes32,(bytes32,uint256)[],uint256,uint256)": "infinite",
						"elections(bytes32)": "infinite",
						"getPKey(bytes32)": "infinite",
						"vote(string)": "infinite"
					}
				},
				"methodIdentifiers": {
					"chairperson()": "2e4176cf",
					"createElection(bytes32,(bytes32,uint256)[],uint256,uint256)": "a57c072a",
					"elections(bytes32)": "05ab39b7",
					"getPKey(bytes32)": "df3dcb52",
					"vote(string)": "fc36e15b"
				}
			},
			"storageLayout": {
				"storage": [
					{
						"astId": 142,
						"contract": "contracts/3_Ballot.sol:Ballot",
						"label": "chairperson",
						"offset": 0,
						"slot": "0",
						"type": "t_address"
					},
					{
						"astId": 147,
						"contract": "contracts/3_Ballot.sol:Ballot",
						"label": "elections",
						"offset": 0,
						"slot": "1",
						"type": "t_mapping(t_bytes32,t_struct(Election)130_storage)"
					}
				],
				"types": {
					"t_address": {
						"encoding": "inplace",
						"label": "address",
						"numberOfBytes": "20"
					},
					"t_array(t_struct(Proposal)135_storage)dyn_storage": {
						"base": "t_struct(Proposal)135_storage",
						"encoding": "dynamic_array",
						"label": "struct Ballot.Proposal[]",
						"numberOfBytes": "32"
					},
					"t_bool": {
						"encoding": "inplace",
						"label": "bool",
						"numberOfBytes": "1"
					},
					"t_bytes32": {
						"encoding": "inplace",
						"label": "bytes32",
						"numberOfBytes": "32"
					},
					"t_mapping(t_bytes32,t_struct(Election)130_storage)": {
						"encoding": "mapping",
						"key": "t_bytes32",
						"label": "mapping(bytes32 => struct Ballot.Election)",
						"numberOfBytes": "32",
						"value": "t_struct(Election)130_storage"
					},
					"t_struct(Election)130_storage": {
						"encoding": "inplace",
						"label": "struct Ballot.Election",
						"members": [
							{
								"astId": 120,
								"contract": "contracts/3_Ballot.sol:Ballot",
								"label": "name",
								"offset": 0,
								"slot": "0",
								"type": "t_bytes32"
							},
							{
								"astId": 124,
								"contract": "contracts/3_Ballot.sol:Ballot",
								"label": "proposals",
								"offset": 0,
								"slot": "1",
								"type": "t_array(t_struct(Proposal)135_storage)dyn_storage"
							},
							{
								"astId": 127,
								"contract": "contracts/3_Ballot.sol:Ballot",
								"label": "publicKey",
								"offset": 0,
								"slot": "2",
								"type": "t_struct(RSAPublicKey)140_storage"
							},
							{
								"astId": 129,
								"contract": "contracts/3_Ballot.sol:Ballot",
								"label": "created",
								"offset": 0,
								"slot": "4",
								"type": "t_bool"
							}
						],
						"numberOfBytes": "160"
					},
					"t_struct(Proposal)135_storage": {
						"encoding": "inplace",
						"label": "struct Ballot.Proposal",
						"members": [
							{
								"astId": 132,
								"contract": "contracts/3_Ballot.sol:Ballot",
								"label": "name",
								"offset": 0,
								"slot": "0",
								"type": "t_bytes32"
							},
							{
								"astId": 134,
								"contract": "contracts/3_Ballot.sol:Ballot",
								"label": "voteCount",
								"offset": 0,
								"slot": "1",
								"type": "t_uint256"
							}
						],
						"numberOfBytes": "64"
					},
					"t_struct(RSAPublicKey)140_storage": {
						"encoding": "inplace",
						"label": "struct Ballot.RSAPublicKey",
						"members": [
							{
								"astId": 137,
								"contract": "contracts/3_Ballot.sol:Ballot",
								"label": "modulus",
								"offset": 0,
								"slot": "0",
								"type": "t_uint256"
							},
							{
								"astId": 139,
								"contract": "contracts/3_Ballot.sol:Ballot",
								"label": "exponent",
								"offset": 0,
								"slot": "1",
								"type": "t_uint256"
							}
						],
						"numberOfBytes": "64"
					},
					"t_uint256": {
						"encoding": "inplace",
						"label": "uint256",
						"numberOfBytes": "32"
					}
				}
			},
			"userdoc": {
				"kind": "user",
				"methods": {},
				"version": 1
			}
		}
	}
}