{
	"data": {
		"bytecode": {
			"linkReferences": {},
			"object": "6080604052348015600e575f80fd5b50335f806101000a81548173ffffffffffffffffffffffffffffffffffffffff021916908373ffffffffffffffffffffffffffffffffffffffff160217905550610ee38061005b5f395ff3fe608060405234801561000f575f80fd5b5060043610610055575f3560e01c806305ab39b7146100595780632e4176cf1461008b578063a57c072a146100a9578063df3dcb52146100c5578063fc36e15b146100f6575b5f80fd5b610073600480360381019061006e919061067c565b610112565b60405161008293929190610715565b60405180910390f35b610093610161565b6040516100a09190610789565b60405180910390f35b6100c360048036038101906100be919061082d565b610184565b005b6100df60048036038101906100da919061067c565b6103b8565b6040516100ed9291906108c0565b60405180910390f35b610110600480360381019061010b919061093c565b6103fc565b005b6001602052805f5260405f205f91509050805f015490806002016040518060400160405290815f820154815260200160018201548152505090806004015f9054906101000a900460ff16905083565b5f8054906101000a900473ffffffffffffffffffffffffffffffffffffffff1681565b5f8054906101000a900473ffffffffffffffffffffffffffffffffffffffff1673ffffffffffffffffffffffffffffffffffffffff163373ffffffffffffffffffffffffffffffffffffffff1614610211576040517f08c379a0000000000000000000000000000000000000000000000000000000008152600401610208906109e1565b60405180910390fd5b5f8503610253576040517f08c379a000000000000000000000000000000000000000000000000000000000815260040161024a90610a49565b60405180910390fd5b60015f8681526020019081526020015f206004015f9054906101000a900460ff16156102b4576040517f08c379a00000000000000000000000000000000000000000000000000000000081526004016102ab90610ab1565b60405180910390fd5b5f5b8484905081101561032f5760015f8781526020019081526020015f206001018585838181106102e8576102e7610acf565b5b905060400201908060018154018082558091505060019003905f5260205f2090600202015f9091909190915081816103209190610c5c565b505080806001019150506102b6565b508460015f8781526020019081526020015f205f018190555060405180604001604052808381526020018281525060015f8781526020019081526020015f206002015f820151815f0155602082015181600101559050506001805f8781526020019081526020015f206004015f6101000a81548160ff0219169083151502179055505050505050565b5f805f60015f8581526020019081526020015f206002015f015490505f60015f8681526020019081526020015f206002016001015490508181935093505050915091565b5f61044983838080601f0160208091040260200160405190810160405280939291908181526020018383808284375f81840152601f19601f82011690508083019250505050505050610450565b9050505050565b60605f8290505f8151036104b3575f67ffffffffffffffff81111561047857610477610c6a565b5b6040519080825280601f01601f1916602001820160405280156104aa5781602001600182028036833780820191505090505b5091505061063c565b5f600482516104c29190610cc4565b14610502576040517f08c379a00000000000000000000000000000000000000000000000000000000081526004016104f990610d3e565b60405180910390fd5b5f6040518060a0016040528060808152602001610e2e6080913990505f60036004845161052f9190610d89565b6105399190610db9565b90505f6020826105499190610dfa565b67ffffffffffffffff81111561056257610561610c6a565b5b6040519080825280601f01601f1916602001820160405280156105945781602001600182028036833780820191505090505b5090508351840151603d60ff8216036105c257600183039250613d3d61ffff8216036105c1576001830392505b5b828252600184018586518101602085015b8183101561062f57600483019250825160ff8082168601511660ff808360081c168701511660061b0160ff808360101c1687015116600c1b60ff808460181c168801511660121b01018060e81b835260038301925050506105d3565b5050505050809450505050505b919050565b5f80fd5b5f80fd5b5f819050919050565b61065b81610649565b8114610665575f80fd5b50565b5f8135905061067681610652565b92915050565b5f6020828403121561069157610690610641565b5b5f61069e84828501610668565b91505092915050565b6106b081610649565b82525050565b5f819050919050565b6106c8816106b6565b82525050565b604082015f8201516106e25f8501826106bf565b5060208201516106f560208501826106bf565b50505050565b5f8115159050919050565b61070f816106fb565b82525050565b5f6080820190506107285f8301866106a7565b61073560208301856106ce565b6107426060830184610706565b949350505050565b5f73ffffffffffffffffffffffffffffffffffffffff82169050919050565b5f6107738261074a565b9050919050565b61078381610769565b82525050565b5f60208201905061079c5f83018461077a565b92915050565b5f80fd5b5f80fd5b5f80fd5b5f8083601f8401126107c3576107c26107a2565b5b8235905067ffffffffffffffff8111156107e0576107df6107a6565b5b6020830191508360408202830111156107fc576107fb6107aa565b5b9250929050565b61080c816106b6565b8114610816575f80fd5b50565b5f8135905061082781610803565b92915050565b5f805f805f6080868803121561084657610845610641565b5b5f61085388828901610668565b955050602086013567ffffffffffffffff81111561087457610873610645565b5b610880888289016107ae565b9450945050604061089388828901610819565b92505060606108a488828901610819565b9150509295509295909350565b6108ba816106b6565b82525050565b5f6040820190506108d35f8301856108b1565b6108e060208301846108b1565b9392505050565b5f8083601f8401126108fc576108fb6107a2565b5b8235905067ffffffffffffffff811115610919576109186107a6565b5b602083019150836001820283011115610935576109346107aa565b5b9250929050565b5f806020838503121561095257610951610641565b5b5f83013567ffffffffffffffff81111561096f5761096e610645565b5b61097b858286016108e7565b92509250509250929050565b5f82825260208201905092915050565b7f486173206e6f20726967687420746f2063726561746520656c656374696f6e005f82015250565b5f6109cb601f83610987565b91506109d682610997565b602082019050919050565b5f6020820190508181035f8301526109f8816109bf565b9050919050565b7f4e616d65206d75737420626520737065636966696564000000000000000000005f82015250565b5f610a33601683610987565b9150610a3e826109ff565b602082019050919050565b5f6020820190508181035f830152610a6081610a27565b9050919050565b7f456c656374696f6e20616c7265616479206372656174656400000000000000005f82015250565b5f610a9b601883610987565b9150610aa682610a67565b602082019050919050565b5f6020820190508181035f830152610ac881610a8f565b9050919050565b7f4e487b71000000000000000000000000000000000000000000000000000000005f52603260045260245ffd5b5f8135610b0881610652565b80915050919050565b5f815f1b9050919050565b5f7fffffffffffffffffffffffffffffffffffffffffffffffffffffffffffffffff610b4784610b11565b9350801983169250808416831791505092915050565b5f610b6782610649565b9050919050565b5f815f1c9050919050565b5f610b8382610b6e565b9050919050565b610b9382610b5d565b610ba6610b9f82610b79565b8354610b1c565b8255505050565b5f8135610bb981610803565b80915050919050565b5f819050919050565b5f610be5610be0610bdb846106b6565b610bc2565b6106b6565b9050919050565b5f819050919050565b610bfe82610bcb565b610c11610c0a82610bec565b8354610b1c565b8255505050565b5f81015f830180610c2881610afc565b9050610c348184610b8a565b505050600181016020830180610c4981610bad565b9050610c558184610bf5565b5050505050565b610c668282610c18565b5050565b7f4e487b71000000000000000000000000000000000000000000000000000000005f52604160045260245ffd5b7f4e487b71000000000000000000000000000000000000000000000000000000005f52601260045260245ffd5b5f610cce826106b6565b9150610cd9836106b6565b925082610ce957610ce8610c97565b5b828206905092915050565b7f696e76616c696420626173653634206465636f64657220696e707574000000005f82015250565b5f610d28601c83610987565b9150610d3382610cf4565b602082019050919050565b5f6020820190508181035f830152610d5581610d1c565b9050919050565b7f4e487b71000000000000000000000000000000000000000000000000000000005f52601160045260245ffd5b5f610d93826106b6565b9150610d9e836106b6565b925082610dae57610dad610c97565b5b828204905092915050565b5f610dc3826106b6565b9150610dce836106b6565b9250828202610ddc816106b6565b91508282048414831517610df357610df2610d5c565b5b5092915050565b5f610e04826106b6565b9150610e0f836106b6565b9250828201905080821115610e2757610e26610d5c565b5b9291505056fe000000000000000000000000000000000000000000000000000000000000000000000000000000000000003e0000003f3435363738393a3b3c3d00000000000000000102030405060708090a0b0c0d0e0f101112131415161718190000000000001a1b1c1d1e1f202122232425262728292a2b2c2d2e2f303132330000000000a2646970667358221220afef3672bc53d98cffc378466259a8c09a3c5f02e523063126c4b58b73510f0064736f6c63430008190033",
			"opcodes": "PUSH1 0x80 PUSH1 0x40 MSTORE CALLVALUE DUP1 ISZERO PUSH1 0xE JUMPI PUSH0 DUP1 REVERT JUMPDEST POP CALLER PUSH0 DUP1 PUSH2 0x100 EXP DUP2 SLOAD DUP2 PUSH20 0xFFFFFFFFFFFFFFFFFFFFFFFFFFFFFFFFFFFFFFFF MUL NOT AND SWAP1 DUP4 PUSH20 0xFFFFFFFFFFFFFFFFFFFFFFFFFFFFFFFFFFFFFFFF AND MUL OR SWAP1 SSTORE POP PUSH2 0xEE3 DUP1 PUSH2 0x5B PUSH0 CODECOPY PUSH0 RETURN INVALID PUSH1 0x80 PUSH1 0x40 MSTORE CALLVALUE DUP1 ISZERO PUSH2 0xF JUMPI PUSH0 DUP1 REVERT JUMPDEST POP PUSH1 0x4 CALLDATASIZE LT PUSH2 0x55 JUMPI PUSH0 CALLDATALOAD PUSH1 0xE0 SHR DUP1 PUSH4 0x5AB39B7 EQ PUSH2 0x59 JUMPI DUP1 PUSH4 0x2E4176CF EQ PUSH2 0x8B JUMPI DUP1 PUSH4 0xA57C072A EQ PUSH2 0xA9 JUMPI DUP1 PUSH4 0xDF3DCB52 EQ PUSH2 0xC5 JUMPI DUP1 PUSH4 0xFC36E15B EQ PUSH2 0xF6 JUMPI JUMPDEST PUSH0 DUP1 REVERT JUMPDEST PUSH2 0x73 PUSH1 0x4 DUP1 CALLDATASIZE SUB DUP2 ADD SWAP1 PUSH2 0x6E SWAP2 SWAP1 PUSH2 0x67C JUMP JUMPDEST PUSH2 0x112 JUMP JUMPDEST PUSH1 0x40 MLOAD PUSH2 0x82 SWAP4 SWAP3 SWAP2 SWAP1 PUSH2 0x715 JUMP JUMPDEST PUSH1 0x40 MLOAD DUP1 SWAP2 SUB SWAP1 RETURN JUMPDEST PUSH2 0x93 PUSH2 0x161 JUMP JUMPDEST PUSH1 0x40 MLOAD PUSH2 0xA0 SWAP2 SWAP1 PUSH2 0x789 JUMP JUMPDEST PUSH1 0x40 MLOAD DUP1 SWAP2 SUB SWAP1 RETURN JUMPDEST PUSH2 0xC3 PUSH1 0x4 DUP1 CALLDATASIZE SUB DUP2 ADD SWAP1 PUSH2 0xBE SWAP2 SWAP1 PUSH2 0x82D JUMP JUMPDEST PUSH2 0x184 JUMP JUMPDEST STOP JUMPDEST PUSH2 0xDF PUSH1 0x4 DUP1 CALLDATASIZE SUB DUP2 ADD SWAP1 PUSH2 0xDA SWAP2 SWAP1 PUSH2 0x67C JUMP JUMPDEST PUSH2 0x3B8 JUMP JUMPDEST PUSH1 0x40 MLOAD PUSH2 0xED SWAP3 SWAP2 SWAP1 PUSH2 0x8C0 JUMP JUMPDEST PUSH1 0x40 MLOAD DUP1 SWAP2 SUB SWAP1 RETURN JUMPDEST PUSH2 0x110 PUSH1 0x4 DUP1 CALLDATASIZE SUB DUP2 ADD SWAP1 PUSH2 0x10B SWAP2 SWAP1 PUSH2 0x93C JUMP JUMPDEST PUSH2 0x3FC JUMP JUMPDEST STOP JUMPDEST PUSH1 0x1 PUSH1 0x20 MSTORE DUP1 PUSH0 MSTORE PUSH1 0x40 PUSH0 KECCAK256 PUSH0 SWAP2 POP SWAP1 POP DUP1 PUSH0 ADD SLOAD SWAP1 DUP1 PUSH1 0x2 ADD PUSH1 0x40 MLOAD DUP1 PUSH1 0x40 ADD PUSH1 0x40 MSTORE SWAP1 DUP2 PUSH0 DUP3 ADD SLOAD DUP2 MSTORE PUSH1 0x20 ADD PUSH1 0x1 DUP3 ADD SLOAD DUP2 MSTORE POP POP SWAP1 DUP1 PUSH1 0x4 ADD PUSH0 SWAP1 SLOAD SWAP1 PUSH2 0x100 EXP SWAP1 DIV PUSH1 0xFF AND SWAP1 POP DUP4 JUMP JUMPDEST PUSH0 DUP1 SLOAD SWAP1 PUSH2 0x100 EXP SWAP1 DIV PUSH20 0xFFFFFFFFFFFFFFFFFFFFFFFFFFFFFFFFFFFFFFFF AND DUP2 JUMP JUMPDEST PUSH0 DUP1 SLOAD SWAP1 PUSH2 0x100 EXP SWAP1 DIV PUSH20 0xFFFFFFFFFFFFFFFFFFFFFFFFFFFFFFFFFFFFFFFF AND PUSH20 0xFFFFFFFFFFFFFFFFFFFFFFFFFFFFFFFFFFFFFFFF AND CALLER PUSH20 0xFFFFFFFFFFFFFFFFFFFFFFFFFFFFFFFFFFFFFFFF AND EQ PUSH2 0x211 JUMPI PUSH1 0x40 MLOAD PUSH32 0x8C379A000000000000000000000000000000000000000000000000000000000 DUP2 MSTORE PUSH1 0x4 ADD PUSH2 0x208 SWAP1 PUSH2 0x9E1 JUMP JUMPDEST PUSH1 0x40 MLOAD DUP1 SWAP2 SUB SWAP1 REVERT JUMPDEST PUSH0 DUP6 SUB PUSH2 0x253 JUMPI PUSH1 0x40 MLOAD PUSH32 0x8C379A000000000000000000000000000000000000000000000000000000000 DUP2 MSTORE PUSH1 0x4 ADD PUSH2 0x24A SWAP1 PUSH2 0xA49 JUMP JUMPDEST PUSH1 0x40 MLOAD DUP1 SWAP2 SUB SWAP1 REVERT JUMPDEST PUSH1 0x1 PUSH0 DUP7 DUP2 MSTORE PUSH1 0x20 ADD SWAP1 DUP2 MSTORE PUSH1 0x20 ADD PUSH0 KECCAK256 PUSH1 0x4 ADD PUSH0 SWAP1 SLOAD SWAP1 PUSH2 0x100 EXP SWAP1 DIV PUSH1 0xFF AND ISZERO PUSH2 0x2B4 JUMPI PUSH1 0x40 MLOAD PUSH32 0x8C379A000000000000000000000000000000000000000000000000000000000 DUP2 MSTORE PUSH1 0x4 ADD PUSH2 0x2AB SWAP1 PUSH2 0xAB1 JUMP JUMPDEST PUSH1 0x40 MLOAD DUP1 SWAP2 SUB SWAP1 REVERT JUMPDEST PUSH0 JUMPDEST DUP5 DUP5 SWAP1 POP DUP2 LT ISZERO PUSH2 0x32F JUMPI PUSH1 0x1 PUSH0 DUP8 DUP2 MSTORE PUSH1 0x20 ADD SWAP1 DUP2 MSTORE PUSH1 0x20 ADD PUSH0 KECCAK256 PUSH1 0x1 ADD DUP6 DUP6 DUP4 DUP2 DUP2 LT PUSH2 0x2E8 JUMPI PUSH2 0x2E7 PUSH2 0xACF JUMP JUMPDEST JUMPDEST SWAP1 POP PUSH1 0x40 MUL ADD SWAP1 DUP1 PUSH1 0x1 DUP2 SLOAD ADD DUP1 DUP3 SSTORE DUP1 SWAP2 POP POP PUSH1 0x1 SWAP1 SUB SWAP1 PUSH0 MSTORE PUSH1 0x20 PUSH0 KECCAK256 SWAP1 PUSH1 0x2 MUL ADD PUSH0 SWAP1 SWAP2 SWAP1 SWAP2 SWAP1 SWAP2 POP DUP2 DUP2 PUSH2 0x320 SWAP2 SWAP1 PUSH2 0xC5C JUMP JUMPDEST POP POP DUP1 DUP1 PUSH1 0x1 ADD SWAP2 POP POP PUSH2 0x2B6 JUMP JUMPDEST POP DUP5 PUSH1 0x1 PUSH0 DUP8 DUP2 MSTORE PUSH1 0x20 ADD SWAP1 DUP2 MSTORE PUSH1 0x20 ADD PUSH0 KECCAK256 PUSH0 ADD DUP2 SWAP1 SSTORE POP PUSH1 0x40 MLOAD DUP1 PUSH1 0x40 ADD PUSH1 0x40 MSTORE DUP1 DUP4 DUP2 MSTORE PUSH1 0x20 ADD DUP3 DUP2 MSTORE POP PUSH1 0x1 PUSH0 DUP8 DUP2 MSTORE PUSH1 0x20 ADD SWAP1 DUP2 MSTORE PUSH1 0x20 ADD PUSH0 KECCAK256 PUSH1 0x2 ADD PUSH0 DUP3 ADD MLOAD DUP2 PUSH0 ADD SSTORE PUSH1 0x20 DUP3 ADD MLOAD DUP2 PUSH1 0x1 ADD SSTORE SWAP1 POP POP PUSH1 0x1 DUP1 PUSH0 DUP8 DUP2 MSTORE PUSH1 0x20 ADD SWAP1 DUP2 MSTORE PUSH1 0x20 ADD PUSH0 KECCAK256 PUSH1 0x4 ADD PUSH0 PUSH2 0x100 EXP DUP2 SLOAD DUP2 PUSH1 0xFF MUL NOT AND SWAP1 DUP4 ISZERO ISZERO MUL OR SWAP1 SSTORE POP POP POP POP POP POP JUMP JUMPDEST PUSH0 DUP1 PUSH0 PUSH1 0x1 PUSH0 DUP6 DUP2 MSTORE PUSH1 0x20 ADD SWAP1 DUP2 MSTORE PUSH1 0x20 ADD PUSH0 KECCAK256 PUSH1 0x2 ADD PUSH0 ADD SLOAD SWAP1 POP PUSH0 PUSH1 0x1 PUSH0 DUP7 DUP2 MSTORE PUSH1 0x20 ADD SWAP1 DUP2 MSTORE PUSH1 0x20 ADD PUSH0 KECCAK256 PUSH1 0x2 ADD PUSH1 0x1 ADD SLOAD SWAP1 POP DUP2 DUP2 SWAP4 POP SWAP4 POP POP POP SWAP2 POP SWAP2 JUMP JUMPDEST PUSH0 PUSH2 0x449 DUP4 DUP4 DUP1 DUP1 PUSH1 0x1F ADD PUSH1 0x20 DUP1 SWAP2 DIV MUL PUSH1 0x20 ADD PUSH1 0x40 MLOAD SWAP1 DUP2 ADD PUSH1 0x40 MSTORE DUP1 SWAP4 SWAP3 SWAP2 SWAP1 DUP2 DUP2 MSTORE PUSH1 0x20 ADD DUP4 DUP4 DUP1 DUP3 DUP5 CALLDATACOPY PUSH0 DUP2 DUP5 ADD MSTORE PUSH1 0x1F NOT PUSH1 0x1F DUP3 ADD AND SWAP1 POP DUP1 DUP4 ADD SWAP3 POP POP POP POP POP POP POP PUSH2 0x450 JUMP JUMPDEST SWAP1 POP POP POP POP JUMP JUMPDEST PUSH1 0x60 PUSH0 DUP3 SWAP1 POP PUSH0 DUP2 MLOAD SUB PUSH2 0x4B3 JUMPI PUSH0 PUSH8 0xFFFFFFFFFFFFFFFF DUP2 GT ISZERO PUSH2 0x478 JUMPI PUSH2 0x477 PUSH2 0xC6A JUMP JUMPDEST JUMPDEST PUSH1 0x40 MLOAD SWAP1 DUP1 DUP3 MSTORE DUP1 PUSH1 0x1F ADD PUSH1 0x1F NOT AND PUSH1 0x20 ADD DUP3 ADD PUSH1 0x40 MSTORE DUP1 ISZERO PUSH2 0x4AA JUMPI DUP2 PUSH1 0x20 ADD PUSH1 0x1 DUP3 MUL DUP1 CALLDATASIZE DUP4 CALLDATACOPY DUP1 DUP3 ADD SWAP2 POP POP SWAP1 POP JUMPDEST POP SWAP2 POP POP PUSH2 0x63C JUMP JUMPDEST PUSH0 PUSH1 0x4 DUP3 MLOAD PUSH2 0x4C2 SWAP2 SWAP1 PUSH2 0xCC4 JUMP JUMPDEST EQ PUSH2 0x502 JUMPI PUSH1 0x40 MLOAD PUSH32 0x8C379A000000000000000000000000000000000000000000000000000000000 DUP2 MSTORE PUSH1 0x4 ADD PUSH2 0x4F9 SWAP1 PUSH2 0xD3E JUMP JUMPDEST PUSH1 0x40 MLOAD DUP1 SWAP2 SUB SWAP1 REVERT JUMPDEST PUSH0 PUSH1 0x40 MLOAD DUP1 PUSH1 0xA0 ADD PUSH1 0x40 MSTORE DUP1 PUSH1 0x80 DUP2 MSTORE PUSH1 0x20 ADD PUSH2 0xE2E PUSH1 0x80 SWAP2 CODECOPY SWAP1 POP PUSH0 PUSH1 0x3 PUSH1 0x4 DUP5 MLOAD PUSH2 0x52F SWAP2 SWAP1 PUSH2 0xD89 JUMP JUMPDEST PUSH2 0x539 SWAP2 SWAP1 PUSH2 0xDB9 JUMP JUMPDEST SWAP1 POP PUSH0 PUSH1 0x20 DUP3 PUSH2 0x549 SWAP2 SWAP1 PUSH2 0xDFA JUMP JUMPDEST PUSH8 0xFFFFFFFFFFFFFFFF DUP2 GT ISZERO PUSH2 0x562 JUMPI PUSH2 0x561 PUSH2 0xC6A JUMP JUMPDEST JUMPDEST PUSH1 0x40 MLOAD SWAP1 DUP1 DUP3 MSTORE DUP1 PUSH1 0x1F ADD PUSH1 0x1F NOT AND PUSH1 0x20 ADD DUP3 ADD PUSH1 0x40 MSTORE DUP1 ISZERO PUSH2 0x594 JUMPI DUP2 PUSH1 0x20 ADD PUSH1 0x1 DUP3 MUL DUP1 CALLDATASIZE DUP4 CALLDATACOPY DUP1 DUP3 ADD SWAP2 POP POP SWAP1 POP JUMPDEST POP SWAP1 POP DUP4 MLOAD DUP5 ADD MLOAD PUSH1 0x3D PUSH1 0xFF DUP3 AND SUB PUSH2 0x5C2 JUMPI PUSH1 0x1 DUP4 SUB SWAP3 POP PUSH2 0x3D3D PUSH2 0xFFFF DUP3 AND SUB PUSH2 0x5C1 JUMPI PUSH1 0x1 DUP4 SUB SWAP3 POP JUMPDEST JUMPDEST DUP3 DUP3 MSTORE PUSH1 0x1 DUP5 ADD DUP6 DUP7 MLOAD DUP2 ADD PUSH1 0x20 DUP6 ADD JUMPDEST DUP2 DUP4 LT ISZERO PUSH2 0x62F JUMPI PUSH1 0x4 DUP4 ADD SWAP3 POP DUP3 MLOAD PUSH1 0xFF DUP1 DUP3 AND DUP7 ADD MLOAD AND PUSH1 0xFF DUP1 DUP4 PUSH1 0x8 SHR AND DUP8 ADD MLOAD AND PUSH1 0x6 SHL ADD PUSH1 0xFF DUP1 DUP4 PUSH1 0x10 SHR AND DUP8 ADD MLOAD AND PUSH1 0xC SHL PUSH1 0xFF DUP1 DUP5 PUSH1 0x18 SHR AND DUP9 ADD MLOAD AND PUSH1 0x12 SHL ADD ADD DUP1 PUSH1 0xE8 SHL DUP4 MSTORE PUSH1 0x3 DUP4 ADD SWAP3 POP POP POP PUSH2 0x5D3 JUMP JUMPDEST POP POP POP POP POP DUP1 SWAP5 POP POP POP POP POP JUMPDEST SWAP2 SWAP1 POP JUMP JUMPDEST PUSH0 DUP1 REVERT JUMPDEST PUSH0 DUP1 REVERT JUMPDEST PUSH0 DUP2 SWAP1 POP SWAP2 SWAP1 POP JUMP JUMPDEST PUSH2 0x65B DUP2 PUSH2 0x649 JUMP JUMPDEST DUP2 EQ PUSH2 0x665 JUMPI PUSH0 DUP1 REVERT JUMPDEST POP JUMP JUMPDEST PUSH0 DUP2 CALLDATALOAD SWAP1 POP PUSH2 0x676 DUP2 PUSH2 0x652 JUMP JUMPDEST SWAP3 SWAP2 POP POP JUMP JUMPDEST PUSH0 PUSH1 0x20 DUP3 DUP5 SUB SLT ISZERO PUSH2 0x691 JUMPI PUSH2 0x690 PUSH2 0x641 JUMP JUMPDEST JUMPDEST PUSH0 PUSH2 0x69E DUP5 DUP3 DUP6 ADD PUSH2 0x668 JUMP JUMPDEST SWAP2 POP POP SWAP3 SWAP2 POP POP JUMP JUMPDEST PUSH2 0x6B0 DUP2 PUSH2 0x649 JUMP JUMPDEST DUP3 MSTORE POP POP JUMP JUMPDEST PUSH0 DUP2 SWAP1 POP SWAP2 SWAP1 POP JUMP JUMPDEST PUSH2 0x6C8 DUP2 PUSH2 0x6B6 JUMP JUMPDEST DUP3 MSTORE POP POP JUMP JUMPDEST PUSH1 0x40 DUP3 ADD PUSH0 DUP3 ADD MLOAD PUSH2 0x6E2 PUSH0 DUP6 ADD DUP3 PUSH2 0x6BF JUMP JUMPDEST POP PUSH1 0x20 DUP3 ADD MLOAD PUSH2 0x6F5 PUSH1 0x20 DUP6 ADD DUP3 PUSH2 0x6BF JUMP JUMPDEST POP POP POP POP JUMP JUMPDEST PUSH0 DUP2 ISZERO ISZERO SWAP1 POP SWAP2 SWAP1 POP JUMP JUMPDEST PUSH2 0x70F DUP2 PUSH2 0x6FB JUMP JUMPDEST DUP3 MSTORE POP POP JUMP JUMPDEST PUSH0 PUSH1 0x80 DUP3 ADD SWAP1 POP PUSH2 0x728 PUSH0 DUP4 ADD DUP7 PUSH2 0x6A7 JUMP JUMPDEST PUSH2 0x735 PUSH1 0x20 DUP4 ADD DUP6 PUSH2 0x6CE JUMP JUMPDEST PUSH2 0x742 PUSH1 0x60 DUP4 ADD DUP5 PUSH2 0x706 JUMP JUMPDEST SWAP5 SWAP4 POP POP POP POP JUMP JUMPDEST PUSH0 PUSH20 0xFFFFFFFFFFFFFFFFFFFFFFFFFFFFFFFFFFFFFFFF DUP3 AND SWAP1 POP SWAP2 SWAP1 POP JUMP JUMPDEST PUSH0 PUSH2 0x773 DUP3 PUSH2 0x74A JUMP JUMPDEST SWAP1 POP SWAP2 SWAP1 POP JUMP JUMPDEST PUSH2 0x783 DUP2 PUSH2 0x769 JUMP JUMPDEST DUP3 MSTORE POP POP JUMP JUMPDEST PUSH0 PUSH1 0x20 DUP3 ADD SWAP1 POP PUSH2 0x79C PUSH0 DUP4 ADD DUP5 PUSH2 0x77A JUMP JUMPDEST SWAP3 SWAP2 POP POP JUMP JUMPDEST PUSH0 DUP1 REVERT JUMPDEST PUSH0 DUP1 REVERT JUMPDEST PUSH0 DUP1 REVERT JUMPDEST PUSH0 DUP1 DUP4 PUSH1 0x1F DUP5 ADD SLT PUSH2 0x7C3 JUMPI PUSH2 0x7C2 PUSH2 0x7A2 JUMP JUMPDEST JUMPDEST DUP3 CALLDATALOAD SWAP1 POP PUSH8 0xFFFFFFFFFFFFFFFF DUP2 GT ISZERO PUSH2 0x7E0 JUMPI PUSH2 0x7DF PUSH2 0x7A6 JUMP JUMPDEST JUMPDEST PUSH1 0x20 DUP4 ADD SWAP2 POP DUP4 PUSH1 0x40 DUP3 MUL DUP4 ADD GT ISZERO PUSH2 0x7FC JUMPI PUSH2 0x7FB PUSH2 0x7AA JUMP JUMPDEST JUMPDEST SWAP3 POP SWAP3 SWAP1 POP JUMP JUMPDEST PUSH2 0x80C DUP2 PUSH2 0x6B6 JUMP JUMPDEST DUP2 EQ PUSH2 0x816 JUMPI PUSH0 DUP1 REVERT JUMPDEST POP JUMP JUMPDEST PUSH0 DUP2 CALLDATALOAD SWAP1 POP PUSH2 0x827 DUP2 PUSH2 0x803 JUMP JUMPDEST SWAP3 SWAP2 POP POP JUMP JUMPDEST PUSH0 DUP1 PUSH0 DUP1 PUSH0 PUSH1 0x80 DUP7 DUP9 SUB SLT ISZERO PUSH2 0x846 JUMPI PUSH2 0x845 PUSH2 0x641 JUMP JUMPDEST JUMPDEST PUSH0 PUSH2 0x853 DUP9 DUP3 DUP10 ADD PUSH2 0x668 JUMP JUMPDEST SWAP6 POP POP PUSH1 0x20 DUP7 ADD CALLDATALOAD PUSH8 0xFFFFFFFFFFFFFFFF DUP2 GT ISZERO PUSH2 0x874 JUMPI PUSH2 0x873 PUSH2 0x645 JUMP JUMPDEST JUMPDEST PUSH2 0x880 DUP9 DUP3 DUP10 ADD PUSH2 0x7AE JUMP JUMPDEST SWAP5 POP SWAP5 POP POP PUSH1 0x40 PUSH2 0x893 DUP9 DUP3 DUP10 ADD PUSH2 0x819 JUMP JUMPDEST SWAP3 POP POP PUSH1 0x60 PUSH2 0x8A4 DUP9 DUP3 DUP10 ADD PUSH2 0x819 JUMP JUMPDEST SWAP2 POP POP SWAP3 SWAP6 POP SWAP3 SWAP6 SWAP1 SWAP4 POP JUMP JUMPDEST PUSH2 0x8BA DUP2 PUSH2 0x6B6 JUMP JUMPDEST DUP3 MSTORE POP POP JUMP JUMPDEST PUSH0 PUSH1 0x40 DUP3 ADD SWAP1 POP PUSH2 0x8D3 PUSH0 DUP4 ADD DUP6 PUSH2 0x8B1 JUMP JUMPDEST PUSH2 0x8E0 PUSH1 0x20 DUP4 ADD DUP5 PUSH2 0x8B1 JUMP JUMPDEST SWAP4 SWAP3 POP POP POP JUMP JUMPDEST PUSH0 DUP1 DUP4 PUSH1 0x1F DUP5 ADD SLT PUSH2 0x8FC JUMPI PUSH2 0x8FB PUSH2 0x7A2 JUMP JUMPDEST JUMPDEST DUP3 CALLDATALOAD SWAP1 POP PUSH8 0xFFFFFFFFFFFFFFFF DUP2 GT ISZERO PUSH2 0x919 JUMPI PUSH2 0x918 PUSH2 0x7A6 JUMP JUMPDEST JUMPDEST PUSH1 0x20 DUP4 ADD SWAP2 POP DUP4 PUSH1 0x1 DUP3 MUL DUP4 ADD GT ISZERO PUSH2 0x935 JUMPI PUSH2 0x934 PUSH2 0x7AA JUMP JUMPDEST JUMPDEST SWAP3 POP SWAP3 SWAP1 POP JUMP JUMPDEST PUSH0 DUP1 PUSH1 0x20 DUP4 DUP6 SUB SLT ISZERO PUSH2 0x952 JUMPI PUSH2 0x951 PUSH2 0x641 JUMP JUMPDEST JUMPDEST PUSH0 DUP4 ADD CALLDATALOAD PUSH8 0xFFFFFFFFFFFFFFFF DUP2 GT ISZERO PUSH2 0x96F JUMPI PUSH2 0x96E PUSH2 0x645 JUMP JUMPDEST JUMPDEST PUSH2 0x97B DUP6 DUP3 DUP7 ADD PUSH2 0x8E7 JUMP JUMPDEST SWAP3 POP SWAP3 POP POP SWAP3 POP SWAP3 SWAP1 POP JUMP JUMPDEST PUSH0 DUP3 DUP3 MSTORE PUSH1 0x20 DUP3 ADD SWAP1 POP SWAP3 SWAP2 POP POP JUMP JUMPDEST PUSH32 0x486173206E6F20726967687420746F2063726561746520656C656374696F6E00 PUSH0 DUP3 ADD MSTORE POP JUMP JUMPDEST PUSH0 PUSH2 0x9CB PUSH1 0x1F DUP4 PUSH2 0x987 JUMP JUMPDEST SWAP2 POP PUSH2 0x9D6 DUP3 PUSH2 0x997 JUMP JUMPDEST PUSH1 0x20 DUP3 ADD SWAP1 POP SWAP2 SWAP1 POP JUMP JUMPDEST PUSH0 PUSH1 0x20 DUP3 ADD SWAP1 POP DUP2 DUP2 SUB PUSH0 DUP4 ADD MSTORE PUSH2 0x9F8 DUP2 PUSH2 0x9BF JUMP JUMPDEST SWAP1 POP SWAP2 SWAP1 POP JUMP JUMPDEST PUSH32 0x4E616D65206D7573742062652073706563696669656400000000000000000000 PUSH0 DUP3 ADD MSTORE POP JUMP JUMPDEST PUSH0 PUSH2 0xA33 PUSH1 0x16 DUP4 PUSH2 0x987 JUMP JUMPDEST SWAP2 POP PUSH2 0xA3E DUP3 PUSH2 0x9FF JUMP JUMPDEST PUSH1 0x20 DUP3 ADD SWAP1 POP SWAP2 SWAP1 POP JUMP JUMPDEST PUSH0 PUSH1 0x20 DUP3 ADD SWAP1 POP DUP2 DUP2 SUB PUSH0 DUP4 ADD MSTORE PUSH2 0xA60 DUP2 PUSH2 0xA27 JUMP JUMPDEST SWAP1 POP SWAP2 SWAP1 POP JUMP JUMPDEST PUSH32 0x456C656374696F6E20616C726561647920637265617465640000000000000000 PUSH0 DUP3 ADD MSTORE POP JUMP JUMPDEST PUSH0 PUSH2 0xA9B PUSH1 0x18 DUP4 PUSH2 0x987 JUMP JUMPDEST SWAP2 POP PUSH2 0xAA6 DUP3 PUSH2 0xA67 JUMP JUMPDEST PUSH1 0x20 DUP3 ADD SWAP1 POP SWAP2 SWAP1 POP JUMP JUMPDEST PUSH0 PUSH1 0x20 DUP3 ADD SWAP1 POP DUP2 DUP2 SUB PUSH0 DUP4 ADD MSTORE PUSH2 0xAC8 DUP2 PUSH2 0xA8F JUMP JUMPDEST SWAP1 POP SWAP2 SWAP1 POP JUMP JUMPDEST PUSH32 0x4E487B7100000000000000000000000000000000000000000000000000000000 PUSH0 MSTORE PUSH1 0x32 PUSH1 0x4 MSTORE PUSH1 0x24 PUSH0 REVERT JUMPDEST PUSH0 DUP2 CALLDATALOAD PUSH2 0xB08 DUP2 PUSH2 0x652 JUMP JUMPDEST DUP1 SWAP2 POP POP SWAP2 SWAP1 POP JUMP JUMPDEST PUSH0 DUP2 PUSH0 SHL SWAP1 POP SWAP2 SWAP1 POP JUMP JUMPDEST PUSH0 PUSH32 0xFFFFFFFFFFFFFFFFFFFFFFFFFFFFFFFFFFFFFFFFFFFFFFFFFFFFFFFFFFFFFFFF PUSH2 0xB47 DUP5 PUSH2 0xB11 JUMP JUMPDEST SWAP4 POP DUP1 NOT DUP4 AND SWAP3 POP DUP1 DUP5 AND DUP4 OR SWAP2 POP POP SWAP3 SWAP2 POP POP JUMP JUMPDEST PUSH0 PUSH2 0xB67 DUP3 PUSH2 0x649 JUMP JUMPDEST SWAP1 POP SWAP2 SWAP1 POP JUMP JUMPDEST PUSH0 DUP2 PUSH0 SHR SWAP1 POP SWAP2 SWAP1 POP JUMP JUMPDEST PUSH0 PUSH2 0xB83 DUP3 PUSH2 0xB6E JUMP JUMPDEST SWAP1 POP SWAP2 SWAP1 POP JUMP JUMPDEST PUSH2 0xB93 DUP3 PUSH2 0xB5D JUMP JUMPDEST PUSH2 0xBA6 PUSH2 0xB9F DUP3 PUSH2 0xB79 JUMP JUMPDEST DUP4 SLOAD PUSH2 0xB1C JUMP JUMPDEST DUP3 SSTORE POP POP POP JUMP JUMPDEST PUSH0 DUP2 CALLDATALOAD PUSH2 0xBB9 DUP2 PUSH2 0x803 JUMP JUMPDEST DUP1 SWAP2 POP POP SWAP2 SWAP1 POP JUMP JUMPDEST PUSH0 DUP2 SWAP1 POP SWAP2 SWAP1 POP JUMP JUMPDEST PUSH0 PUSH2 0xBE5 PUSH2 0xBE0 PUSH2 0xBDB DUP5 PUSH2 0x6B6 JUMP JUMPDEST PUSH2 0xBC2 JUMP JUMPDEST PUSH2 0x6B6 JUMP JUMPDEST SWAP1 POP SWAP2 SWAP1 POP JUMP JUMPDEST PUSH0 DUP2 SWAP1 POP SWAP2 SWAP1 POP JUMP JUMPDEST PUSH2 0xBFE DUP3 PUSH2 0xBCB JUMP JUMPDEST PUSH2 0xC11 PUSH2 0xC0A DUP3 PUSH2 0xBEC JUMP JUMPDEST DUP4 SLOAD PUSH2 0xB1C JUMP JUMPDEST DUP3 SSTORE POP POP POP JUMP JUMPDEST PUSH0 DUP2 ADD PUSH0 DUP4 ADD DUP1 PUSH2 0xC28 DUP2 PUSH2 0xAFC JUMP JUMPDEST SWAP1 POP PUSH2 0xC34 DUP2 DUP5 PUSH2 0xB8A JUMP JUMPDEST POP POP POP PUSH1 0x1 DUP2 ADD PUSH1 0x20 DUP4 ADD DUP1 PUSH2 0xC49 DUP2 PUSH2 0xBAD JUMP JUMPDEST SWAP1 POP PUSH2 0xC55 DUP2 DUP5 PUSH2 0xBF5 JUMP JUMPDEST POP POP POP POP POP JUMP JUMPDEST PUSH2 0xC66 DUP3 DUP3 PUSH2 0xC18 JUMP JUMPDEST POP POP JUMP JUMPDEST PUSH32 0x4E487B7100000000000000000000000000000000000000000000000000000000 PUSH0 MSTORE PUSH1 0x41 PUSH1 0x4 MSTORE PUSH1 0x24 PUSH0 REVERT JUMPDEST PUSH32 0x4E487B7100000000000000000000000000000000000000000000000000000000 PUSH0 MSTORE PUSH1 0x12 PUSH1 0x4 MSTORE PUSH1 0x24 PUSH0 REVERT JUMPDEST PUSH0 PUSH2 0xCCE DUP3 PUSH2 0x6B6 JUMP JUMPDEST SWAP2 POP PUSH2 0xCD9 DUP4 PUSH2 0x6B6 JUMP JUMPDEST SWAP3 POP DUP3 PUSH2 0xCE9 JUMPI PUSH2 0xCE8 PUSH2 0xC97 JUMP JUMPDEST JUMPDEST DUP3 DUP3 MOD SWAP1 POP SWAP3 SWAP2 POP POP JUMP JUMPDEST PUSH32 0x696E76616C696420626173653634206465636F64657220696E70757400000000 PUSH0 DUP3 ADD MSTORE POP JUMP JUMPDEST PUSH0 PUSH2 0xD28 PUSH1 0x1C DUP4 PUSH2 0x987 JUMP JUMPDEST SWAP2 POP PUSH2 0xD33 DUP3 PUSH2 0xCF4 JUMP JUMPDEST PUSH1 0x20 DUP3 ADD SWAP1 POP SWAP2 SWAP1 POP JUMP JUMPDEST PUSH0 PUSH1 0x20 DUP3 ADD SWAP1 POP DUP2 DUP2 SUB PUSH0 DUP4 ADD MSTORE PUSH2 0xD55 DUP2 PUSH2 0xD1C JUMP JUMPDEST SWAP1 POP SWAP2 SWAP1 POP JUMP JUMPDEST PUSH32 0x4E487B7100000000000000000000000000000000000000000000000000000000 PUSH0 MSTORE PUSH1 0x11 PUSH1 0x4 MSTORE PUSH1 0x24 PUSH0 REVERT JUMPDEST PUSH0 PUSH2 0xD93 DUP3 PUSH2 0x6B6 JUMP JUMPDEST SWAP2 POP PUSH2 0xD9E DUP4 PUSH2 0x6B6 JUMP JUMPDEST SWAP3 POP DUP3 PUSH2 0xDAE JUMPI PUSH2 0xDAD PUSH2 0xC97 JUMP JUMPDEST JUMPDEST DUP3 DUP3 DIV SWAP1 POP SWAP3 SWAP2 POP POP JUMP JUMPDEST PUSH0 PUSH2 0xDC3 DUP3 PUSH2 0x6B6 JUMP JUMPDEST SWAP2 POP PUSH2 0xDCE DUP4 PUSH2 0x6B6 JUMP JUMPDEST SWAP3 POP DUP3 DUP3 MUL PUSH2 0xDDC DUP2 PUSH2 0x6B6 JUMP JUMPDEST SWAP2 POP DUP3 DUP3 DIV DUP5 EQ DUP4 ISZERO OR PUSH2 0xDF3 JUMPI PUSH2 0xDF2 PUSH2 0xD5C JUMP JUMPDEST JUMPDEST POP SWAP3 SWAP2 POP POP JUMP JUMPDEST PUSH0 PUSH2 0xE04 DUP3 PUSH2 0x6B6 JUMP JUMPDEST SWAP2 POP PUSH2 0xE0F DUP4 PUSH2 0x6B6 JUMP JUMPDEST SWAP3 POP DUP3 DUP3 ADD SWAP1 POP DUP1 DUP3 GT ISZERO PUSH2 0xE27 JUMPI PUSH2 0xE26 PUSH2 0xD5C JUMP JUMPDEST JUMPDEST SWAP3 SWAP2 POP POP JUMP INVALID STOP STOP STOP STOP STOP STOP STOP STOP STOP STOP STOP STOP STOP STOP STOP STOP STOP STOP STOP STOP STOP STOP STOP STOP STOP STOP STOP STOP STOP STOP STOP STOP STOP STOP STOP STOP STOP STOP STOP STOP STOP STOP STOP RETURNDATACOPY STOP STOP STOP EXTCODEHASH CALLVALUE CALLDATALOAD CALLDATASIZE CALLDATACOPY CODESIZE CODECOPY GASPRICE EXTCODESIZE EXTCODECOPY RETURNDATASIZE STOP STOP STOP STOP STOP STOP STOP STOP ADD MUL SUB DIV SDIV MOD SMOD ADDMOD MULMOD EXP SIGNEXTEND 0xC 0xD 0xE 0xF LT GT SLT SGT EQ ISZERO AND OR XOR NOT STOP STOP STOP STOP STOP STOP BYTE SHL SHR SAR 0x1E 0x1F KECCAK256 0x21 0x22 0x23 0x24 0x25 0x26 0x27 0x28 0x29 0x2A 0x2B 0x2C 0x2D 0x2E 0x2F ADDRESS BALANCE ORIGIN CALLER STOP STOP STOP STOP STOP LOG2 PUSH5 0x6970667358 0x22 SLT KECCAK256 0xAF 0xEF CALLDATASIZE PUSH19 0xBC53D98CFFC378466259A8C09A3C5F02E52306 BALANCE 0x26 0xC4 0xB5 DUP12 PUSH20 0x510F0064736F6C63430008190033000000000000 "
		},
		"gasEstimates": {
			"creation": {
				"codeDepositCost": "762200",
				"executionCost": "25062",
				"totalCost": "787262"
			},
			"external": {
				"chairperson()": "2505",
				"createElection(bytes32,(bytes32,uint256)[],uint256,uint256)": "infinite",
				"elections(bytes32)": "infinite",
				"getPKey(bytes32)": "infinite",
				"vote(string)": "infinite"
			}
		},
		"methodIdentifiers": {
			"chairperson()": "2e4176cf",
			"createElection(bytes32,(bytes32,uint256)[],uint256,uint256)": "a57c072a",
			"elections(bytes32)": "05ab39b7",
			"getPKey(bytes32)": "df3dcb52",
			"vote(string)": "fc36e15b"
		}
	},
	"abi": [
		{
			"inputs": [],
			"stateMutability": "nonpayable",
			"type": "constructor"
		},
		{
			"inputs": [],
			"name": "chairperson",
			"outputs": [
				{
					"internalType": "address",
					"name": "",
					"type": "address"
				}
			],
			"stateMutability": "view",
			"type": "function"
		},
		{
			"inputs": [
				{
					"internalType": "bytes32",
					"name": "name",
					"type": "bytes32"
				},
				{
					"components": [
						{
							"internalType": "bytes32",
							"name": "name",
							"type": "bytes32"
						},
						{
							"internalType": "uint256",
							"name": "voteCount",
							"type": "uint256"
						}
					],
					"internalType": "struct Ballot.Proposal[]",
					"name": "proposals",
					"type": "tuple[]"
				},
				{
					"internalType": "uint256",
					"name": "modules",
					"type": "uint256"
				},
				{
					"internalType": "uint256",
					"name": "exponent",
					"type": "uint256"
				}
			],
			"name": "createElection",
			"outputs": [],
			"stateMutability": "nonpayable",
			"type": "function"
		},
		{
			"inputs": [
				{
					"internalType": "bytes32",
					"name": "",
					"type": "bytes32"
				}
			],
			"name": "elections",
			"outputs": [
				{
					"internalType": "bytes32",
					"name": "name",
					"type": "bytes32"
				},
				{
					"components": [
						{
							"internalType": "uint256",
							"name": "modulus",
							"type": "uint256"
						},
						{
							"internalType": "uint256",
							"name": "exponent",
							"type": "uint256"
						}
					],
					"internalType": "struct Ballot.RSAPublicKey",
					"name": "publicKey",
					"type": "tuple"
				},
				{
					"internalType": "bool",
					"name": "created",
					"type": "bool"
				}
			],
			"stateMutability": "view",
			"type": "function"
		},
		{
			"inputs": [
				{
					"internalType": "bytes32",
					"name": "electionName",
					"type": "bytes32"
				}
			],
			"name": "getPKey",
			"outputs": [
				{
					"internalType": "uint256",
					"name": "",
					"type": "uint256"
				},
				{
					"internalType": "uint256",
					"name": "",
					"type": "uint256"
				}
			],
			"stateMutability": "view",
			"type": "function"
		},
		{
			"inputs": [
				{
					"internalType": "string",
					"name": "signedBallot",
					"type": "string"
				}
			],
			"name": "vote",
			"outputs": [],
			"stateMutability": "nonpayable",
			"type": "function"
		}
	]
}